:020000040002F8
:1060000088850020DD630200E5630200E76302008B
:10601000E9630200EB630200ED6302000000000090
:10602000000000000000000000000000EF6302001C
:10603000F163020000000000F3630200F563020058
:10604000AD6A0200996B0200CD710200B16E0200D0
:10605000C56E0200F76302009D670200596C0200E2
:10606000F7630200F7630200F7630200F7630200C0
:10607000F7630200F7630200F7630200F7630200B0
:10608000DD710200116C0200016B0200A9650200C3
:10609000D96E02003D6F0200456F0200F7630200F7
:1060A000F7630200F763020085710200AD71020020
:1060B000F7630200F7630200000000000000000028
:1060C000F7630200F7630200F7630200F763020060
:1060D000456C0200F7630200F76302000000000055
:1060E00000000000000000000000000000000000B0
:1060F00000000000000000000000000000000000A0
:10610000000000000000000000000000000000008F
:10611000000000000000000000000000000000007F
:10612000000000000000000000000000000000006F
:10613000000000000000000000000000000000005F
:10614000000000000000000000000000000000004F
:10615000000000000000000000000000000000003F
:10616000000000000000000000000000000000002F
:10617000000000000000000000000000000000001F
:10618000000000000000000000000000000000000F
:1061900000000000000000000000000000000000FF
:1061A00000000000000000000000000000000000EF
:1061B00000000000000000000000000000000000DF
:1061C00000000000000000000000000000000000CF
:1061D00000000000000000000000000000000000BF
:1061E00000000000000000000000000000000000AF
:1061F000000000000000000000000000000000009F
:10620000DFF80CD000F092F900480047CDC9020039
:106210008885002000B583B002900091019244F27D
:10622000010071466A4601F031FB03B000BD000079
:1062300030B450E8012F93B2C48923448489A34227
:1062400028BF1B1B0489A34202BFBFF32F8F00206E
:1062500007E0C3EA020340E80134002CE9D14FF023
:1062600001000A6030BC704750E8012FC2EA0242C8
:1062700040E801210029F7D1704730B450E8022FDF
:106280001FFAA2F3C488A34202BFBFF32F8F0020DE
:106290000DE0C48923448489A34228BF1B1BC2EAA2
:1062A000034340E80234002CE8D14FF001000A60BB
:1062B00030BC704750E8022FC2EA224240E8022177
:1062C0000029F7D17047034653E8022FD988B2EB73
:1062D000324F4FF0000017BF92B241EA014142EA4B
:1062E000014104E05A68B2EB324F08BF012043E895
:1062F0000212002AE8D1704730B4044654E8000F77
:106300000D4644E80053002BF8D1156030BC7047AF
:1063100030B4044654E8000F40EA010544E8005355
:10632000002BF7D1156030BC704730B4044654E8F8
:10633000000F00EA010544E80053002BF7D1156077
:1063400030BC704730B4044654E8000F80EA0105C1
:1063500044E80053002BF7D1156030BC704730B4CF
:10636000044654E8000F00EB010544E80053002BFD
:10637000F7D1156030BC704730B4044654E8000FC4
:10638000A0EB010544E80053002BF7D1156030BCA9
:10639000704770B404464FF0000054E8006F0D6879
:1063A000AE4207BF44E80023012044E800630E60CA
:1063B000002B1CBF0020F0E770BC704730B40446CF
:1063C00054E8000F88422CBF451A054644E80053A4
:1063D000002BF5D1156030BC70470000064880479F
:1063E00006480047FEE7FEE7FEE7FEE7FEE7FEE7BA
:1063F000FEE7FEE7FEE7FEE75D6F020001620200D6
:106400002DE9F05F0546002092469B4688460646E9
:10641000814640241BE0284641464746224600F07C
:1064200074F853465A46C01A914110D31146184683
:10643000224600F016F82D1A67EB01084F46224657
:106440000120002100F00DF817EB00094E41201E3D
:10645000A4F10104DFDC484631462A464346BDE844
:10646000F09F202A04DB203A00FA02F10020704756
:106470009140C2F1200320FA03F319439040704782
:10648000004870473469030040EA01039B0703D0CA
:1064900009E008C9121F08C0042AFAD203E011F863
:1064A000013B00F8013B521EF9D27047D2B201E025
:1064B00000F8012B491EFBD270470022F6E710B509
:1064C00013460A4604461946FFF7F0FF204610BD62
:1064D000421C10F8011B0029FBD1801A704730B50F
:1064E00004460020034600E05B1C934203D2E05CBC
:1064F000CD5C401BF8D030BD034611F8012B00F8ED
:10650000012B002AF9D118467047202A04DB203AD3
:1065100021FA02F00021704721FA02F3D040C2F1C3
:10652000200291400843194670470000064C074D71
:1065300006E0E06840F0010394E807009847103453
:10654000AC42F6D3FFF760FE647103008471030070
:1065500070B58C1810F8015B15F0070301D110F825
:10656000013B2A1106D110F8012B03E010F8016B52
:1065700001F8016B5B1EF9D12B0705D40023521ED5
:106580000DD401F8013BFAE710F8013BCB1A921C3D
:1065900003E013F8015B01F8015B521EF9D5A1423B
:1065A000D8D3002070BD000030B58DB066480078AB
:1065B000002840D1654807F035F8044600BF25465D
:1065C0003DB100BF62A24FF4A2712846FFF722FE40
:1065D00000BF00BF644807F041F9044600BF2546EC
:1065E0003DB100BF5AA240F247112846FFF712FE04
:1065F00000BF00BF5D4807F065F9044600BF2546AF
:106600003DB100BF52A24FF4A5712846FFF702FE2C
:1066100000BF00BF0821564807F0AAF9044600BF92
:1066200025463DB100BF4AA240F24D112846FFF772
:10663000F1FD00BF00BF0020019001A801F07EFB2A
:106640004C48D0F80802B0F5007F5CD23E48007894
:10665000022858D025200290474800680A2816D200
:1066600002AA03A9434804F025FC00BF029825288C
:1066700001D1012000E0002005463DB900BF34A251
:106680004FF4AD710020FFF7C5FD00BF21E03B498D
:106690000988032242EA014039A108F027FA02AA38
:1066A00003A9344804F0B2FB00BF0298252801D1A9
:1066B000012000E0002005463DB900BF24A240F2C1
:1066C00061110020FFF7A6FD00BF00BF00202A498E
:1066D00008601D480078012801D107F0F1F903A8EE
:1066E00007F018FA044600BF25463DB100BF18A2C6
:1066F0004FF4B6712846FFF78DFD00BF00BF0220A2
:10670000114908701AE010480078012816D000BF1F
:1067100007F082F90446112C0BD000BF25463DB18D
:1067200000BF0BA24FF4BB712846FFF773FD00BFFB
:1067300000BF112CECD00120034908709DF8040023
:1067400001F01EFB0DB030BDE43C00203C63002096
:106750006472697665735F785C6573625F74696D96
:1067600065736C6F742E6300886803008C68030087
:106770009068030054630020F83C0020583D00203E
:106780004641494C454420544F2053454E442C200B
:106790004E4F2041434B0D0A000000002DE9F04F01
:1067A00089B00027002008904FF4807007900126E0
:1067B000002412E0079807F01DFF40B100BF7B489E
:1067C0000068304018B1079807F006FF374376009D
:1067D0000798001D80B20790641C082CEAD34FF480
:1067E000BE7007F007FF50B14FF4BE7007F0F4FE23
:1067F00047F0004708AA0121002007F0D3FEF8B2B5
:1068000000B3012600241BE006EA0700B0B100BF78
:10681000674850F82400C0F30420804600BF644855
:1068200050F82400C0F301408146204603F01EF9D1
:10683000054615B149464046A84700BF7600641C8E
:10684000082CE1D307F0004000287DD000200690FE
:106850000590002505E04FF0FF3004A941F8250020
:106860006D1C002DF7D000BF0020069000245FE0D3
:106870005048005D0390039820F0C0094D48005730
:10688000401C002853D004A9484606F06DFC00289F
:106890004DD003984FEA901A484603F02FF98046EE
:1068A00003F0E4F80290029810B9BAF1030F3DD159
:1068B000BAF1030F03D105A9484606F060FC00BFFA
:1068C00000BF4FF0A041084600F5E06151F82910E3
:1068D000C1F3014800BF08A9484606F045FC8346BD
:1068E000BBF1000F02D0B8F1020F05D0BBF1000FD1
:1068F0001BD1B8F1030F18D1BAF1030F0FD1B8F1C2
:10690000020F01D1032000E00220019048460199C6
:1069100007F0D2FD0698401CC0B2069000BF029856
:1069200018B151464846029A904700BF00BF641C08
:10693000042C9DD3069888B34FF0010803AA0121C7
:10694000002007F02FFE00E02DE000250BE003A85B
:1069500050F8250008A951F82510884202D04FF0C0
:10696000000802E06D1C002DF1D000BFB8F1000F4F
:1069700002D00020069010E000250CE003A850F89B
:10698000250008A941F8250005A850F8250004A90C
:1069900041F825006D1C002DF0D000BF069800289E
:1069A0007FF462AF00BF09B0BDE8F08F0463004020
:1069B000106500406C54002000F01F02012191403E
:1069C000024A430942F823107047000080E200E0C9
:1069D00000F01F0201219140024A430942F82310AE
:1069E0007047000080E200E000F01F0201219140AA
:1069F000024A430942F823107047000080E100E09A
:106A000000F01F02012191404209920002F1E022B0
:106A1000C2F80011704700F01F02012191404209A5
:106A2000920002F1E022C2F80011704700F01F024C
:106A300001219140024A430942F8231070470000A7
:106A400000E200E000F01F0201219140024A4309E8
:106A500042F823107047000000E200E010B5002863
:106A600007DA4A07140E054A00F00F031B1FD4541F
:106A700003E04A07130E024A135410BD18ED00E05C
:106A800000E400E010B5002807DA4A07140E054AB2
:106A900000F00F031B1FD45403E04A07130E024AF1
:106AA000135410BD18ED00E000E400E010B54FF401
:106AB000807006F070FC80B14FF4807006F074FCBA
:106AC000012006F07BFC0D48407930B901200B49CC
:106AD000487108460168002088474FF4827006F02C
:106AE0005AFC50B14FF4827006F05EFC022006F0B2
:106AF00065FC024801680120884710BD6C3B0020FE
:106B000070B51D480078012802D106F0D9FF04466F
:106B100006F04EFD044600BF25463DB100BF17A25A
:106B200040F227112846FFF775FB00BF00BF06F0B3
:106B30001FFD044600BF25463DB100BF0FA24FF424
:106B400095712846FFF766FB00BF00BF06F0ECFC1E
:106B5000044600BF25463DB100BF08A240F22D11FA
:106B60002846FFF757FB00BF00BF00200949086017
:106B70000149087070BD0000E43C00206472697631
:106B800065735F785C6573625F74696D65736C6F64
:106B9000742E6300F43C002010B51948006838B129
:106BA0001848006800F0010010B100201449086086
:106BB00013480C30006870B11248006800F00800FB
:106BC00048B100200E490C3108600F48006810B130
:106BD0000D48006880470A481030006870B10948C5
:106BE000006800F0100048B100200549103108602D
:106BF0000648006810B105480068804710BD0000D5
:106C00000011004004130040CC3B0020C83B002092
:106C100010B500200949086000210948C0F8441156
:106C2000C0F84811C0F84C1100200549C1F8000116
:106C300002493C3908600EF069FB10BD401101406B
:106C40000010014010B504220021024805F066FB47
:106C500010BD000000400240FEB54FF4827008F005
:106C600011FA002837D04FF4827008F015FA6C48FA
:106C700090F82E0018B16A4890F82F0058B3002001
:106C80008DF8000066484068019065480189ADF8BC
:106C90000810C06818B900206149087412E0604803
:106CA000008B5F4948830846C06848600846008BEF
:106CB00008810020C860084690F82E0010B9002016
:106CC00008F00CFA56480168684688470020544985
:106CD00081F82F0000BF524890F82E00002852D0B3
:106CE0004FF4807008F0CEF900284CD04FF480703B
:106CF00008F0D2F94A48408B494991F82D10884252
:106D000016DD4748408B464991F82D10401A4449FA
:106D100048830A4612890B465B8BD21A0B465B6886
:106D200003EB42000A4692F82D1008F097F923E091
:106D30003B48408B3A4991F82D1088420FD1384892
:106D4000C06860B10120364981F82F0000204883D7
:106D50000A4692F82D10D06808F080F90CE030480F
:106D6000408B2F4991F82D10884205D101202C49E4
:106D700081F82F00002048834FF4827008F08CF9CE
:106D8000042008F0ABF94FF4887008F07BF970B17B
:106D90004FF4887008F080F900202149087402201F
:106DA0008DF80000084601686846884700BF4FF428
:106DB0008A7008F067F938B14FF48A7008F06CF9FE
:106DC0000020174908742AE01548456924E0B5FAFF
:106DD00085F64FF00040F0408543B00000F58C741C
:106DE000204608F04FF9B8B1204608F055F90120C7
:106DF0008DF80000A4F58C70C0F3C7008DF8040076
:106E0000A4F58C70012121EA90018DF80510044849
:106E100001686846884700BF002DD8D100BFFEBD7D
:106E2000D854002010B500F0F9F910BD2DE9F04755
:106E3000074688461646C24607EB47011B4800EB4B
:106E4000C109D9F8140020B1012811D0022826D197
:106E50001EE0484600F01AFA0546B54201D2002469
:106E600005E0344632465146484600F056FA18E0EE
:106E7000484600F00BFA0546B54201D2284600E02C
:106E80003046044622465146484600F046FA08E09D
:106E900032465146484600F007FA044601E0002415
:106EA00000BF00BF2046BDE8F0870000BC600020A6
:106EB00010B50249024805F01FFA10BD9054002099
:106EC0000030004010B503494FF0402005F014FA9F
:106ED00010BD0000B45400203EB516480068019073
:106EE00002A806F07FFB04461CBB1348006800B3F1
:106EF000029800F0010030B100208DF800006846D3
:106F00000D4909688847029800F0020030B101205D
:106F10008DF800006846084909688847029800F023
:106F2000040030B102208DF800006846024909686B
:106F300088473EBDB83B0020903B002010B50EF0C6
:106F4000EFF810BD10B508F02DFB10BD0249014847
:106F5000086070470090D003FC3C002070B503F03F
:106F6000EFFA4FF0805528B1B5F82403C0F304219F
:106F70007548016003F020FB10B1754973484867FC
:106F800003F03EFB28B1D5F844027249C0F3423009
:106F9000086003F053FB20B16F48016821F0807155
:106FA000016003F061FB002428B16C480460446078
:106FB0006848001F046003F075FB18B165490320A1
:106FC0006431086003F084FB012658B16449052050
:106FD0000860634878300660614808300460091D25
:106FE0003F20086003F08AFBF0B35E4800685E490A
:106FF00008605C48001D0068091D08605948083099
:107000000068091D086057480C300068091D0860B9
:10701000544810300068091D086052481430006858
:10702000091D08604F48183000684F49203108603A
:107030004C481C300068091D08604A482030006830
:10704000091D0860474824300068091D086045484C
:1070500028300068091D086042482C300068091D6E
:1070600008604048303000E017E000683E49403199
:1070700008603C4834300068091D086039483830E1
:107080000068091D086037483C300068091D086029
:10709000344840300068091D086003F033FA28B115
:1070A000D5F85802314900F04F00086003F066FA45
:1070B00030B12F480168C90702D06FF001010160AB
:1070C00003F090FA20B12B48016841F4806101601F
:1070D00021487438016841F470010160BFF34F8F9B
:1070E000BFF36F8F4FF01022D2F80002002803DBAD
:1070F000D2F80402002822DA1F4B1E601F480168E4
:107100000029FCD01525C2F8005201680029FCD0E6
:10711000C2F8045201680029FCD01C6001680029F3
:10712000FCD0BFF34F8F0C48F0380168144A01F4CB
:10713000E06111430160BFF34F8F00BFFDE7BDE881
:107140007040FFF703BF0000403501400DF0ADBABD
:1071500000C007403C050040FCED00E00C01004091
:10716000105600400404001020C50040E40E00400A
:10717000000400403C17004004E5014000E40140E9
:107180000400FA050648006848B100200449086078
:1071900004480078032802D10120034908617047A0
:1071A00040A10140893B00200010004000B58BB099
:1071B00001A806F0FDFA9DF804100DF10900024A3D
:1071C000126890470BB000BDE83C002010B50249A2
:1071D0000868804710BD0000743B002008B50120FE
:1071E0000B490968014009B1012100E00021012992
:1071F0000DD100BF00200902064A885008461146FA
:107200004058009000BF00BF03480068804708BD99
:1072100004030140000001407C3B002010B5124CEB
:1072200002202061606111A0A0611349E1614FF467
:10723000007121620021A1626162E1620BA0A06481
:107240000E49E164102121650021A1656165E165B8
:107250000BA1E01DFFF750F90AA12046FFF74CF9FA
:107260002020A07110BD0000A46000205465726D44
:10727000696E616C000000001C6100201C6300202E
:1072800052545400534547474552000010B501463B
:107290000A69CB689A4204D88C68641EE41AA01864
:1072A00001E0D41A601E10BD2DE9F047044689465E
:1072B00017464FF0000AE56800BFD4F81080A845D3
:1072C00003D9A8EB0500461E04E0A5EB0800401C0E
:1072D000A1680E1AA068401BB04201D9304601E0F7
:1072E000A068401B0646BE4201D2304600E0384648
:1072F00006466168481932464946FFF7C5F8B24468
:10730000B144BF1B3544A068A84200D10025E56008
:10731000002FD2D15046BDE8F0872DE9F047044652
:1073200089461546E668A068871BAF4208D96168A0
:1073300088192A464946FFF7A7F87019E06010E05F
:10734000B8466168881942464946FFF79DF8A5EBA3
:10735000070809EB070142466068FFF795F8C4F893
:107360000C80BDE8F08702E008C8121F08C1002A9F
:10737000FAD170477047002001E001C1121F002AB6
:10738000FBD170470146202908DA012088400A4ACB
:10739000104008B1012070470020FCE7402909DABD
:1073A000A1F12000012202FA00F008B10120F2E769
:1073B0000020F0E70120EEE7FC06FFBD01460829AA
:1073C00001D30020704719B1012901D0042901D14E
:1073D0000020F7E70120F5E710B5044619480278C8
:1073E0000078401C174B187017480188174800F0A8
:1073F00035F814480078082802D100201149087097
:1074000011480088801C1049088008460088A4287C
:1074100016DBA4210D480BF0D3FB0D48007820B1FA
:10742000AC220A490B480CF0BFFB04200649088037
:1074300009480088401C08490880044809884180A0
:1074400010BD0000E43A0020E23A0020743F002022
:10745000E03A0020643E00209C3A0020F8B5054642
:107460000E461446072C02DD4FF0FF30F8BD0948E8
:1074700010F814008DF80000064800EB4400407836
:107480008DF80100AA190223194668460DF010FB79
:107490000220EBE7D33C002070B505460E46254997
:1074A0000988032242EA014023A107F01FFB0121C2
:1074B000082007F03CF8642005F08AFF04F068FD1E
:1074C000224823490988018004202249088000209D
:1074D00021490870012005F07BFF1F4802780078E1
:1074E000401C1D4B18701B4801881848FFF7B6FF59
:1074F000012005F06DFF184802780078401C164BFB
:107500001870144801881148FFF7A8FF00BF002237
:1075100020211248006800F0CFFB04463CB100BFB8
:107520000FA24FF4C1712046FEF774FE00BF00BFEA
:1075300070BD0000583D0020736574207570206197
:10754000646320616E6420786C000000743F00204A
:107550009E3A0020E23A0020E43A0020186203003C
:107560002E2E5C2E2E5C2E2E5C6D61696E2E6300BD
:1075700070B505460C4605B10CB9002070BD2878E1
:1075800040082178B0EB510F01D00020F6E7062229
:10759000611C681CFEF7A3FF08B90120EEE700207C
:1075A000ECE710B50446204602F03AFA00BA10BDE6
:1075B000014601F0030008B9012070470020FCE7F4
:1075C000024650680068401E084008B90120704714
:1075D0000020FCE70246002104E0505C08B10120D5
:1075E0007047491C0629F8D30020F9E710B5034677
:1075F000D868884206D88818401E1C69A04201D865
:10760000012010BD0020FCE710B504466CB108480D
:10761000C068A04209D806480069A04205D32046A8
:1076200004F027FF08B1012010BD0020FCE7000096
:10763000003D002070B504460D4604F1AB00FFF795
:10764000C9FF0646012D06D0022D0DD0032D11D005
:10765000042D19D113E0A07928B194F8240010B9B1
:107660000EB1012070BD00BFE07910B10EB1022053
:10767000F8E700BF207A08B10320F3E700BF607A83
:1076800008B10420EEE700BF0020EBE70146481CEC
:10769000052290FBF2F302FB1300C0B2704710B555
:1076A00001220221002001F093FE044600BF1CB11C
:1076B000072C01D0204610BD00BF07220221012067
:1076C00001F086FE044600BF1CB1072C01D0204605
:1076D000F1E700BF0A220021084601F079FE0446C6
:1076E00000BF1CB1072C01D02046E4E700BF0020FA
:1076F000E1E7000070B5B0B04FF2120528128DF826
:107700000C00E8B28DF80D002A486DDF2948401CB6
:107710000168CDF80E108088ADF812002648254982
:10772000B1F801100180AC2105A8FEF7C6FE4FF6A6
:10773000FF70ADF8000003A902910820ADF8040025
:10774000CDF838D002208DF8140001208DF81600F5
:10775000ADF8240019490A9101218DF890104FF4D9
:107760009671279141F27071289101218DF8911045
:107770004FF41661299100212A9111482E9004207E
:107780008DF8170005A90F4800F0EAFE044600BF77
:1077900026463EB100BF0CA240F22A613046FEF7F9
:1077A00039FD00BF00BF0121064800F0D6FE30B011
:1077B00070BD0000A03A00209E3A0020E83A002068
:1077C00081050300883D00202E2E5C2E2E5C2E2E7F
:1077D0005C6D61696E2E630070B50446012C02D1A8
:1077E00002F080FD11E00321084800F07BFF054610
:1077F00000BF2E463EB100BF05A240F2CF61304629
:10780000FEF708FD00BF00BF00BF70BD883D00202F
:107810002E2E5C2E2E5C2E2E5C6D61696E2E63000A
:1078200070B58CB004460D461646002005E0C0F148
:107830000F01615C0DF80010401C1028F7D30D21DA
:1078400004A8FEF73AFE002005E02A5CC0F10F0311
:1078500004A9CA54401C0328F7D3684646DF002019
:1078600005E0C0F10F0208A9895C3154401C0328CF
:10787000F7D30CB070BD000010B504460248017883
:10788000204601F065F910BD4C3B00202DE9FE4378
:1078900007460E46144672B600BF07F045FA00BF11
:1078A00000BF06F0A3FF0028FBD100BF00BF012FDF
:1078B0000CD06FF48050384488B1B0F5405F24D0CC
:1078C0006FF44051084400283BD111E02A4909884F
:1078D000012242EA014029A107F008F93BE02649CC
:1078E0000988012242EA01402CA107F0FFF832E0AA
:1078F00025462B88204909884FF0010C4CEA0140AD
:107900002FA16A6807F008F925E02546A86807F066
:1079100039FF8046D5E900108DE8430016490988F3
:10792000012343EA014043462CA1AA6807F018F955
:1079300011490988012242EA014032A107F0D6F834
:1079400009E00D490988012242EA0140324632A18C
:1079500007F0D6F800BF00BF00BF3548006800F050
:10796000010000B100BE00BF22463146384600F09B
:1079700061F8BDE8FE830000583D0020534F465497
:107980004445564943453A20415353455254494F83
:107990004E204641494C454400000000534F465498
:1079A0004445564943453A20494E56414C494420A6
:1079B0004D454D4F5259204143434553530000001C
:1079C000415353455254494F4E204641494C45443A
:1079D0002061742025733A25750000004552524FEE
:1079E00052202575205B25735D2061742025733A34
:1079F00025750D0A50432061743A203078253038BF
:107A000078000000456E64206F66206572726F72A8
:107A1000207265706F727400554E4B4E4F574E205A
:107A20004641554C54206174203078253038580038
:107A3000F0ED00E008B5012300939DF80030154BF0
:107A4000186059609A606FF48041401809D001288D
:107A500011D1DA60D86800889861D8684068D86128
:107A600009E01A61186980685861186900689861AE
:107A700018694068D861186858689868D8681869A3
:107A800058699869D86972B69DF800000028FBD142
:107A900062B608BD2C5800202DE9F84307460C4675
:107AA000904626480088844244DC4FF6FF7500204B
:107AB0000090684600F042F900BF214890F800901D
:107AC0002048007805F08AF9484501D1012000E0FE
:107AD000002030B91B480578007805F07FF9194976
:107AE00008709DF8000000F04BF94FF6FF708542DA
:107AF0001ED01548006840F835808FB1002C0FDD8E
:107B0000124909680D4A128805FB021022463946BF
:107B1000FEF7BAFC0C48006800EBC500848005E065
:107B200000200949096801EBC5018880002600E0B2
:107B3000042600E009263046BDE8F883E63B002035
:107B4000E43B0020E53B0020DC3B0020E03B002044
:107B50002DE9F0411AE016480478164800681649E5
:107B6000098804FB01051548006800EBC4008688FD
:107B70001248006850F8347031462846B8470C481F
:107B8000007805F02BF90A49087000BF00BF0020FB
:107B900058B900BF0649087809490978814201D1DE
:107BA000012100E000210029D5D0BDE8F0810000CE
:107BB000E43B0020E03B0020E63B0020DC3B0020D3
:107BC000E53B002030B50346481C4FF6FF7505EA3B
:107BD000C004104600F003050DB9012500E00025A2
:107BE0000DB9072030BD084802601019074D286004
:107BF0000020074D2870074D28700748038007486C
:107C000001800020EEE70000DC3B0020E03B00208C
:107C1000E53B0020E43B0020E63B0020E83B002061
:107C200010B503460C4600BF0B48807808B9082001
:107C300010BD00BF0AB90720FAE70BB90720F7E724
:107C40001868007C08B10820F2E719680020087461
:107C50004C744A6100BFEBE74C58002010B50BF0A4
:107C60003BFA00200F4908704870112088700020EE
:107C70000D4908600D4908700D4908701520FEF780
:107C8000A7FE07211520FEF7FDFE1520FEF7C3FE17
:107C900000200BF0F7F90BF0EFF90649086000201F
:107CA00010BD00004C580020EC3B0020FC3B0020A5
:107CB000FD3B0020F03B00202DE9F04104460E463C
:107CC0001746254600BF1048807810B90820BDE847
:107CD000F08100BF0CB90820F9E7052E01D207207A
:107CE000F5E7686908B90820F1E7687C012801D147
:107CF000304600E0002080463B464246314628465A
:107D00000DF0B4FAE3E700004C58002070B50446CB
:107D1000254600BF0848807808B9082070BD00BF1C
:107D20000CB1686908B90820F8E70020287402211E
:107D300028460DF0CAFAF1E74C58002030B5EFF3B1
:107D4000108372B60B4A94680121002C04D0017094
:107D5000002B00D162B630BD916007490D68074C19
:107D6000254015600C604C6854604A174A60002139
:107D70000170EDE7E859002080E100E0FC06FFBD5E
:107D800009498A68002A0ED000280CD1EFF3108030
:107D900072B60B68054A13604B68536000228A6014
:107DA000002800D162B67047E859002000E100E0E9
:107DB000F8B505460C4617462088001DB84201D983
:107DC0000C20F8BD684679DF064600BF304600B19A
:107DD000F7E700BF0320218868542088401C2080DA
:107DE0001920218868542088401C2080208841194F
:107DF000BDF800000DF007FC218808442080002019
:107E0000DFE7000010B500224FF4C03109480068D8
:107E1000FFF752FF00224FF4803107480068FFF758
:107E20004BFF00224FF4F01104480068FFF744FFB5
:107E300010BD00001C6203002C62030028620300D6
:107E40000748006820F001000549086005480068FF
:107E500020F0010040F08070024908600020704767
:107E6000501600407417004070B504460D46204679
:107E700004F092FC70BD10B50446637903F0030270
:107E80002179208804F0A2FB10BD10B504462079AA
:107E900018B9204600F008F803E02046FFF7EBFF92
:107EA00000BF00BF10BD00002DE9F04F87B00446B1
:107EB00000252788384603F053FF8046C146AA466E
:107EC00000223B480178384600F058FE6079C0F344
:107ED000800000284CD04FF6FF764FF0010A05AB2A
:107EE00001220721404609F03DFB054635B12946F0
:107EF00038460BF0FBFE4FF0000A05E04FF6FF712D
:107F0000069803F06BFE06464FF6FF70864211D0CE
:107F1000B1464946384603F005FF3846FFF7ACFC4A
:107F200040B938460BF088FE3846FFF7A5FC08B983
:107F30004FF0000ABAF1000F0CD04A460721404624
:107F400009F095FB05462DB1294638460BF0CEFECB
:107F50004FF0000A4FF6FF70864208D0384609F00D
:107F600039FD20B1404603F0E5FE834600BF08E03E
:107F7000384609F02FFD20B1404603F0DBFE0646EF
:107F800000BF02208DF80000ADF802706079C0F3E8
:107F9000800008B1012000E002208DF808008DF873
:107FA00009A0684602F0C2FC07B0BDE8F08F0000EF
:107FB000483B002010B504460B4800884FF6FF717F
:107FC000884205D109480078401C0849087002E041
:107FD00000200649087005480078052803DD0121C6
:107FE0000D2006F0A4FA10BDE63A0020E13A002088
:107FF0002DE9FF4781468A464FF000084148006856
:10800000039001208DF80F0002208DF80C0003AEC4
:108010003D4F06B93D4E3946304607F04DFF044608
:1080200000BF00BF26463EB100BF39A240F29B21EF
:108030003046FEF7EFF800BF00BF324A121D07CAF4
:108040008DE8070005208DF804006946404607F0DA
:1080500095FE044600BF26463EB100BF2CA24FF459
:1080600029713046FEF7D6F800BF00BF2C494046C4
:1080700007F0F4FF044600BF26463EB100BF24A22D
:1080800040F2A7213046FEF7C5F800BF00BF4046CA
:1080900007F0E6FE08F060F822490988032242EA68
:1080A00001401F49B1F900201FA106F029FD1C481D
:1080B0000088C0F307154FF6FE7229461F4800F0EE
:1080C000D1FB04468CB1082C0FD0132C0DD0112CF1
:1080D0000BD043F20140844207D000BF0CA240F213
:1080E000BB212046FEF796F800BF44B90D49098828
:1080F000032242EA01402A4611A106F001FDBDE833
:10810000FF870000586203001D320300466203002F
:108110002E2E5C2E2E5C2E2E5C6D61696E2E630001
:10812000923A0020583D0020206164635F76616CC4
:1081300075655F62612E2E2564000000403E0020C0
:1081400020696E206D61696E202E2E2E2062617472
:10815000206C6576656C20747261736E66657265FD
:10816000642E2E2564000000002112E00B48D0F898
:108170001024012306E000BF107A884201D10023B9
:1081800002E05268002AF6D100BF0BB108467047E2
:10819000491C0A29EADB4FF0FF30F8E7805C002039
:1081A000F0B591B004460D46607CD8B1002009902E
:1081B00000BF9DF8240020F00F00401C8DF8240023
:1081C0009DF8240020F0F00010308DF8240000BF4E
:1081D000687B8DF825009DF8260020F00600801CA5
:1081E0008DF826001C210AA8FEF767F99DF82800E3
:1081F00020F00200801C8DF82800607C08B101206E
:1082000000E000209DF8281060F304118DF828107C
:1082100000200B900D900E90607C08B109A800E042
:1082200000200F900020109000BF01208DF80E005C
:1082300042F61920ADF80C0000BF00200290A87B88
:108240008DF80800E87B8DF809009DF80A0020F001
:108250000600801C8DF80A009DF80A0020F0080036
:108260008DF80A009DF80A0020F010008DF80A0031
:108270009DF80A0020F001008DF80A00287B01908B
:10828000142104A8FEF719F903A8049002A8059088
:108290000120ADF818000020ADF81A000120ADF85B
:1082A0001C0001A80890A088A31D04AA0AA9AADF9F
:1082B000064616B1304611B0F0BDA868002855D06A
:1082C00000BF01208DF80E0042F60810ADF80C003A
:1082D00000BF00200290287C8DF8080000BF9DF8A8
:1082E000090020F00F008DF809009DF8090020F02A
:1082F000F0008DF8090000BF9DF80A0020F006008C
:10830000801C8DF80A009DF80A0020F008008DF806
:108310000A009DF80A0020F010008DF80A009DF870
:108320000A0020F001008DF80A006846A96800F0F4
:1083300004FF0746142104A8FEF7BFF803A8049021
:1083400002A80590ADF818700020ADF81A00BDF82D
:108350001800ADF81C00CDF820D0E08804F10E0222
:1083600004A9ABDF06461EB13046A4E70020E08139
:108370000020A0E770B504460D4621462846AEDF32
:108380000646304670BD2DE9FC4105468846164636
:10839000002437880020308095F82D0058B13A46E7
:1083A0003146404600F016FC044600BF204608B1A6
:1083B000BDE8FC8100BFA87850B13A46314640463E
:1083C000FFF7F6FC044600BF204600B1F0E700BF0F
:1083D000E87860B1E97848B23B463246414602F05F
:1083E000FBFD044600BF204600B1E1E700BF68681E
:1083F00068B1696891F900003B46324641460DF08C
:10840000E7F8044600BF204600B1D1E700BF288945
:1084100000280EDD43460622022105F10800CDE9C1
:1084200000670DF03BFB044600BF204600B1BFE7EC
:1084300000BF288A00280EDD43460722032105F1EC
:108440001000CDE900670DF029FB044600BF20466F
:1084500000B1ADE700BF288B00280EDD4346152292
:10846000142105F11800CDE900670DF017FB044653
:1084700000BF204600B19BE700BF286A58B13B46C9
:1084800032464146286A01F02EFD044600BF2046D0
:1084900000B18DE700BF686A58B13B46324641469D
:1084A000686A04F02BFB044600BF204600B17FE75A
:1084B00000BF95F82C0000280BDD3B4632464146B4
:1084C00028460BF0ABFD044600BF204600B16FE725
:1084D00000BF287858B13B4632464146284604F052
:1084E000BBFB044600BF204600B161E700BF204649
:1084F0005EE7F8B504460E461546002000902B4670
:108500006A463146204600F008F807460FB90020B9
:10851000F8BDBDF800002044FAE730B504460D462A
:1085200004B10AB9002030BD002103E0605C401CAA
:10853000084481B21088884203DC481C205C9842C1
:1085400001D0A942F2DBA94201DB0020EBE7881C45
:108550001080605C401E80B2E5E780F83010704704
:1085600070B504460D4605B10CB90E2070BD05F17D
:10857000780001F059FC08B90720F7E70020A07047
:108580002C2205F17801201DFDF77EFF002084F8E4
:108590003000D5F8A4006063D5F8A800A0634FF6BA
:1085A000FF70A4F8A80004F19400C4F8A40000210E
:1085B000B020C4F8AA10A4F8AE100155207810B964
:1085C000FF2084F8540004F15500C4F894001F21E2
:1085D0009820015304F1980204F155012846FFF751
:1085E000D2FE064600BF304600B1BFE700BF05F12E
:1085F0003C00A0B104F174009C2108511F21A4F893
:10860000A0109C20015904F1A00205F13C00FFF7E5
:10861000BAFE064600BF304600B1A7E704E00021DD
:108620009C200151A4F8A010012151200155208B5C
:1086300081B248200153012084F83C0000212164CC
:10864000502001556169616404F13C02002104F18C
:10865000540072DF064600BF304600B186E700BF17
:1086600001202070304681E770B504460D462E4645
:108670002088102804D0112807D026280FD109E01F
:108680002146304608F010F80AE02146304608F04E
:10869000CCF805E02146304608F031FC00E000BF90
:1086A00000BF70BD2DE9F04105460E463446022D4F
:1086B00002D0032D12D100E000BF607868B1002025
:1086C0006070A178204600F00DF8074627B1A06B36
:1086D00010B13846A16B884700BF00E000BF00BF63
:1086E000BDE8F08170B504460E46207808B9082030
:1086F00070BDA67002F0E6FC18B101206070002089
:10870000F6E70021B020C4F8AA10A4F8AE10015575
:10871000A07910B1A078012809D0E07910B1A07833
:10872000012804D0E07970B1A07802280BD1606BE9
:1087300030B1012084F8B1000820616B884702E065
:10874000002084F8B10031462046FEF773FFA07088
:10875000606BA0B1A078032802D0A07804280ED1C5
:10876000607960B194F8B20048B9002084F8B40090
:10877000012084F8B3000720616B884702E00020E5
:1087800084F8B300182104F13C00FDF796FE0120A7
:1087900084F83C0004F12C0009F0F8FA20B194F8B8
:1087A0002C105120015502E001215120015594F86F
:1087B000240060B104F12C0009F0E8FA20B194F82B
:1087C00028105220015502E00121522001550021BC
:1087D00050200155A078052824D2DFE800F01F03BF
:1087E0000A11180004F13C0120460BF05DFD05461E
:1087F00019E004F13C0120460BF03EFD054612E075
:1088000004F13C0120460BF061FD05460BE004F14C
:108810003C0120460BF088FD054604E0002084F86A
:10882000310000E000BF00BFA07898B104F13C0225
:1088300004F15400D4F8A41072DF05460DB12846A7
:1088400056E794F8301094F8540073DF05460DB1E4
:1088500028464DE7606B18B194F83100616B88478A
:10886000002045E7F7B592B00446164614B90E202D
:1088700015B0F0BD00270020109011900120ADF838
:1088800040000020ADF8420013A81190E18810AA22
:108890004FF6FF70ACDF07461FB99DF84C002074FF
:1088A00001E03846E4E7607C00283CD000200C90D2
:1088B0000D900E900F90E088ADF8300001208DF8FB
:1088C0003200BDF84200ADF8340010A80E901198A7
:1088D0000F904FF6FE7086421FD101A800F0D0F82D
:1088E000002516E002A931F8150000F00DF9022864
:1088F0000ED13FB902A830F815100CA8FFF73AFDC9
:10890000074605E002A830F815100CA8FFF732FD65
:108910006D1C0198A842E5D804E031460CA8FFF789
:1089200029FD074600E008273846A1E7F8B50446C8
:108930000D4604B10DB90E20F8BD286820602879D5
:108940006074FF20207400BF01208DF8020041F602
:108950000F00ADF8000000BF221D69460120A8DF0E
:10896000064600BF304600B1E6E700BF2946204674
:10897000FFF716FC06463046DEE770B504460D46A6
:1089800005B104B970BD2E462088502804D1214677
:10899000304608F011FB00E000BF00BF00BFF1E768
:1089A0002DE9F04107460D4643F20206384603F032
:1089B000ADFB044605B90A4D74B12946384675DF4A
:1089C00006464EB900206072012020722868C4F863
:1089D0000A006868C4F80E003046BDE8F081000067
:1089E0000C3B00202DE9F041044600BF14B90E20D5
:1089F000BDE8F08100BF1C2221461C48FDF744FD64
:108A00001B481A490860206860B120687ADF054673
:108A10000DB12846ECE7164821680A6802604968EB
:108A2000416005E012487BDF05460DB12846DFE7CF
:108A3000002617E006EB86000E4901EB800700BF19
:108A40004FF6FF70388000BF0B4800EB461078608F
:108A50000A4A0021381DFFF7E3F805460DB103204F
:108A6000C6E7761C002EE5D00020C1E71851002093
:108A70000C3B002004510020E450002081590300E9
:108A800010B5044602484168204601F0E1F910BDE6
:108A90003451002010B50446204600F08DF820B176
:108AA0002146034804F068FA10BD0020FCE70000EE
:108AB0004451002070B504460D46164620460CF081
:108AC000A9FF08B9002070BD034951F824003246BF
:108AD000294602F027FBF6E74C51002070B504460A
:108AE0000025204600F068F850B12146054804F002
:108AF00043FA06460EB1022000E00120054600BF01
:108B0000284670BD4051002070B50446002520461F
:108B100000F052F850B12146054804F02DFA0646FF
:108B20000EB1022000E00120054600BF284670BDBE
:108B30003C51002010B51821044804F0EDF904461A
:108B4000182C00D110BDE0B2FCE700003451002029
:108B500070B505460C4620460CF05CFF50B1284627
:108B600000F02AF830B1044901EB8400294604F0F2
:108B700003FA70BD0020FCE74C51002070B505469B
:108B80000C46164620460CF045FF88B1284600F0FA
:108B900013F868B136B1074901EB8400294604F0A7
:108BA000FAF905E0034901EB8400294604F08EF947
:108BB00070BD00004C51002010B50446142C01DBA0
:108BC000002010BD2146024804F0D6F9F9E7000064
:108BD000385100202DE9FC4105460C4617462088F7
:108BE0000930B84202D90C20BDE8FC8168466DDF2F
:108BF000064600BF304600B1F6E700BF08202188D6
:108C000068542088401C20801B20218868542088BC
:108C1000401C208020882844DDF801100160BDF848
:108C2000051081802088801D20809DF8000040086C
:108C300018B900202188685402E001202188685476
:108C40002088401C20800020CEE700002DE9F8435A
:108C50000446884600252088212873D006DC102889
:108C60001ED0112807D012286DD146E03B286BD0CA
:108C70005628F9D1A9E05F490988032242EA014058
:108C80005DA105F033FF4FF6FF705F4908800020BB
:108C90005E490870022631465D480BF055FCA6E09F
:108CA000072000F0C3FB054600BF2F463FB100BFC1
:108CB00058A240F25E513846FDF7ACFA00BF00BF43
:108CC000A0885149088008460188564804F0FCFAFB
:108CD000054600BF2F463FB100BF4EA240F2615192
:108CE0003846FDF797FA00BF00BF00224FF420215D
:108CF0004D480068FEF7E0FF79E022893D49098888
:108D0000032343EA014049A105F0FAFE628939498B
:108D10000988032343EA014048A105F0F1FE2089B8
:108D2000322812DD33490988032242EA014047A173
:108D300005F0DCFE3C480068FEF7E8FF00204C49E7
:108D400008701DE01DE051E02EE04948007805283C
:108D50000EDDA0883B2176DF0546264909880322DF
:108D600042EA0140434905F0C1FE00204049087035
:108D700020490988032242EA01403FA105F0B6FEDE
:108D800035E000200090A08869468FDF054600BFCF
:108D90002F463FB100BF1FA240F285513846FDF774
:108DA00039FA00BF00BF22E0A088132176DF054614
:108DB00000BF2F463FB100BF16A240F28E51384689
:108DC000FDF728FA00BF00BF11E0A088132176DF6D
:108DD000054600BF2F463FB100BF0EA240F296519C
:108DE0003846FDF717FA00BF00BF00E000BF00BF24
:108DF000BDE8F883583D0020446973636F6E6E656B
:108E0000637465642E000000E63A0020E03A00201A
:108E1000D03A00202E2E5C2E2E5C2E2E5C6D6169C9
:108E20006E2E63007C3D0020206203006D696E2081
:108E30003A20697320256420000000006D617820CD
:108E40003A2069732025642000000000424C455FF1
:108E50004741505F4556545F434F4E4E5F5041521D
:108E6000414D5F5550444154452073756363000084
:108E7000AD3A002038690300424C455F4741505FDE
:108E80004556545F434F4E4E5F504152414D5F55E2
:108E90005044415445206D696E203C2032303030C2
:108EA0000000000070B505460E462888102802D044
:108EB00011282CD115E01748006860B901F066F957
:108EC000044600BF34B11448006818B12046124966
:108ED0000968884700BF0F480068401C0D490860BA
:108EE00016E00C480068401E0A4908600846006801
:108EF00060B9FEF7D4FB044600BF34B106480068F1
:108F000018B1204604490968884700BF00E000BF47
:108F100000BF70BD083B0020043B002070B5044634
:108F20000D462088102806D0112808D012280ED00F
:108F3000502810D107E0204607F07EFB0CE02046C9
:108F400007F05AFC08E0204608F00AF804E0204642
:108F500007F05AFB00E000BF00BF70BD2DE9F041F3
:108F600004468846A5882088102804D0112817D0E8
:108F70001A2849D118E00AF005F8284609F07CFEC5
:108F800030B900BF22A2E2210420FDF743F906E038
:108F9000E07B012803D029462C4803F0FCFF33E096
:108FA00028460AF013F82FE0207A0121B1EB101FB8
:108FB00001DA012000E000200646207A0221B1EB10
:108FC000101F01DA012000E0002007468EB129467B
:108FD0001E48001D03F0DFFF2FB129461B48083053
:108FE00003F0D9FF0FE029461848083003F06EFF60
:108FF00009E029461548001D03F068FF294613487B
:10900000083003F063FF00BF00BFBDE8F08100003F
:109010002E2E5C2E2E5C2E2E5C2E2E5C2E2E5C2E8A
:109020002E5C636F6D706F6E656E74735C626C65E1
:109030005C636F6D6D6F6E5C626C655F636F6E6EAF
:109040005F73746174652E6300000000405100205E
:1090500070B504460D4600BF0748007800B970BDE2
:1090600000BF204602F038FD20460BF029FA2046CA
:1090700002F066FA00BFF2E7383B00200A46038898
:10908000102B06D0112B07D0502B09D0572B09D10C
:1090900007E08388938006E04FF6FF73938002E039
:1090A00001E000E000BF00BF7047000070B504465B
:1090B0000E4635462088102804D011280DD050289F
:1090C0001CD116E0A088A8800E490988032242EA34
:1090D00001400DA105F00AFD11E00A4909880322AB
:1090E00042EA01400CA105F001FD4FF6FF70A88097
:1090F00005E02146284609F0BFFC00E000BF00BFA4
:1091000070BD0000583D0020736320636F6E6E6574
:10911000637465642E000000736320646973636F79
:109120006E6E65637465642E0000000001784078FF
:1091300041EA002000F0010070470A7802704A7886
:1091400002214270084670477FB506F0E7F90446F1
:1091500000BF25463DB100BF23A240F2A9512846D9
:10916000FDF758F800BF00BF0020039003A90120BD
:1091700005F0C6FF044600BF25463DB100BF1AA258
:1091800040F2AF512846FDF745F800BF00BF002070
:1091900000900190029001208DF8000008208DF8C9
:1091A000020069462220039A69DF044600BF254673
:1091B0003DB100BF0CA240F2B7512846FDF72AF896
:1091C00000BF00BF03A806F05DF8044600BF2546B7
:1091D0003DB100BF04A240F2BC512846FDF71AF889
:1091E00000BF00BF7FBD00002E2E5C2E2E5C2E2EF9
:1091F0005C6D61696E2E630001460148405C7047FA
:109200008262030010B502460949885C00BF4FF036
:10921000A0442146D1F80435012484409C43C1F880
:109220000845012484401C40C1F80C4500BF10BD16
:109230007E62030010B504460249085D012105F075
:1092400093F910BD7E62030010B504460249085D23
:10925000002105F089F910BD7E62030010B50146BA
:10926000094B585C00BF4FF0A044234600BFD3F821
:109270000445C44004F001040CB1012000E00020CA
:10928000024682F0010010BD7E62030010B500248A
:1092900003E02046FFF7CEFF641C042CF9D310BD79
:1092A00010B5002403E02046FFF7CEFF641C042C19
:1092B000F9D310BD02464FF0FF30002106E0054B08
:1092C0005B5C934201D1084602E0491C0429F6D3B5
:1092D00000BF70478262030010B5002000F074FAEE
:1092E000044600BF1CB1062C01D0204610BD00BFB3
:1092F000012000F069FA044600BF1CB1062C01D021
:109300002046F3E700BF0020F0E700002DE9F04120
:1093100006460F464FF0000800243046FFF7CAFF0C
:109320000446042C3ED20FB3012F02D0022F38D1B5
:1093300030E004EB4400214911F8008004EB4400C4
:109340000844407850B11E4A4FF400411D4800685F
:10935000FEF7B2FC05460DB91948067004EB44004F
:10936000164908448078184908551AE015480068DD
:10937000FEF7CCFC1448005D04EB44010F4A114495
:109380008978884205D104EB44001146084490F8DE
:10939000028006E004EB44000849084490F801808C
:1093A00000BF00BFB8F1000F06D00848006818B130
:1093B0004046064909688847BDE8F081B85000205A
:1093C000FC3A002090620300FD3A0020F83A0020A9
:1093D00030B503460020042B23D2012A07D10129EE
:1093E00003D103F10E04E4B200E00024224679B177
:1093F000012902D0022911D104E003EB43040A4DF4
:109400002A550DE003EB4304074D2C44627007E03E
:1094100003EB4304044D2C44A27001E0072000BF7D
:1094200000E0072030BD0000B850002070B50446B1
:1094300000250548007800F0010018B1204600F032
:1094400005F80546284670BDF03A00202DE9F047A2
:10945000044600260025D748007820B10020D549D1
:10946000087003F01BF8182C79D2DFE804F00C1117
:10947000124579ADF1FFEEEDECEBEAE9E8E7E6E560
:10948000E4E3E2E1E0DF03F009F8CB4804708DE1AA
:1094900000BF0020FFF7E2FE58B10020FFF7CAFE30
:1094A000022C02D14FF4E16001E04FF47A600546EE
:1094B00009E00020FFF7C8FE022C01D1C82001E01E
:1094C0004FF4C8700546BC4804704FF40040A5FB3B
:1094D00000204FF4FA73D71840F100015A0000231E
:1094E0003846FCF78DFF814600224946B3480068A4
:1094F000FEF7E2FB064659E10020FFF7AFFE58B148
:109500000020FFF797FE032C02D14FF4487001E0D2
:109510004FF47A60054609E00020FFF795FE032C22
:1095200001D1C82001E04FF4C8700546A24804707C
:109530004FF40040A5FB00204FF4FA73D71840F118
:1095400000015A0000233846FCF75AFF81460022EA
:1095500049469A480068FEF7AFFB064626E124E13B
:109560000020FFF77BFE58B10020FFF763FE042CBC
:1095700002D14FF47A6001E04FF47A6005460AE0C8
:109580000020FFF761FE042C02D14FF4C87001E007
:109590004FF4C8700546884804704FF40040A5FB9E
:1095A00000104FF4FA73CF1840F100015A00002365
:1095B0003846FCF725FF8146002249467F4800686F
:1095C000FEF77AFB0646F1E00020FFF747FE50B1B8
:1095D0000020FFF72FFE052C01D1C82001E04FF439
:1095E0007A60054609E00020FFF72EFE052C01D128
:1095F000C82001E04FF4C87005466F4804704FF46E
:109600000040A5FB00204FF4FA73D71840F1000189
:109610005A0000233846FCF7F3FE814600224946F3
:1096200066480068FEF748FB0646BFE0B8E0B6E0D3
:10963000AAE0A1E098E092E05FE05DE05BE059E045
:1096400057E051E042E033E024E015E00EE0FFE7B0
:109650000020FFF7D7FD58480470002240F6CD41A6
:1096600056480068FEF728FB06469FE00020FFF7FB
:10967000EBFD5148047099E001204E490870FFF756
:10968000C1FD002240F6CD414C480068FEF714FBB6
:1096900006468BE0012047490870FFF7B3FD002222
:1096A0004FF4804145480068FEF706FB06467DE022
:1096B000012040490870FFF7A5FD002240F6CD418A
:1096C0003E480068FEF7F8FA06466FE00120394987
:1096D0000870FFF797FD00224FF48041374800687B
:1096E000FEF7EAFA064661E0FFF7DAFD3248047059
:1096F0005CE000BF00BF00BF00BF31480068FEF75C
:1097000005FB0646C4F1110515B30EBB012D18D992
:10971000A8B2C82148434FF4004180FB01304FF408
:10972000FA729F1840F10001520000233846FCF7FE
:1097300067FE81460022494621480068FEF7BCFAD0
:1097400006460220FFF780FD01201E49087005E053
:109750000220FFF76FFD00201A49087026E002F092
:109760009DFE1548047021E002F098FE0020FFF7EE
:109770006BFD1148047019E002F090FE0120FFF724
:1097800063FD0D48047011E002F088FE0020FFF731
:109790005BFD0120FFF758FD0748047006E000BF9D
:1097A000FFF77EFD0448047000E000BF00BF3046B4
:1097B000BDE8F087ED3A0020EC3A00208862030013
:1097C0008C620300F43A002010B5044601212046C3
:1097D0000CF0F6F910BD000010B504460C2000BFD7
:1097E0004FF0A042114600BFD1F81025C24002F050
:1097F000010222B101210B2004F099FE06E00022B3
:109800004FF4004102480068FEF756FA10BD000010
:10981000306203002DE9FC4704460D461646A71C9E
:109820004FF001080020019001A8FEF787FA3048A8
:10983000006828602E4800682D494968411A2C4864
:109840008068401CA0EB010915E00121294803F0C4
:10985000C6FB03F057F882465146264803F0BFFB8B
:109860002348006822494968411A21488068401C01
:10987000A0EB010900BF4F45E7D8B8F1000F30D089
:109880000021009176B1009921F00301491C00915B
:10989000009921F00401091D0091009964F38911D8
:1098A00000910DE0009921F00301891C00910099BD
:1098B00021F00401091D0091009964F39F5100916A
:1098C0000B4909680A4A92681140094A0C3202EBB6
:1098D0008100009901600649096839440C3A116019
:1098E00000BF9DF80400FEF74BFA4046BDE8FC8738
:1098F000805C00209C60002070B504460D46A16885
:10990000481CA06020684554D4E90110884202D365
:10991000204604F0C6F970BD044840680349096850
:10992000884201D1012070470020FCE7805C0020C4
:10993000FEB507460020032103460122CDE90010B1
:109940001146082004F064FD0021082004F0EFFD1A
:109950000020032103460122CDE9001011460B200F
:1099600004F056FD01210B2004F0E1FD002003214D
:1099700003460122CDE900101146072004F048FDFE
:109980000021072004F0D3FD06F0DCF810B906F042
:1099900079F804460C2006F051F81B480068029044
:1099A00003208DF80900194A02A90C2005F0CCFF0C
:1099B000044600BF25463DB100BF15A240F28761B5
:1099C0002846FCF727FC00BF00BF01210C2005F052
:1099D00065FF0020032103460122CDE90010114656
:1099E0000D2004F015FD00210D2004F0A0FD02253E
:1099F000002600200090334602460146019028468A
:109A000004F006FD00BFFEBD68620300F51D030003
:109A10002E2E5C2E2E5C2E2E5C6D61696E2E6300E8
:109A200001460A6892FAA2F000BA704701468879A6
:109A3000012809D10879012806D1488842F6021286
:109A4000904201D1012070470020FCE74FF0FF3128
:109A5000054A42F82010082804DBFF23A0F1080182
:109A600050325354704700001C54002001460248F5
:109A700050F82100704700001C5400202DE9F04FE1
:109A800003460C464FF0FF390AB1002000E00820E1
:109A900084460AB1082000E00C208046614624E09C
:109AA000154850F82100401CF0B91D4608462746CD
:109AB00016464FFA80FBDFF840A00AF1300A0AF898
:109AC00005B0DFF834A04AF820704EB94FFA85FB94
:109AD000A0F1080ADFF820E00EF1500E0EF80AB0EF
:109AE00000BF4FFA81F902E0491C4145D8D300BFBD
:109AF0004846BDE8F08F00001C5400200146014894
:109B0000405670474C54002070B594B00546574BF2
:109B10000FCB0FAC0FC44EF60270ADF84C00A11C79
:109B20000FA862DF044600BF264636B100BF50A230
:109B30006B213046FCF76EFB00BF00BF1C2108A85C
:109B4000FCF7BBFC9DF8200020F00200801C8DF883
:109B500020009DF8200020F0080008308DF820003B
:109B60000020079000BF9DF81C0020F00F00401C53
:109B70008DF81C009DF81C0020F0F00010308DF8CE
:109B80001C0000BF00BF9DF81D0020F00F00401C0E
:109B90008DF81D009DF81D0020F0F00010308DF8AC
:109BA0001D0000BF9DF81E0020F00600801C8DF8EF
:109BB0001E0007A80D909DF8200020F01000103026
:109BC0008DF82000002006909DF81A0020F0060075
:109BD000801C8DF81A009DF81A0020F00100401C2E
:109BE0008DF81A0000BF9DF8180020F00F00401CEF
:109BF0008DF818009DF8180020F0F00010308DF856
:109C0000180000BF00BF9DF8190020F00F00401C95
:109C10008DF819009DF8190020F0F00010308DF833
:109C2000190000BF142101A8FCF747FC13A80190FC
:109C300006A80290F420ADF810000120ADF80C0049
:109C4000E88805F1080301AA08A9AADF044600BFB5
:109C5000264636B100BF06A297213046FCF7DAFA55
:109C600000BF00BF002014B070BD0000CC63030033
:109C7000736572766963655F785C73657276696334
:109C8000655F6164632E63002DE9F04104460D4673
:109C90004FF6FF76304684420AD14FF48071284651
:109CA00008F0CEFA0646B6F5807F0FD126460DE0C5
:109CB000FF2C0BDC2146284608F0B2FA07460FB10C
:109CC000204601E04FF6FF70064600BF3046BDE873
:109CD000F081000010B5134800681349086013496B
:109CE000C87C134909688847124813490860002056
:109CF0001249C1F810010120086100BF0A48F0387C
:109D000000680028FAD000200749F03908600548AB
:109D1000006840F004000949C1F8000201204860D1
:109D200010BD0000C43B0020001200400855002078
:109D3000D03B0020EA5700200415004000100040EE
:109D400070B505460DB9094C01E0084C083409E02E
:109D5000204602F096FB064606B904E028467168E4
:109D6000884700BFF4E700BF70BD0000105400201A
:109D700010B504462CB90120064948700020FFF7B1
:109D8000DFFF012C04D1012002498870FFF7D8FFC2
:109D900010BD0000085400202DE9F04782461F48FE
:109DA0000068002836D01D480068056809F064F98D
:109DB00007461B480468214638460BF031F9C61C9B
:109DC0001848007808B909F069F9AE4201D228466E
:109DD00000E03046044424F07F44204609F046F970
:109DE00009F04AF98046394640460BF019F900F16E
:109DF0000309394620460BF013F9814509D909F0CA
:109E00003BF9814609F032F92F2005F00BFD0BF0EC
:109E1000C9FA01E009F060F9BDE8F087EC3B0020E9
:109E2000F03B0020FE3B002001468878012805D148
:109E300091F82000012801D100207047886A042889
:109E400002D0486A042801D10020F6E70120F4E797
:109E500033B58BB00546002000900C9878B10024F3
:109E60000BE021460CA803F087F828B1009A501C9B
:109E7000009001A820F81240641C142CF1D32C226D
:109E800069462846FCF700FB0DB030BD0146088846
:109E9000062808DB0888B0F5486F06DD08884FF60D
:109EA000FF72904201D0072070474888062808DBDF
:109EB0004888B0F5486F06DD48884FF6FF7290423B
:109EC00001D00720F0E708884FF6FF72904208D0D3
:109ED0004888904205D008884A88904201DD0720D2
:109EE000E2E70020E0E72DE9F04107460D46144681
:109EF00098462088801D404502D90C20BDE8F0819D
:109F00003846FFF7C3FF064600BF304600B1F5E70D
:109F100000BF0520218868542088401C2080122022
:109F2000218868542088401C208022885119388854
:109F30000BF069FB21880844208022885119788819
:109F40000BF061FB2188084420800020D6E7000048
:109F500010B5044600BF04A240F2E2412046FCF7DF
:109F600059F900BF10BD00002E2E5C2E2E5C2E2E47
:109F70005C6D61696E2E630030B587B01C21684648
:109F8000FCF79BFA002000904FF4203001904FF432
:109F90007020029005208DF80C000020ADF80E0016
:109FA0008DF810000A4805900A4806906846FEF7AA
:109FB00019FD044600BF25463DB100BF06A240F290
:109FC000F9412846FCF726F900BF00BF07B030BDB5
:109FD000C9050300519F02002E2E5C2E2E5C2E2EF2
:109FE0005C6D61696E2E6300F8B505460C46607ABB
:109FF00088B9207A10B91048476801E00E48876890
:10A000002A4639466068FDF757FE064616B13046C7
:10A0100009F024FE0EE0002020720748406948B194
:10A0200001208DF80000ADF80250034841696846F0
:10A03000884700BFF8BD0000185100207CB50546D8
:10A0400015480078401C144908700820ADF800003D
:10A050005020ADF802000020ADF804004FF4FA6083
:10A06000ADF8060069460D480088FEF799FC0446E5
:10A0700044B90B490988032242EA014009A104F0CE
:10A0800035FD07E006490988032242EA01400DA197
:10A0900004F02CFD7CBD0000AD3A0020E63A002023
:10A0A000583D002020636F6E6E20706172732075C2
:10A0B0007064617465207265717565737420736571
:10A0C0006E74000020636F6E6E2070617273207575
:10A0D0007064617465207265717565737420736551
:10A0E0006E74206661696C65642021212120000066
:10A0F000F0B585B004460D4617461E4614220B499E
:10A100006846FCF7C1F9ADF802408DF80850ADF88B
:10A110000A708DF80C600022054801782046FEF791
:10A120002DFD684600F002FC05B0F0BDA063030001
:10A13000483B002010B586B00446208807F0EAF8B6
:10A1400000BB2088FEF7A6FC30B92088012241F22E
:10A15000060100F097F915E0208800220A490978E5
:10A16000FEF70CFD02208DF804002088ADF80600F3
:10A1700000208DF80C0000218DF80D1001A800F0D2
:10A18000D5FB00BF06B010BD483B002010B5012232
:10A1900000210846FFF71CF9044600BF1CB1072C3C
:10A1A00001D0204610BD00BF072202210120FFF789
:10A1B0000FF9044600BF1CB1072C01D02046F1E77F
:10A1C00000BF042202210020FFF702F9044600BF6D
:10A1D0001CB1072C01D02046E4E700BF0020E1E7D6
:10A1E0002DE9FF4105460C46002002900390ADF892
:10A1F0000840ADF80A40009001906A4602A928463E
:10A2000090DF0646002E2CD0304605F0BBFA0746FC
:10A2100016490988012242EA01403B462A46144970
:10A2200004F07AFCBDF8000010B9BDF8020058B186
:10A23000BDF80230BDF800200C490988012747EA23
:10A2400001400CA104F068FCBDF8040048B1BDF861
:10A25000042006490988012343EA0140154904F016
:10A260004FFC304604B0BDE8F0810000143D0020F2
:10A270007C69030054686520726571756573746547
:10A28000642054582F5258207061636B6574206CA1
:10A29000656E67746820697320746F6F206C6F6ED1
:10A2A000672062792025752F2575206F637465748A
:10A2B000732E0000C869030070B504460D460021E6
:10A2C000074807F0ADFF40B1204602F0B1FA00B1F7
:10A2D00070BD0021024807F0DDFF00BFF8E7000075
:10A2E000193B002070B50C490988032242EA01405D
:10A2F0000AA104F0FBFB08F023F9044600BF254641
:10A300003DB100BF09A240F2EE512846FBF782FFA3
:10A3100000BF00BF70BD0000583D00204572617352
:10A320006520626F6E647321000000002E2E5C2E8B
:10A330002E5C2E2E5C6D61696E2E630070B5064634
:10A340000D460EB1012070BD287920B1012809D039
:10A35000022813D10FE002202871284608F0E6FCFD
:10A3600004460DE0284600F0E3FD04460A2C01D126
:10A3700041F61D5404E041F61D5401E00F2400BFD6
:10A3800000BF2046DFE770B5044620793D2802D1A2
:10A3900041F23D0001E04FF488500546208800223C
:10A3A000294602F013F970BD10B50021034802F0F0
:10A3B0004DFE044684F3100010BD00009C60002098
:10A3C00010B50446022102480BF092F910BD0000BE
:10A3D000943A002010B509490988032242EA014055
:10A3E00007A104F083FB0B490A7804490988032379
:10A3F00043EA014008A104F083FB10BD583D002052
:10A4000064756D6D795F736D5F68616E646C6572A4
:10A4100000000000D03A0020736D3A20256400004F
:10A42000014614480078144A127890421DD0114811
:10A430000078401C0F4A107010460078022801D1A5
:10A44000002010700D480B4A127850F82200086066
:10A450000B4A086812681044094A106010460068E8
:10A4600020F07F401060012070470020086000BF8E
:10A47000FAE70000FC3B0020FD3B0020F43B0020FD
:10A48000F03B002070B506460C4615462B4622468A
:10A4900000213046FFF72CFE70BD00002DE9F84387
:10A4A00005460E461746984669461048006802F071
:10A4B000D5FC044614B90420BDE8F8831C212046CD
:10A4C000FBF7FBFF012020712560C4F808800848D5
:10A4D0000068B6FBF0F0E060676169460348006819
:10A4E00002F0E6FC08F08CFA0020E5E7DC650300EA
:10A4F000D065030010B50446D4E90321501828DFC5
:10A5000010BD00000D48007806280FD10B48001D33
:10A51000007800070AD1094808300078C0F303101A
:10A52000032805D0042805D0052805D00020704751
:10A53000012070470120704701207047E00F00F0B4
:10A540000D48007806280FD10B48001D0078000741
:10A550000AD1094808300078C0F30310032805D059
:10A56000042805D0052805D0002070470120704739
:10A570000120704701207047E00F00F00D4800787F
:10A5800006280FD10B48001D007800070AD10948A2
:10A5900008300078C0F30310032805D0042805D044
:10A5A000052805D000207047012070470120704722
:10A5B00001207047E00F00F00948007806280BD111
:10A5C0000748001D0078000706D1054808300078CC
:10A5D000C0F30310032801D000207047012070470A
:10A5E000E00F00F04FF08050D0F83011062903D171
:10A5F000D0F83401062801D00020704701207047B0
:10A600000D48007806280FD10B48001D0078000780
:10A610000AD1094808300078C0F30310032805D098
:10A62000042805D0052805D0002070470120704778
:10A630000120704701207047E00F00F009480078C2
:10A6400006280BD10748001D0078000706D10548F1
:10A6500008300078C0F30310032801D000207047B1
:10A6600001207047E00F00F00D48007806280FD158
:10A670000B48001D007800070AD10948083000780F
:10A68000C0F30310032805D0042805D0052805D001
:10A69000002070470120704701207047012070475B
:10A6A000E00F00F00948007806280BD10748001D8C
:10A6B0000078000706D1054808300078C0F3031081
:10A6C000032801D00020704701207047E00F00F000
:10A6D0000948007806280BD10748001D00780007BC
:10A6E00006D1054808300078C0F30310032801D0D4
:10A6F0000020704701207047E00F00F00948007803
:10A7000006280BD10748001D0078000706D1054830
:10A7100008300078C0F30310052801D000207047EE
:10A7200001207047E00F00F00278072A38D2DFE8F6
:10A7300002F037040712222B340000220A7030E0A6
:10A7400001220A7003898B818388CB81C2688A6069
:10A7500000230B7425E002220A7003898B81838811
:10A76000CB81C2688A60827D062A01D1012300E084
:10A7700000230B7415E003220A70C3888B810389C0
:10A78000CB81C2688A600CE004220A70C3888B8186
:10A790000023CB8100228A6003E005220A7000E0DA
:10A7A00000BF00BF7047000070B50546002409E0F7
:10A7B000064850F8240020B1044850F824102846D8
:10A7C0008847641C042CF3D370BD0000F4590020AA
:10A7D00030B587B004460D462068806808B907B0D8
:10A7E00030BD182101A8FBF768FE0295A06806900D
:10A7F000207910B1012815D109E001208DF804005D
:10A8000020690390E0680490606905900BE00220E5
:10A810008DF804000749E0680968484303906069BF
:10A82000059000E000BF00BF2068816801A888474C
:10A8300000BFD4E7D065030070B586B006460C466D
:10A8400015469CB3112C31D0082C2FD0142101A80F
:10A85000FBF733FEADF80660304601F081FAADF843
:10A8600008000D2C14D103208DF804002DB1287898
:10A8700000F0010008B1012000E002208DF80C007A
:10A8800000218DF8101041F20111ADF80E1009E011
:10A89000862C03D106208DF8040003E007208DF8F4
:10A8A0000400039401A800F055F800BF06B070BD85
:10A8B00010B50446204600F04DF810BD70B50446B2
:10A8C000608801F04DFAA080002505E0044850F8AA
:10A8D0002510204688476D1C002DF7D070BD000064
:10A8E000143B002070B50546002405E0044850F8EC
:10A8F000241028468847641C022CF7D370BD000042
:10A900001C63030070B50546002405E0054850F8B7
:10A91000241028468847641C034800788442F5DBED
:10A9200070BD0000BC530020463B002070B50446BB
:10A93000608801F015FAA080002505E0044850F871
:10A940002510204688476D1C002DF7D070BD0000F3
:10A950007463030070B50546002405E0044850F810
:10A96000241028468847641C002CF7D070BD0000D6
:10A97000C8630300F0B5034600241FE0124E3068A0
:10A9800006689E4203D90668F61A06601AE0066851
:10A990009B1B06683444002606600B4E35680A4F40
:10A9A000C6693E60C66846B10E1926F07F4646600D
:10A9B000C66886601668C661156000BF02480068F8
:10A9C0000028DBD100BFF0BDEC3B002010B586B005
:10A9D0000446142101A8FBF770FDA08900F0C2FA1B
:10A9E000ADF808002078062854D2DFE800F05303C1
:10A9F00004052E4800BF00BFA08900F0B8FA18B9BE
:10AA0000E08908F0B2FAF8B1E08908F0ABFA8DF805
:10AA10000C002078032801D1012100E000218DF8ED
:10AA20000D10A1680491606830B908208DF8040009
:10AA300001218DF8141004E009208DF804006168EC
:10AA4000059101A806F06CFE25E0A08900F08FFAC0
:10AA5000A0B1E08990B9606838B90A208DF8040087
:10AA6000BDF8080007F070F802E00B208DF8040034
:10AA700001200D49087001A806F052FE0BE01320DA
:10AA80008DF804004FF6FF70ADF8080001A806F03D
:10AA900047FE00E000BF00BF0348007808B106F0A1
:10AAA000B1FF06B010BD0000293B002038B50546B7
:10AAB0000E48007808B9022038BD4FF6FF70854275
:10AAC00001D10420F8E7684607F07CFE04460CB983
:10AAD0000820F1E70520207001202071E5806846FC
:10AAE00007F080FE07F080FF0020E5E7003C002033
:10AAF00038B50D48007808B9022038BD684607F01F
:10AB000061FE04460CB90820F7E70620207068466D
:10AB100007F068FE0548007810B10120034908736A
:10AB200007F062FF0020E8E7003C0020B85A002050
:10AB300070B586B0142101A8FBF7BFFC2D48007842
:10AB400028B101A8FFF730FE002006B070BD2948EB
:10AB5000001D02F03DFA08B10020F6E700F0D4FA3B
:10AB600006460EB13046F0E707F068FE06F01CFB23
:10AB7000054625B1022D03D0062D0DD102E000BF00
:10AB80000B20E2E701201B4908700020486001A863
:10AB9000FFF70AFE0020D8E700BF00BF684607F0B5
:10ABA00011FE04460CB90820CFE7012020700C2DBF
:10ABB00016D2DFE805F01506150715111512150A4E
:10ABC0000E0B00BF002020710BE000BF032020719E
:10ABD00007E00220207104E000BF0120207100E0A6
:10ABE00000BF00BF684607F0FDFD07F0FDFE002036
:10ABF000ABE70000003C002038B504460CB9052046
:10AC000038BD6946204608F0AFF800B3BDF8000033
:10AC100000EB80000F4901EB8000C068A8B1A07A6A
:10AC200098B1BDF8000000EB800001EB8000C06827
:10AC3000401EBDF8001001EB8101064A02EB8101C4
:10AC4000C8600020A072002502E0062500E00A2569
:10AC50002846D5E7905A00207FB514461D462B465E
:10AC6000224601A9684608F01BF804B070BD37B54C
:10AC70000C4615462B4622466946002008F010F87F
:10AC80003EBD37B50C4615462B4622460021684688
:10AC900008F006F83EBD024602B109B9052070472A
:10ACA000106808600020FAE7F8B504460D4604B1C4
:10ACB0000DB90520F8BD6946204608F055F8A0B149
:10ACC0006668BDF8001001EB8101094A02EB8101C1
:10ACD00001F10C00012102F082F92E6060680C3055
:10ACE00068600120A0720020E4E70A20E2E700008B
:10ACF000905A002070B504460D460CB9052070BD71
:10AD000003230022294620460BF01EF9F7E770B511
:10AD100004460D4602230022294620460BF014F972
:10AD200070BD70B505460E4614460CB9052070BDC1
:10AD300002232246314628460BF006F9F7E70000C9
:10AD400070B5054608480068042801D10C2409E0C4
:10AD500006480549096840F821500121024802F0DF
:10AD60003EF90024204670BD0C3C0020F459002020
:10AD7000F8B504460D460A48007808B90220F8BD27
:10AD80000CB90520FBE7694628460BF0EDF90646AD
:10AD90001EB9BDF80000208065803046EFE7000056
:10ADA000003C002070B504461148007808B9022024
:10ADB00070BD0CB90520FBE72088022801DD0420C6
:10ADC000F6E7208800EB80000A4901EB80066088E6
:10ADD000C01C7189884208DC218860880BF0B2F9B8
:10ADE000002020806080002500E004252846DFE761
:10ADF000003C0020905A002010B50446024800781C
:10AE000005F05CFB10BD0000AE3A00202DE9F041DA
:10AE1000044688461646D4F80802B0F5007F03D1F0
:10AE200000203060BDE8F08104F5007003C888425E
:10AE300005D2D4F80012D4F80402451A06E0D4F87A
:10AE40000012C1F50071D4F8040245183068A84218
:10AE500000D235683560D4F800022844B0F5007F90
:10AE600015D9D4F80002C0F50077D4F80002011912
:10AE70003A464046FBF708FBB844D4F80802384489
:10AE8000C4F808020020C4F80002ED1B00BFD4F88B
:10AE9000000201192A464046FBF7F6FAD4F80002F0
:10AEA0002844C4F80002D4F808022844C4F8080270
:10AEB00000BFB7E72DE9F047044688461646D4F8A8
:10AEC0000802B0F5007F03D100203060BDE8F087B4
:10AED000D4F8007204F5007003C8884205D2D4F893
:10AEE0000012D4F80402451A06E0D4F80012C1F5A5
:10AEF0000071D4F8040245183068A84200D23568C1
:10AF000035607819B0F5007F0BD9C7F50079E119E4
:10AF10004A464046FBF7B8FAC8440027A5EB0905A6
:10AF200000BFE1192A464046FBF7AEFA00BFCDE765
:10AF30003EB504460A4B6A460021A01D07F0B0FE4C
:10AF4000054635B9064A9188019807F087FF0546FE
:10AF500003E0034800210160416028463EBD000037
:10AF6000303C00200146A1F5404080B270470146C8
:10AF7000B1F5404F05DB4FF6FE70814201DC012048
:10AF800070470020FCE710B50446E07FFF2808D09A
:10AF9000A07F18B1E07F03F0A8FA02E0E07F03F0A1
:10AFA000BBFA00206077207204F10800D4E9002188
:10AFB000904710BD10B504462078182802D1FDF73F
:10AFC000B9FD207010BD10B504462078182802D1B4
:10AFD000FDF7B0FD207010BD30B504461088C01CD0
:10AFE000984201D90C2030BD0220158848551088A0
:10AFF000401C10800120158848551088401C108086
:10B0000015884C551088401C10800020EBE770B567
:10B0100004460D469822115B0122D4F89400FDF7F6
:10B0200068FA064606B1357004F13C0204F1940159
:10B0300004F1540072DF70BD2DE9F04106460C4664
:10B0400015460027B846862C02D100BF012708E02C
:10B05000112C03D14FF00108002702E04FF0000847
:10B060000027C5B13A46134801783046FDF786FD02
:10B070004246114801783046FDF780FD00220F4816
:10B0800001783046FDF77AFD00220D480178304600
:10B09000FDF774FD0BE03A46084801783046FDF7AD
:10B0A0006DFD4246064801783046FDF767FDBDE874
:10B0B000F0810000693B0020683B0020653B0020D8
:10B0C000643B002010B5002002F0EEFF10BD000030
:10B0D00010B54FF4405400F009F8034908610846E0
:10B0E0000069001BC86010BD003D00204FF010201B
:10B0F0004169000402694369481C08B10846704769
:10B1000003FB02F0FBE7000010B5FFF7E1FF0022B0
:10B110000249034802F078FF10BD0000E06503001B
:10B12000003D0020F7B50D4617460DB90020FEBDC5
:10B130000026009868B1002409E02146684601F025
:10B140001BFF18B1A0B23946A847761C641C142C0A
:10B15000F3D33046EBE710B50446606807F09CFB7C
:10B1600010BD00003EB500BF9DF8000020F00F00AC
:10B17000401C00909DF8000020F0F000103000907E
:10B1800000BF062217A168467CDF044600BF2546A3
:10B190003DB100BF15A240F23D412846FBF73AF809
:10B1A00000BF00BF0020019002901020ADF8040005
:10B1B0005020ADF806000020ADF808004FF44870AC
:10B1C000ADF80A0001A87ADF044600BF25463DB16C
:10B1D00000BF06A240F24B412846FBF71BF800BF18
:10B1E00000BF3EBD45784730303100002E2E5C2E2A
:10B1F0002E5C2E2E5C6D61696E2E630070B5002191
:10B20000084801F0C7FF044600BF25463DB100BF16
:10B2100005A240F254412846FAF7FCFF00BF00BFE8
:10B2200070BD0000683D00202E2E5C2E2E5C2E2E60
:10B230005C6D61696E2E630070B505460DB101202D
:10B2400070BD1848007B18B100201649087301E052
:10B2500000F0DEF81348007808281DD2DFE800F07F
:10B260001C04080C101C141800F03EF8044615E0ED
:10B2700000F0BCF8044611E000F098F804460DE038
:10B2800000F046F8044609E000F02CF9044605E019
:10B2900000F03AF9044601E00F2400BF00BF204649
:10B2A000CEE70000B85A00200D480089401C0C4928
:10B2B000088100204880087300BF0DE000EB80018A
:10B2C000084A12F8211009B9012200E000220449BD
:10B2D0000A310A54411C88B20228EFDB7047000093
:10B2E000B85A0020905A002010B5084800F036F8EF
:10B2F00040B900200549891E08704880486041F621
:10B300001D5010BD00F072F8FBE70000BA5A002093
:10B3100070B50F48458805EB85000E4901EB8000AC
:10B32000C06878B904200A49087005EB8500094A0D
:10B3300002EB8000002301224168074802F0B8FDBB
:10B34000044602E000F090F80446204670BD00007C
:10B35000B85A0020905A0020003D002010B5014648
:10B360000022002018E00F4B1B5C9BB100240D4B0A
:10B370001C5400EB80030C4C04EB8303DB684BB9DB
:10B3800000EB800304EB83031B7C012B02D10880BC
:10B39000012203E0431C98B20228E4DB00BF104600
:10B3A00010BD0000C25A0020905A0020F8B50C4889
:10B3B00044680C4800680B49898800EB8105608867
:10B3C000C01C86B20320064908700020B30000901C
:10B3D000084629464268044802F0FAFEF8BD00001B
:10B3E000B85A0020283C0020003D002010B5074935
:10B3F0004888091D07F0F6FC18B1FFF7D7FF04468F
:10B4000002E0FFF785FF0446204610BDB85A002031
:10B4100010B514480078082820D2DFE800F0041F97
:10B420001F0A1016171BFFF73FFF01200D49087078
:10B4300015E000F075F802200A4908700FE000F0EE
:10B4400029F806200749087009E000BF07200549D0
:10B45000087004E001200349087000E000BF00BF4D
:10B4600010BD0000B85A002010B50520064908702C
:10B47000022006498880084600230122016804480A
:10B4800002F016FD10BD0000B85A0020283C002034
:10B49000003D0020104908681049498801EB8101EE
:10B4A0000F4A02EB810149680B4A11600B49498838
:10B4B00001EB81010A4A02EB810148600649898853
:10B4C000064A528802EB8202054B03EB820211818D
:10B4D0000221014A91807047283C0020B85A002080
:10B4E000905A002010B5062005490870498801EBE4
:10B4F0008101044A02EB8101486805F033FE10BD6A
:10B50000B85A0020905A002010B50720034908704F
:10B510000020486005F036FE10BD0000B85A00203B
:10B52000054A50684288D21C91B2044A92880A4463
:10B53000024B9A8070470000B85A0020283C002037
:10B5400030B585B00446A5882088502828D05228D8
:10B5500002D054282FD103E0284601F01DF92AE03B
:10B5600014221B496846FAF78FFFADF802502846AF
:10B5700000F0F6FBADF80400BDF8040000F020F97F
:10B580000022144801782846FDF7F8FA00221248F4
:10B5900001782846FDF7F2FA6846FFF78FF90AE0CE
:10B5A000A01DFEF743FA28B10121284601F034F925
:10B5B0000AF0F0F800BF00BF00BF002207490848AA
:10B5C0000078FDF777FA00BF08F0A2FC05B030BDA7
:10B5D000F06203001D3B00201C3B0020697E02003E
:10B5E0001B3B002010B50446207868B9608801F044
:10B5F000D3F8608800F09EF928B1608801220449E0
:10B600000978FDF7BBFA00E000BF00BF10BD0000E5
:10B610001C3B002010B500F0EFFDFDF78BFA14493C
:10B620000870FDF787FA13490870FDF783FA12498D
:10B630000870FDF77FFA114908700D480078182846
:10B640000BD00C480078182807D00B480078182831
:10B6500003D008460078182801D1032010BD01212D
:10B66000074806F0D3FD0120064908700020F5E7E1
:10B670001A3B00201B3B00201C3B00201D3B0020F0
:10B68000193B0020183B00207CB504462078082890
:10B690003AD1607A002837D1207A012811D00728C2
:10B6A00002D008282ED128E0A08800F07FFA0546B5
:10B6B0004FF6FF70854203D00121284601F0ACF817
:10B6C00021E0A0886A46012105F00AFF06469EB9DE
:10B6D0000198007880B1A08800F068FA05464FF61E
:10B6E000FF70854207D00122094801782846FDF7FE
:10B6F00045FA08F00DFC00BF05E00021054806F002
:10B70000C9FD00E000BF00BF0AF044F87CBD0000A6
:10B710001C3B0020193B002010B502460B460021BF
:10B7200010E0906810F831001478A04209D19068B8
:10B7300000EBC1004078984203D1906800EBC10053
:10B7400010BD491C50688842EBDC0020F8E700007F
:10B7500010B504460B4801782046FDF7F9F970B1A1
:10B7600000210AE001EB4100074A02EB800040881B
:10B77000A04201D1C8B210BD491C1429F2D3FF2048
:10B78000F9E70000253B0020AC51002010B5002453
:10B790000DE004EB4401084A02EB810148880749A7
:10B7A0000978FDF7D5F908B9E0B210BD641C142C76
:10B7B000EFD3FF20F9E70000AC510020253B00202B
:10B7C0001CB50446044903C9CDE9000100226946BD
:10B7D000204605F0BCFE1CBD1463030010B500F04C
:10B7E00011FD012001490870002010BD1E3B002002
:10B7F0002DE9FC478146484600F0B2FA054600268E
:10B8000000274FF003084FF0010A4FF6FF70854202
:10B810000CD06A460821284605F062FE04462CB981
:10B820000198861D8788D0F8008000BF00BF43467E
:10B830003A4631464846B1DF0446042C01D1112472
:10B8400015E0082C01D1002411E00B2C0FD14FF092
:10B85000000A08F0020010B14FF0010807E006B935
:10B8600027B1002600274FF0030800E003240B2C2B
:10B87000DDD0BAF1000F00D10B242046BDE8FC87D3
:10B880002DE9FC478046404600F06AFA06464FF62E
:10B89000FF70864203D143F20200BDE8FC874FF0FF
:10B8A00001094FF0000A00BF4FF0000A4A46511C40
:10B8B0001FFA81F96B460821304605F053FE044615
:10B8C0000CBB019D032028602A1DA91D40462B6842
:10B8D000B2DF044634B932460821304605F0C7FECF
:10B8E00004460FE00C2C02D14FF0010A02E0052CB7
:10B8F00000D100240821304605F09EFE074607B11E
:10B90000032400BF02E0072C00D10C24BAF1000F81
:10B91000CAD100BF2046C0E710B5044604480088DD
:10B920004FF6FF71884201D008F0FEFA10BD00000A
:10B93000203B0020FEB5044602A80190204600F0FE
:10B940000FFA06466A460121304605F0C9FD054654
:10B950000DB10020FEBD01980078FBE770B50546EB
:10B960004FF6FF760E48B3DF04460CB1032070BDDE
:10B9700000BF4FF6FF720A4801882846AFDF044631
:10B9800043F20300844204D105480088401C044966
:10B99000088043F203008442EBD02046E7E7000032
:10B9A000223B002070B504460D46204600F01AF8F0
:10B9B000A84201D9022070BDA0884FF6FF718842CD
:10B9C00001D0208808B90120F5E70020F3E70246FE
:10B9D00013468B4204D21868401C08B101207047FE
:10B9E0000020FCE701464A8801F10C0000EB8200D0
:10B9F000704710B502F0FAFE08B903F0C9FA10BD9D
:10BA000010B50C490988032242EA01400AA103F05B
:10BA10006DF80C490A7807490988032343EA014075
:10BA200009A103F06DF80A4A01210A48FCF734F82D
:10BA300010BD0000583D002069646C655F746F5F45
:10BA400072656300D03A0020736D3A2025640000CF
:10BA500099740200A73A00203EB504460D462078AE
:10BA60000221B1EB500F01D000203EBDB4F801001F
:10BA7000ADF80800E0788DF80A00A188ADF8001054
:10BA8000A0798DF8020001AA69462846FBF7C8FE96
:10BA9000032201A902A8FAF722FD08B90120E4E770
:10BAA0000020E2E770B506460C463046FFF750FE30
:10BAB0000546FF2D0CD005EB4500064901EB800043
:10BAC000416821600189A180807AA071002070BD49
:10BAD0000520FCE7AC51002070B590B005462888E1
:10BAE000102801D010B070BD2C22291D05A8FAF72E
:10BAF000CBFC4FF6FF749DF818000321B1EB500FFB
:10BB000035D005F07DFE9DF81800400820B10128D1
:10BB100003D0022828D114E000BF09E0039800F107
:10BB2000110106A8FBF724FD10B1BDF8104006E096
:10BB300002AA04A9072005F02DFE0028EED100BFBF
:10BB400013E008E00398411C06A8FFF785FF10B139
:10BB5000BDF8104006E002AA04A9072005F01AFE6D
:10BB60000028EFD100BF00E000BF00BF00BFBDF85C
:10BB7000140006A901F0D0F806464FF6FF70844283
:10BB800011D0BDF81400214600F0CCF8BDF8140027
:10BB9000ADF80200ADF8044000208DF800006846C2
:10BBA000FEF7A0FE00BF00BF9CE700000246002198
:10BBB0000DE001EB4100084B33F82000904205D125
:10BBC00001EB410003EB800040887047491C1429B9
:10BBD000EFD34FF6FF70F8E7AC5100203EB50546B5
:10BBE0000C4605F00DFE0BE0BDF80800A04207D0A2
:10BBF0002846019900F024F810B1BDF808003EBDB8
:10BC00006A4602A9072005F0C5FD0028ECD14FF6D1
:10BC1000FF70F4E710B500F001FBFCF78BFF06495D
:10BC2000087008460078182801D1032010BD0120B3
:10BC3000024908700020F9E7253B0020243B002042
:10BC40002DE9F04704460D4604F1110605F11107F0
:10BC50001022691C601CFAF742FC48B9601C00F015
:10BC6000FCFB28B1681C00F0F8FB08B1012000E0E3
:10BC70000020824639463046FBF77AFC8046307811
:10BC80000221B1EB500F10D030780321B1EB500FEF
:10BC90000BD038780221B1EB500F06D03878032151
:10BCA000B1EB500F01D0012000E000208146B8F137
:10BCB000000F02D0B9F1000F05D1BAF1000F05D085
:10BCC000B9F1000F02D10120BDE8F0870020FBE7A9
:10BCD0000246108808B101207047002105E0901C41
:10BCE000405C08B10120F7E7491C0829F7D3002080
:10BCF000F2E770B505460C462846FFF7E9FF08B99C
:10BD0000002070BD28882188884201D00020F8E7F3
:10BD10000822A11CA81CFAF7E2FB08B90120F0E7F1
:10BD20000020EEE770B504460D462946204605F092
:10BD30006DFF70BD70B506463046FFF737FF04460D
:10BD4000304605F0D8FB05464FF6FF70844204D01C
:10BD50001DB90146204605F059FF284670BD000078
:10BD600070B505462846FFF7F3FC0446FF2C05D0C6
:10BD700004EB4400034931F8200070BD4FF6FF701A
:10BD8000FBE70000AC5100203EB5044605F038FD4D
:10BD900010E0019800F146012046FFF7AAFF30B9F4
:10BDA000019800F12A012046FFF7A3FF10B1BDF86A
:10BDB00008003EBD6A4602A9072005F0EBFC0028FA
:10BDC000E7D14FF6FF70F4E770B504460D46094819
:10BDD0006060094801F0FCF850B903F0FBFB06492C
:10BDE00008741C238C2205490548006801F022F8DC
:10BDF000002070BDD0650300605B0020D45A002095
:10BE0000DC6503002DE9F04106460C460F272EB1F4
:10BE10000020424948600120BDE8F081207930B11E
:10BE200001280AD0022835D003286DD140E0012036
:10BE3000207105F0A7F9074667E04FF000080025DC
:10BE400019E005EB8500364911F82000022810D1D1
:10BE5000002005EB8501324A02F821004FF001086D
:10BE600005EB850102EB8101486805F07BF9074687
:10BE700003E0681C85B2022DE3DB00BFB8F1000FC0
:10BE800007D10120254908700020486041F61D5067
:10BE9000C2E73AE00020207102202249888008464B
:10BEA000002301220168204802F002F807462CE036
:10BEB000002020711B49086805F054F907461B480B
:10BEC00045881848D0F8008005EB8500144901EB3F
:10BED000800040681349086005EB8500104901EBBC
:10BEE0008000C0F804800F48808805EB85010C4A6B
:10BEF00002EB8101088102200A498880002005EBBD
:10BF0000850102F8210000E000BF00BF27B100203A
:10BF1000024948600E207FE700207DE7003C0020BA
:10BF2000905A0020283C0020003D0020B85A0020F4
:10BF30007CB5104903C9CDE900011F20ADF8000010
:10BF40000D4A69460D4803F095FE044600BF25469C
:10BF50003DB100BF0AA240F2E9612846FAF75AF95A
:10BF600000BF00BF0121054803F0F2FE034803F0C3
:10BF700071FE7CBD78620300313103001062030062
:10BF80002E2E5C2E2E5C2E2E5C6D61696E2E630053
:10BF90001FB51548007830BB144B0FCB8DE80F0050
:10BFA00013208DF8030010208DF8020012208DF868
:10BFB000010011208DF800008007029000BF0023CF
:10BFC0000B4A69460B4801F06BFA044634B100BFD6
:10BFD00009A26C212046FAF71DF900BF00BF01201D
:10BFE0000149087000BF1FBDE33C002078680300D2
:10BFF000314A0300606803006472697665735F7894
:10C000005C616437365F782E630000001FB5164808
:10C01000007838BB154B0FCB8DE80F0003208DF84F
:10C02000030004208DF8020005208DF80100062091
:10C030008DF800004FF08040029000BF00230C4AB2
:10C0400069460C4801F02CFA044634B100BF0AA23C
:10C0500089212046FAF7DEF800BF00BF012002491F
:10C06000087000BF1FBD0000CD3C002048680300E1
:10C07000254A0300206803006472697665735F785F
:10C080005C786C5F782E630010B5FFF7BFFF52211C
:10C090001F200AF0A5F80A2001F0B2F902212D2094
:10C0A0000AF09EF8012001F0ABF951212C200AF092
:10C0B00097F8012001F0A4F910BD000010B506F0BA
:10C0C000C3FF002009E000EB800101EB40110B4AA7
:10C0D00011440B4A42F82010401C0828F3DB0020D2
:10C0E00009E000EB800101EB4011064A1144064AC9
:10C0F00042F82010401C0828F3DB10BD205500201A
:10C1000048560020745600209C570020024600210B
:10C110000CE001EB8100074B33F82000904204D182
:10C1200001EB810003EB80007047491C0029F0D02F
:10C130000020F9E7045100202DE9FC5F83460E46FC
:10C1400091461F46DDE90C45002E01DA704200E001
:10C15000304682464FF0010803E09AFBF9FA08F1F5
:10C160000108CA45F9DA474500D9B84634B1002E6E
:10C1700003DB05F00400042800D1641E05F0020072
:10C1800000B167B105F0010048B944B104E0641E94
:10C1900020215846FDF7B0FB0CB1A045F7D3002E87
:10C1A00005DA76422D215846FDF7A6FB07E005F09B
:10C1B0000400042803D12B215846FDF79DFB05F010
:10C1C000020002280DD105F0010050B94FB944B169
:10C1D00004E0641E30215846FDF78EFB0CB1A045EB
:10C1E000F7D33B464A4631465846CDE9004509F06B
:10C1F00023FABDE8FC9F0000002001490870704749
:10C20000183B00200020034908704FF6FF700249D8
:10C21000088070471E3B0020203B00201820084962
:10C220000870002008E04FF6FF7100EB4002054B5C
:10C2300003EB82025180401C1428F4D370470000A5
:10C24000253B0020AC51002010B5002405E0044936
:10C2500001EB041009F051FE641C022CF7D310BD51
:10C26000BC52002010B5044640212046FAF725F9BB
:10C2700010BD00004FF6FF700249088000200249FF
:10C2800008607047443B00203C3B002030B502462C
:10C290000020137803F003031BB11378C3F380036A
:10C2A0004BB31378C3F38003CBB1137803F00303CC
:10C2B000012B02D0022B10D107E01388C3F38313A4
:10C2C0009B1C0C6823440B6008E00B680225146873
:10C2D00005EB945423440B6000E000BF0AE0012406
:10C2E000136804EB93531488C4F3891423440C6833
:10C2F00023440B60012030BD70B505460C464FF459
:10C300008C71284603F007FA38B14FF48C71284637
:10C3100003F008FA2046FEF736FE70BD2DE9F0471F
:10C3200081460C4616464FF480374FF4A07800251E
:10C3300020E03946484602F089FEA8B14146484609
:10C3400002F07BFE80B13946484602F070FE394665
:10C35000484602F075FE4146484602F061FEE8B2EA
:10C360001B4A52F8241088477F0008F104001FFA86
:10C3700080F86D1CB542DCD34FF48078012148462B
:10C3800002F064FE68B14146484602F056FE40B1F4
:10C390004146484602F044FE0D4850F8241004205F
:10C3A00088474FF482780221484602F04FFE68B178
:10C3B0004146484602F041FE40B14146484602F03F
:10C3C0002FFE034850F8241005208847BDE8F08769
:10C3D000D43B002001460348007A08B10120704791
:10C3E0000020FCE7605B00202DE9F0410446A088B6
:10C3F00000EB020CB4F80480904501DD104600E02B
:10C40000A088A8EB0005E088C618B4F80680984517
:10C4100001DD184600E0E088A8EB00074888B4F882
:10C420000080404504DB4888B4F80280404502DDC6
:10C430000020BDE8F0818888A84202D38888604542
:10C4400001D90020F5E7C888B84202D3C888B042B5
:10C4500001D90020EDE70120EBE70246002104E0CE
:10C46000505C08B101207047491C1029F8D3002006
:10C47000F9E7014601F0030008B9012070470020E8
:10C48000FCE70146086808B102680A60704710B509
:10C49000044601210B2002F04AF810BD10B50848EF
:10C4A000007850B1002405E0022C02D02046FCF7B1
:10C4B000C1FE641C042CF7D301E0FCF7E7FE10BDBD
:10C4C000F43A002010B503F091F90020014988707A
:10C4D00010BD000008540020F72101801721418081
:10C4E000002101714171FB2181711B21C1717047D4
:10C4F0002DE9FE4F81460F46924698460FB1002621
:10C5000012E0684600F040FC6A460021484604F00C
:10C510004BFF009E2A48007828B99DF8090010B901
:10C520000520BDE8FE8F00BF52463146484608F060
:10C530002DF90446002221464846FEF77DFD0D2CCC
:10C540002BD005DC44B3082C29D00B2C2AD127E0B2
:10C55000112C06D0862C12D0A4F54050023808BB0E
:10C560001CE03A46174801784846FCF707FB52465C
:10C57000154801784846FCF701FB002514E03A46CF
:10C58000104801784846FCF7F9FA52460E480178FF
:10C590004846FCF7F3FA00BF00BF00BF00BF00BF72
:10C5A000254601E0032500BF00BFB8F1000F04D00D
:10C5B000324621464846FEF73FF92846B1E70000DB
:10C5C0005C3B0020673B0020663B002070B50446C2
:10C5D0000D46164600BF0B4801782046FCF7B8FA16
:10C5E00070B1204604F096FE28B132462946204616
:10C5F00004F09AFE04E0324629462046FDF742FF49
:10C6000070BD0000483B00202DE9F04104468846FB
:10C610000A4801782046FCF79BFA0646084801784C
:10C620002046FCF795FA0746012332463946204654
:10C63000FFF75EFF0546BDE8F0810000663B002085
:10C64000673B002070B505460C4600261CB121460C
:10C6500028467EDF0646304670BD00002DE9F041D9
:10C66000064600274748D0F8008078E016B13446E7
:10C67000E66947E04448007800EB40014248001D6D
:10C6800000EBC105001F0078401C3F4908700846B8
:10C6900000788978884202D100203B4908706C6894
:10C6A000287801281AD0022802D0032817D107E0E1
:10C6B000686808F097FD00B10127002020744EE063
:10C6C00007E030490868002101742E4AC1691160F1
:10C6D00000BF2C4800680028F3D140E000E03EE0B5
:10C6E00000BF207C00B13AE0A8686060E868A06004
:10C6F0002869E0606869A0612448007808B10020DA
:10C70000606000BF224960680968401A20F07F40DD
:10C710002049884208D21E496068096808F080FCF8
:10C72000A168084420600FE019486168006808F0BB
:10C7300077FC0546A068A84203D9A068401B20608A
:10C7400001E00020206000BF00206060A0600120A8
:10C7500020740020E061204608F010FD00BF002E8C
:10C7600084D109480078084949788842F8D11FB92E
:10C7700004480068404502D00120BDE8F081002057
:10C78000FBE70000EC3B00204C580020FF3B002062
:10C79000F03B0020FFFF7F0070B586B00546002605
:10C7A000142101A8F9F789FEADF806504FF6FF7085
:10C7B000854201D106B070BD2846FFF719F804463E
:10C7C00044B10B2C0FD0112C0BD0A4F540500238E3
:10C7D00088B90FE00E208DF8040001A8FEF76EF86E
:10C7E0000EE001260CE00F208DF8040001A8FEF7F2
:10C7F00065F805E004E02146284607F04FFA00BF3F
:10C8000000BF3246034801782846FCF7B7F900BF5D
:10C81000D0E700001B3B002070B505460C462246C1
:10C82000024801782846FCF7A9F970BD1A3B0020A0
:10C83000F0B585B00446002600272046FFF720F813
:10C84000054645B1112D09D0862D09D0A5F54050DA
:10C85000023880B901E0012712E011E001260FE063
:10C8600014220B496846F9F70FFEADF802406846FE
:10C87000FEF724F804E02946204607F00FFA00BF2F
:10C8800000BF31462046FFF7C7FF384605B0F0BD70
:10C89000C8620300F8B504460D46002620782840FB
:10C8A00080B9002000906846FBF748FA20782840BD
:10C8B00018B920782843207001269DF80000FBF766
:10C8C0005FFA00BF3046F8BD70B54FF4004100205C
:10C8D00002F0DCF9044600BF25463DB100BF05A2C9
:10C8E00040F2A5612846F9F795FC00BF00BF01F0B2
:10C8F0006BFF70BD2E2E5C2E2E5C2E2E5C6D616942
:10C900006E2E63002DE9FF4100272E4800F059FBF1
:10C910002C48001F00F055FB2B48406803902A4824
:10C9200085680398284028490C3101EB800800BF36
:10C9300003A94046FFF7AAFC30B1039828402249DA
:10C940000C3101EB800800E000E0F1E700BF0024BB
:10C950000AE00398411C284003911B490C3151F80F
:10C9600020004DF82400641C022CF2D3009800F043
:10C97000030001280DD0022814D1BDF8067004214F
:10C98000009801EB9050401E039901EB900003903A
:10C9900009E0BDF806700098C0F3831003990844BD
:10C9A000039000E000BF00BF0648001F00F002FB3C
:10C9B000064616B1044903984860384604B0BDE8FD
:10C9C000F081000098600020805C002008B5002005
:10C9D000009001203A490860FFF776FFFFF7A8FAB8
:10C9E00008F0E6FC6846FCF7A3FF05F04BFEFCF7F9
:10C9F000ABFBFEF7B7FBFEF701FCFAF77BFE07F097
:10CA00009FFBFDF7B9FA05F03BF900BF2D4A4FF443
:10CA100080710820FBF7D6F8044600BF25463DB1DB
:10CA200000BF29A240F247712846F9F7F3FB00BF87
:10CA300000BF00BF09F0F0F800210B2001F077FDE6
:10CA4000C82000F0C5FC01210B2001F070FDC820BA
:10CA500000F0BEFC00210B2001F069FDC82000F0B1
:10CA6000B7FC01210B2001F062FDFBF7CBF99DF82B
:10CA70000000FAF7B1FE18490988032242EA014092
:10CA800016A102F033F80021072001F050FD0A2022
:10CA900000F09EFC0121072001F049FD0A2000F072
:10CAA00097FCFFF7F1FA00BFFBF752F800BF00BF99
:10CAB00001F09CFE0028FBD100BFFEF79AFFF3E7D0
:10CAC00078050040684000202E2E5C2E2E5C2E2E15
:10CAD0005C6D61696E2E6300583D002054656D7079
:10CAE0006C617465206578616D706C65207374612C
:10CAF000727465642E2E38382E0000002DE9F04146
:10CB000005460E4614469846A888871C2088801C37
:10CB10003844404502D90C20BDE8F081FE2F01D9F0
:10CB20000C20F9E7781C218870542088401C208054
:10CB3000FF20218870542088401C20802288911971
:10CB4000288808F060FD218808442080A8880028F3
:10CB50000DDDA86808B90720DEE7AA8823889819A0
:10CB6000A968F9F791FC2088A98808442080002052
:10CB7000D2E72DE9FF5F07468B4614469846039798
:10CB8000039FFD88B94608F10400B0FBF5F0029060
:10CB900008F10400B0FBF5F105FB1100019008F16C
:10CBA000040020442844401EB0FBF5F0C0B20090C1
:10CBB00004E0D9F800900298401E029002980028E4
:10CBC000F7D1824601982E1AA64201D9204600E0EC
:10CBD0003046064620E00E9848B109F10402019B58
:10CBE000D1180BEB0A003246F9F74EFC08E00BEBCC
:10CBF0000A0109F10402019BD0183246F9F744FCFE
:10CC000000200190D9F80090A41BB244A54201D99C
:10CC1000204600E028460646002CDCD1BDE8FF9FF8
:10CC200070B503460C469CB102F062F8054600223E
:10CC30000AE0084800EB820148881E68B04202D131
:10CC40001A60002070BD521CAA42F2D30520F9E7F9
:10CC50000020F7E7143D00202DE9F84F05460F4668
:10CC6000144698462878012804D1687810B907201E
:10CC7000BDE8F88F2088801C404508D82878012816
:10CC800007D12088801C69780844404501D90C20D0
:10CC9000EEE72088A8EB0000801E86B2009621886F
:10CCA000891CC81969467DDF814600BF484600B12E
:10CCB000DEE700BF2878022806D1BDF80000B042A8
:10CCC00002DC4FF0090A0BE04FF0080A287801282F
:10CCD00005D16878B04202DC6878009000E00096E8
:10CCE000BDF80000FE2801D90C20C1E7BDF8000006
:10CCF000401C218878542088401C2080208807F818
:10CD000000A02088401C20802088BDF80010084426
:10CD100020800020ACE7000070B505460E46FF24D9
:10CD200066B34FF6FF70854228D00122144801787F
:10CD30002846FBF723FF2846FEF70AFD0446FF2C92
:10CD400002D1FEF723FD0446FF2C17D004EB44006C
:10CD50000C4901EB800045804FF6FF7004EB440165
:10CD6000084A22F8210004EB4400114601EB800040
:10CD700031684160B1880181B1798172204670BD0E
:10CD8000253B0020AC5100200EB5002100910191FF
:10CD900002910449096800919DE80E0080E80E00A8
:10CDA0000EBD0000583B002070B505460E464FF6FC
:10CDB000FF70854201D1002000E0681C84B208E0C9
:10CDC0002146304605F054FA08B1204670BD601C7B
:10CDD00084B2FF2CF4DD4FF6FF70F7E701460448FC
:10CDE0000088814201DA481C00E00020C0B2704790
:10CDF000E83B00206421B0FBF1F201FB12010029A5
:10CE000003D0800700D0012070474FF4C871B0FBF9
:10CE1000F1F201FB12000028F6D00120704770B536
:10CE200004462046F9F74FFA05460DB1002070BDC3
:10CE30001120FCE710B5044609B90E2010BD92FB85
:10CE4000F3F003FB102008B10920F7E72160002070
:10CE50006060A060A281E38100BFEFE770B5044687
:10CE60000D4629462046F9F7E3F918B12A882168CA
:10CE7000881870BD0020FCE770B505460C46208878
:10CE80006188884204D12846F9F714FA012070BD60
:10CE90000020FCE770B504460D4629462046F9F708
:10CEA000ECF918B16A882168881870BD0020FCE789
:10CEB00070B505460C4620886188884204D1284612
:10CEC000F9F7D2F9012070BD0020FCE770B50546E6
:10CED0000C4604F01F0301229A40D143620905EB7E
:10CEE000820000F087F8064670BD70B505460C4616
:10CEF00004F01F03012202FA03F1620905EB82002C
:10CF000000F099F804F01F0201219140084008B197
:10CF1000012070BD0020FCE72DE9F04106460D46DA
:10CF2000002421E056F82400C04390FAA0F0B0FAA3
:10CF300080F814E008EB4417AF4200D312E0394602
:10CF40003046FFF7D2FF10B93846BDE8F08156F8F9
:10CF50002400C04390FAA0F0B0FA80F800BFB8F106
:10CF6000200FE7D300BF641C681E012101EB5010A5
:10CF7000A042D7D82846E8E710B50246480952F83B
:10CF8000200001F01F040123A340184008B1012034
:10CF900010BD0020FCE770B505460C4604F01F03E9
:10CFA000012202FA03F1620905EB820000F059F850
:10CFB000064670BD10B504460021204600F030F84A
:10CFC00010BD10B504460121204600F04AF810BDFE
:10CFD00010B504460121204600F02DF810BDF8B52B
:10CFE00004460D466A4629462046F9F7B8F9064632
:10CFF0000098F8BDF8B504460D466A462946204615
:10D00000F9F793F906460098F8BDF8B504460D46C1
:10D010006A4629462046F9F7A2F906463046F8BD89
:10D02000F8B504460D466A4629462046F9F77DF9CB
:10D0300006463046F8BDF8B504460D466A46294610
:10D040002046F9F765F906463046F8BDF8B50446BE
:10D050000D466A4629462046F9F74EF906463046FF
:10D06000F8BDF8B504460D466A4629462046F9F74C
:10D070004FF906460098F8BDF8B504460D466A46D5
:10D0800029462046F9F778F906460098F8BDF8B524
:10D0900004460026002000906846FAF74FFE2068FC
:10D0A00000686168884215D920680068401E2268BF
:10D0B00010600178204600F033F80646207A216897
:10D0C0000978401AC5B220680079A84201DA2068C0
:10D0D000057100BF9DF80000FAF752FE3046F8BD1A
:10D0E0000246D068081A938AB0FBF3F0C0B27047CA
:10D0F000F8B504460D462E46002000906846FAF723
:10D100001DFE31462046FFF7EBFF21680A68511CDF
:10D110002368196010709DF80000FAF731FEF8BD21
:10D120000246938AD06801FB0300704710B50146A0
:10D1300000BF09B90E2010BD00BF087A0B79C01AD4
:10D14000C2B2D1E90030186005E008680368581CD5
:10D150000C6820601A70101EA2F10103DAB2F4D13B
:10D160000B68187100BFE6E730B502460B46D408DD
:10D1700002F00702012090401D5D284030BD30B50F
:10D180000B46C20800F007009C5C012585402C433B
:10D190009C5430BD70B504460E4600BF0CB90E203D
:10D1A00070BD00BF2661F72020806080FB202071C9
:10D1B000002505E0A11D01EBC500FFF78DF96D1CF1
:10D1C000002DF7D00020EBE72DE9F0470646884612
:10D1D0004546B488012C01DBBDE8F087308824285F
:10D1E00020D006DC102809D011280CD0232823D108
:10D1F0001DE03A280CD055281ED10EE031462846B5
:10D2000003F05AFA19E03146284603F027FB14E0F0
:10D210003146284603F08CFB0FE03146284603F0E8
:10D2200027FB0AE03146284603F0A4FA05E0314620
:10D23000284603F0C9FA00E000BF00BFA81D00EBBC
:10D24000C400007908B3A81D30F834102046A5DFCB
:10D25000074657B90021A81D00EBC4000171012148
:10D26000A81D00EBC40041710EE0112F0CD0384610
:10D2700002F088FA814606490988012242EA014003
:10D280004A4604A101F03CFC00BF00BFA4E7000037
:10D29000143D002073645F626C655F676174746342
:10D2A0005F65786368616E67655F6D74755F7265F1
:10D2B000717565737428292072657475726E656462
:10D2C0002025732E00000000024600BF0AB90E2080
:10D2D000704700BF00BF1078DE2801D00820F7E7B4
:10D2E00000BF51800020F3E7024600BF0AB90E20BC
:10D2F000704700BF00BF09B90E20F9E700BF1078E2
:10D30000DE2801D10820F3E708685060DE201070A5
:10D310004FF6FF7050800020EAE770B504460E46D5
:10D3200000BF06B970BD00BF00BF04B9FAE700BF77
:10D33000354600BF2878DE2800D0F3E700BFA0887C
:10D340006988884202D1284608F06EFB20880128AF
:10D3500006D0022809D0112811D0512817D109E090
:10D36000211D284603F0ECFD12E0211D284603F0A4
:10D37000E6FD0DE0211D284603F08CFD08E0A088A5
:10D380006988884202D14FF6FF70688000E000BFD4
:10D3900000BF00BFC6E701464FF08040405808B1CB
:10D3A000012070470020FCE708B500224FF08041C3
:10D3B0000A500958009100BF08BD000001490860EB
:10D3C0007047000008030040012291070A5070478F
:10D3D0002DE9F04104460CB9BDE8F08100BF4FF4DF
:10D3E0007A7505B904E0054FAE013046B84700BF75
:10D3F000601E041EF3D100BFEEE70000416203008F
:10D400002DE9F04104460CB9BDE8F08100BF4FF4AE
:10D410007A7505B904E0054FAE013046B84700BF44
:10D42000601E041EF3D100BFEEE700004168030058
:10D4300010B500240C48007808B1852411E00020C4
:10D440000949886048600861C860084802F0BCF972
:10D45000044602F0BFF808B902F0ACF90120024915
:10D460000870204610BD000008540020719D020085
:10D4700008B5002000906846FAF760FC0748C068CD
:10D48000401E0649C8600846C06808B9FFF71AF888
:10D490009DF80000FAF774FC08BD00000854002055
:10D4A0002DE9FF4705460C46164698462F781A4840
:10D4B00040F82760194840F827804FF00009184BC2
:10D4C0000FCB8DE80F0020788DF8000060788DF884
:10D4D0000100A0788DF80200E0788DF80300207933
:10D4E0008DF8050060798DF80600A0680290207B19
:10D4F0008DF80C00607B8DF80D000EB1094800E03E
:10D50000002002463B466946281D02F06DFE81461A
:10D51000484604B0BDE8F0877854002084540020C9
:10D520004C640300294B030010B54FF470500B49B5
:10D53000086000200A49087005F086FD202109488E
:10D54000F8F7BBFF08480021016041601420F9F79B
:10D550004BFA032005490860002010BD08F5014082
:10D56000893B00200C580020AC3B002000120040FA
:10D5700010B500BF0B48007808B9082010BD00BFE7
:10D580000120F9F731FA00200749886208624862F1
:10D5900020210648F8F791FF0120F9F731FA002021
:10D5A000ECE70000883B00209C5700200C5800202E
:10D5B00010B500BF0948007808B9082010BD00BFA9
:10D5C0000120F9F711FA00200549886208624862D3
:10D5D0000120F9F715FA0020F0E70000883B002051
:10D5E0004856002010B5044600BF0C48007808B922
:10D5F000082010BD00BF00BF0CB90E20F9E700BF26
:10D600000120F9F7F1F9064800682060002004497C
:10D6100008600120F9F7F4F90020EAE7883B0020D0
:10D62000A83B002070B5044600BF0CB90E2070BDA9
:10D6300000BF4E48007828B1FFF776FF05460DB1D0
:10D640002846F4E74A49606808601822214649489C
:10D65000F8F71AFF00204849086020214748F8F7EA
:10D660002CFF474800210160416000BF08F016F917
:10D6700008B90720DBE700BF4FF0E73041490860F9
:10D680004FF04330091D08603F48091D08603F48BE
:10D69000091D0860FEF712FD07F0B2FC05F00CF85A
:10D6A0003448407C00F007010120F9F7D7F93148F0
:10D6B000807C00F007011420F9F7D0F91420F9F765
:10D6C0009FF933480078002847D03248006840F07E
:10D6D00040003049086002202A4944310860032094
:10D6E0002D49086004202C490831086005202A498A
:10D6F0003831086040F201102849086000202649AE
:10D70000091F08604FF480302549C1F80403012047
:10D71000C86005211A20F9F7A1F91A20F9F770F964
:10D720002049214801601E49001D01601D49243126
:10D730001D48083801601A49091D001D016019497A
:10D74000243119481038016015490C31001D016061
:10D750004FF4607014495439086000201349087070
:10D76000012002490870002061E70000883B00208A
:10D77000903B002008550020A83B00200C580020BA
:10D78000AC3B00201C150040E743C323A363E31315
:10D79000C03B0020C43B002008A5014000A201407E
:10D7A00000A001400411004058F50140893B0020D1
:10D7B00010B5044600BF2748007808B9082010BDFE
:10D7C00000BF00BF0CB90E20F9E700BF2248806AF5
:10D7D00008B90520F3E70120F9F706F91E48406A69
:10D7E0001D4951F82000007820700846406A51F821
:10D7F0002000407860700846406A51F82000807828
:10D80000A0700846406A51F820000079207108464F
:10D81000406A51F82000C078E07022780846406ADB
:10D820000B4653F82000411D601DF8F72DFE0A48F5
:10D83000406A401C08494862082801D30020486219
:10D840000548806A401E044988620120F9F7D8F82B
:10D850000020B4E7883B00209C57002070B50446A8
:10D8600000BF1448007808B1112070BD00BF00BF90
:10D870000CB90E20F9E700BF0F48407C052801D104
:10D880000E4801E04FF07F4005462046F9F789FE3B
:10D89000284028B90A480068C0B208B90720E4E760
:10D8A000054821680160012007F080FFFAF7C8FAF7
:10D8B000DBE70000893B0020943B00200000FFFFD5
:10D8C0002415004070B5044600BF2548007808B113
:10D8D000112070BD00BF00BF0CB90E20F9E700BFDA
:10D8E0002048407C052801D11F4801E04FF07F40CF
:10D8F00005462046F9F755FE284038BB1B4800680E
:10D9000000F47F4000B31948006800F47F00D8B1EC
:10D910001648006800F07F40B0B11448001D006850
:10D9200000F07F4080B11148001D006800F47F00C6
:10D9300050B10E48001D006800F47F4020B10B4834
:10D94000001D0068C0B208B90720C2E70548216879
:10D950004160022007F02AFFFAF772FAB9E70000E7
:10D96000893B0020943B00200000FFFF241500406D
:10D9700070B505460C4600BF2348007808B1112059
:10D9800070BD00BF00BF0DB90E20F9E700BF00BF9A
:10D99000092C01DB0720F3E700BF1C48407C052869
:10D9A00001D11B4801E04FF07F400646012C07DB08
:10D9B00018480068304018B9287808B90720DFE710
:10D9C0001448001D0068304048B9012105E0685C3A
:10D9D00008B90720D4E7481CC1B2A142F7DB2246B0
:10D9E00029460A480830F8F74FFD08480474C4F186
:10D9F0000801FF20084105498874042007F0D6FE7D
:10DA0000FAF71EFABCE70000893B0020943B002097
:10DA10000000FFFF1C15004010B500BF1E48007835
:10DA200008B1112010BD00BF4FF0FF301B49086046
:10DA300000201B49C1F810011A481B4908601B4807
:10DA4000006840F004001A49086010201349091FBB
:10DA500008600420104908701648807C1649086048
:10DA60001448C07C1449283908601448091F08600C
:10DA70000120F8F7A1FF0120F8F7C2FF00200C49B0
:10DA8000FC390860091D08600949F0390860012067
:10DA9000034948600020C5E7893B00200813004087
:10DAA00000100040190A0300C83B0020C43B0020BE
:10DAB00000120040943B002030150040EA5700203F
:10DAC00010480078042819D100200F490860401E32
:10DAD0000E49C1F8080300200D4908600A49F039D1
:10DAE000086001200949086100BF0748F038006854
:10DAF0000028FAD0002003490870704740F2011056
:10DB0000FBE70000893B00200012004000100040AD
:10DB1000C83B002010B5044600BF3548007808B95E
:10DB2000082010BD00BF00BF0CB90E20F9E700BFF0
:10DB300000BF207850B12078202807DC2D480078DD
:10DB400030B920782B49C97C884201DD0920E8E7FB
:10DB500000BF00BF2848806A082801D30420E0E7FE
:10DB600000BF00BF6078082801DB0720D9E700BFAD
:10DB70000120F8F739FF2049096A1F4A52F82100AD
:10DB800025222146F8F780FC61781C4A515C481C2C
:10DB9000C11700EB91718910A0EB81016278174BDE
:10DBA000995460781946085C1349096A124A52F878
:10DBB000211008711046006A401C114608620828AE
:10DBC00001D3002008620C48806A401C0A49886220
:10DBD0000120F8F715FF0748407838B90548007C60
:10DBE00020B90748007808B907F046F8002098E700
:10DBF000883B00200855002048560020AC3B002000
:10DC0000893B002070B50546281F052824D2DFE88F
:10DC100000F01314030412001FE049DF044600BFA4
:10DC2000264636B100BF0EA273213046F8F7F2FA4D
:10DC300000BF00BF11E010E000BF05F0F3F904469B
:10DC400000BF264636B100BF05A27F213046F8F757
:10DC5000E1FA00BF00BF00E000BF00BF70BD0000E0
:10DC60006472697665735F785C6573625F74696D11
:10DC700065736C6F742E63000FB438B50446059855
:10DC800010B938BC5DF814FB0020009006A8009085
:10DC90006A462046059900F012F80020009000BF67
:10DCA000EFE770B50446A06800B970BDD4E904037D
:10DCB000A268216898470020A06000BFF5E72DE921
:10DCC000FC5F82460D4614460DB9BDE8FC9F00BFBF
:10DCD0002E786D1C06B9E1E0252E70D100274FF09B
:10DCE000010900BF2E782B2E0CD02D2E02D0302E05
:10DCF0000CD103E047F001076D1C0AE047F0020772
:10DD00006D1C06E047F004076D1C02E04FF00009AF
:10DD100000BF00BFB9F1000FE4D14FF0000800BF11
:10DD20002A2E06D12168081D2060086880446D1CD9
:10DD30000DE02E78302E01DB392E00DD07E06D1C62
:10DD4000A6F1300008EB880100EB4108E8E700BFCE
:10DD50004FF0000B2E782E2E10D16D1C00BF2E78A8
:10DD6000302E01DB392E00DD07E06D1CA6F13000FE
:10DD70000BEB8B0100EB410BF1E700BF2E7800BFEE
:10DD80006C2E01D0682E02D16D1C2E7800E000E0D0
:10DD9000F6E700BF692E21D008DC252E6DD0582E65
:10DDA00039D0632E0CD0642E6CD116E0702E4CD07E
:10DDB000732E3ED0752E1FD0782E63D12AE065E0F9
:10DDC0002168081D2060D1F8009009F0FF00019043
:10DDD00050460199FBF790FD55E000BF2168081DF2
:10DDE0002060D1F800905B460A2249465046CDE9B2
:10DDF0000087FEF7A1F946E02168081D2060D1F8F0
:10DE000000905B460A2249465046CDE9008707F05C
:10DE100013FC38E000BF2168081D2060D1F8009095
:10DE20005B46102249465046CDE9008707F004FCC6
:10DE300029E02168081D2060086801903B464246A1
:10DE40005046019907F05CF81DE02168081D20602C
:10DE5000D1F8009030215046FBF74EFD7821504616
:10DE6000FBF74AFD002008210B461022CDE90010E7
:10DE70004946504607F0E0FB05E025215046FBF7F8
:10DE80003BFD00E000BF00BF6D1C03E03146504683
:10DE9000FBF732FD287800287FF41AAF00BF9AF80C
:10DEA0000C0010B15046FFF7FCFE00BF0DE700006C
:10DEB000F8B504460E4615461F4600BF6CB90E2045
:10DEC000334900900988012242EA0140314B32A2D5
:10DED00033A100F031FE0E20F8BD00BF00BF206866
:10DEE00068B908202A4900900988012242EA0140C5
:10DEF000284B36A22AA100F01FFE0820ECE700BF45
:10DF000000BF6DB90920224900900988012242EA28
:10DF10000140204B30A222A100F00EFE0920DBE7D9
:10DF200000BF00BF31462046F9F74AFB68B9102010
:10DF3000174900900988012242EA0140154B27A2A7
:10DF400017A100F0F9FD1020C6E700BF00BF606810
:10DF5000006800FB05F231462046F9F747FB68B937
:10DF600010200B4900900988012242EA0140094B28
:10DF7000244A0BA100F0E0FD1020ADE700BF2068AF
:10DF80003B462A463146D0F810C02046E047A3E77A
:10DF9000483D0020BB650300705F66730000000011
:10DFA000257320636865636B206661696C65642016
:10DFB000696E202573282920776974682076616C42
:10DFC000756520307825782E00000000705F66733C
:10DFD0002D3E705F617069006C656E0061646472F3
:10DFE0005F69735F706167655F616C69676E6564C7
:10DFF00028705F66732C20706167655F616464726E
:10E0000029000000206A0300F8B504460D461646B4
:10E0100000BF6CB90E20134900900988012242EA22
:10E020000140114B11A213A100F086FD0E20F8BD96
:10E0300000BF00BF6DB90E200A4900900988012277
:10E0400042EA0140084B16A20AA100F075FD0E201D
:10E05000EDE700BF25602068314602682046904702
:10E06000E5E70000483D002070650300705F6673BF
:10E0700000000000257320636865636B206661699A
:10E080006C656420696E202573282920776974687F
:10E090002076616C756520307825782E00000000B0
:10E0A000705F61706900000070B504460CB12068B3
:10E0B000D0B900250EE005EB85000E4901EB800488
:10E0C000206830B12068C1692046884708B1012026
:10E0D00070BD6D1C08480749401A1421B0FBF1F0CF
:10E0E000A842E8D80020F3E72068C16920468847A5
:10E0F000EEE70000003D0020143D00200246012014
:10E10000044B58741846007A08B901207047002063
:10E11000FCE70000605B002070B504460D46012C52
:10E1200001D0032C0BD1002005494874012C01D1EA
:10E13000012000E000200249087404F00DFC70BDCD
:10E14000605B002070B504460E46022C02D0032C02
:10E1500000D070BD1C48007A20B1012803D00228ED
:10E1600026D101E0F5E723E00025022C02D0032CA4
:10E170000CD105E01548006802F01EFC054606E0DB
:10E180001248006802F006FC054600E000BF00BF30
:10E190006DB100200C490872022C00D100E00D2066
:10E1A00001460A480068FCF713FB04F02FFB00BF90
:10E1B00000BF0548407C10B904F0CEFB01E001F03F
:10E1C0000FFA00BFC5E70000605B0020583C00204C
:10E1D0002DE9F84304460F4616461D46DDF820801B
:10E1E00000BF74B90E20514900900988012242EA0B
:10E1F00001404F4B4FA251A100F09EFC0E20BDE804
:10E20000F88300BF00BF6EB90E204849009009880E
:10E21000012242EA0140464B53A248A100F08CFC87
:10E220000E20ECE700BF00BF206868B908203F4916
:10E2300000900988012242EA01403D4B4CA23FA1D7
:10E2400000F07AFC0820DAE700BF00BF6DB90920B2
:10E25000364900900988012242EA0140344B47A226
:10E2600036A100F069FC0920C9E700BF00BF606863
:10E270004068B5FBF0F100FB115068B109202B4953
:10E2800000900988012242EA0140294B3CA22BA1BF
:10E2900000F052FC0920B2E700BF00BF3846F9F792
:10E2A00087F968B91020214900900988012242EAC3
:10E2B00001401F4B3DA221A100F03EFC10209EE733
:10E2C00000BF00BF3046F9F773F968B9102017494D
:10E2D00000900988012242EA0140154B39A217A19A
:10E2E00000F02AFC10208AE700BF00BF2A4639460A
:10E2F0002046F9F77BF968B910200C49009009888D
:10E30000012242EA01400A4B37A20CA100F014FCA2
:10E31000102074E700BFCDF8008020682B463246FD
:10E320003946D0F80CC02046E04768E7483D002059
:10E33000A8650300705F667300000000257320630A
:10E340006865636B206661696C656420696E202571
:10E3500073282920776974682076616C7565203090
:10E360007825782E00000000705F73726300000053
:10E37000705F66732D3E705F617069006C656E0042
:10E3800021286C656E202520705F66732D3E705FBE
:10E39000666C6173685F696E666F2D3E70726F6741
:10E3A00072616D5F756E697429000000616464724A
:10E3B0005F69735F616C69676E6564333228646599
:10E3C00073742900616464725F69735F616C69676B
:10E3D0006E65643332282875696E7433325F742930
:10E3E000705F737263290000616464725F69735FB8
:10E3F00077697468696E5F626F756E647328705FA9
:10E4000066732C20646573742C206C656E29000083
:10E41000F0B5DDE9054500BF4FF0A0473E4641EAB3
:10E42000420747EA830747EA042747EA054C06F50F
:10E43000E06747F820C0F0BDF0B5DDE9054500BF55
:10E440004FF0A0473E4641EA420747EA830747EAC2
:10E45000042747EA054C06F5E06747F820C0F0BD01
:10E46000F0B5DDE9054500BF4FF0A0473E4641EA63
:10E47000420747EA830747EA042747EA054C06F5BF
:10E48000E06747F820C0F0BD1CB5044600200090AE
:10E4900003460122014601902046FFF7CDFF1CBD37
:10E4A0001CB504460020009003460122114601904D
:10E4B0002046FFF7D5FF1CBD10B50A4600BF4FF040
:10E4C000A043194601F5E06353F8203023F44034AB
:10E4D00001F5E06343F8204053F8203043EA02445A
:10E4E00001F5E06343F8204010BD00BF4FF0A041AC
:10E4F0000A46012303FA00F1C2F80C1500BF704769
:10E50000014600BF4FF0A040024600BFD2F8100500
:10E51000C84000F00100704700BF4FF0A0410A461C
:10E52000012303FA00F1C2F8081500BF704710B5C7
:10E5300061B900BF00BF4FF0A0421346012404FAA6
:10E5400000F2C3F80C2500BF00BF0CE000BF00BF05
:10E550004FF0A0421346012404FA00F2C3F8082544
:10E5600000BF00BF00BF10BD10B561B900BF00BF44
:10E570004FF0A0421346012404FA00F2C3F80C2520
:10E5800000BF00BF0CE000BF00BF4FF0A042134629
:10E59000012404FA00F2C3F8082500BF00BF00BF41
:10E5A00010BD000038B50B46074C246800940146A6
:10E5B00006E05DF82140D4F810551560121D491C85
:10E5C000C4188C42F5D838BD0C64030001460148DC
:10E5D000084470470060004038B504462046FFF705
:10E5E000F5FF002101602046FFF7F0FF0068009072
:10E5F00000BF38BD10B504462046FFF7E7FF0068AE
:10E60000012800D110BD0020FCE70000014908608E
:10E6100070470000046300400022024941F82020B6
:10E62000704700001065004070B504460E46F9F7CB
:10E630009BFD0546681C08B9284670BDE8B22072EB
:10E6400000BF0A48D0F8100428B90848C0F81044A0
:10E650000020606008E00548D0F810044068606061
:10E660000248D0F8100444602846E6E7805C0020A9
:10E67000704710B5F8F7D6FB10BD704738B50446A3
:10E680000D4604484023044A29460090204600F0E5
:10E6900005F838BD053E0300805B00202DE9F04FF2
:10E6A00093B082460E4617469846DDF87090304685
:10E6B00000F015FC18210DA8F7F7FFFE0D97CDF817
:10E6C0003880CDF8489000252B46082207A930460F
:10E6D00000F022FC082509980A90BDF82000ADF84A
:10E6E0002C00BDF82200ADF82E0000208DF831007E
:10E6F000079800F0030001281BD107984FEA902BE0
:10E700000798C0F3C2008DF830000798C0F3831457
:10E71000A2002B4601A9304600F0FEFB05EB840564
:10E720000DA80AAB224601A90090584600F016FB3E
:10E7300027E0079800F00300022822D107984FEA4B
:10E74000905B0798C0F3C2008DF8300000BFBBF1AA
:10E75000080F01D2584600E0082004462B46224606
:10E7600005A9304600F0D8FB2544ABEB040B0DABFC
:10E770000AAA214605A800F02DFABBF1000FE6D148
:10E7800000BF304600F0B9FB13B0BDE8F08F0000C9
:10E7900010B502460B4C04EBC203012906D0022936
:10E7A00006D0032906D0042908D105E0022007E09D
:10E7B000042005E0187903E0587901E0002000BF4B
:10E7C00000BF10BD8471030010B54FF0FF34FFF798
:10E7D00050FF04210448FFF727FF044600BF012033
:10E7E0000149487200BF10BD6C3C00202DE9F04F7C
:10E7F0008BB0FBF791F818B100200BB0BDE8F08F9B
:10E800000020B249C1F8180400BF00BF00BFBFF329
:10E810004F8F00BF00BF00BF084640680A900846FF
:10E8200084680A9820400C3101EB800A00250026FC
:10E830000020069000BF0AA95046FDF727FD88B1C9
:10E84000A24800680A99884205D8A04800689F49F4
:10E8500048600020D1E70A9820409C490C3101EB28
:10E86000800A00E000E0E6E700BF00270BE00A981E
:10E87000411C20400A9195490C3151F8200007A90C
:10E8800041F827007F1C022FF1D3079800F0030006
:10E8900002287CD10798800D059050210798B1EB94
:10E8A000905F02DD0798800D00E0502081460798B8
:10E8B00069F39F50079009F1080004900798C0F38E
:10E8C000C20006908248049900F0ACFA0546002D7B
:10E8D0005BD0284600F003FB3346082207A92846F0
:10E8E00000F028FB08360A982040611C081A4FEAFD
:10E8F0008008C14535D9B8F1000F06D00A982040EC
:10E9000072490C3101EB800001E070480C3003903B
:10E91000B8F1000F01D0404600E0484600F0FF0B80
:10E92000B8F1000F02D069480C3000E000200290DE
:10E93000B8F1000F02D0A9EB080000E00020C0B23F
:10E94000019033465A462846039900F0F3FA5E4494
:10E95000029828B133462846DDE9012100F0EAFAA1
:10E960000CE00A98204059490C3101EB800B3346EA
:10E970004A465946284600F0DDFA00BF0598C01CFB
:10E980000A9901EB90000A9000BF44E0FFE7079866
:10E9900000F0030001283ED10798C0F38310062839
:10E9A00003DA0798C0F3831000E00620079960F3AC
:10E9B000891107910798C0F3831000F102080798A6
:10E9C000C0F3C20006904FEA8801414800F02AFADD
:10E9D0000546FDB1284600F082FA3346082207A911
:10E9E000284600F0A7FA083600270EE00A98421CD5
:10E9F00020400A92354A0C3202EB80013346042251
:10EA0000284600F097FA361D7F1C0798C0F3831044
:10EA1000B842EBD800BFCDB32C48D0F81084D0F862
:10EA2000180418B1284600F068FA2EE016E04FF0FE
:10EA3000000900BF98F80900012800D18146B9F10A
:10EA4000000F08D000BFD8F80000294602684046F1
:10EA5000904700BF00BFD8F8048000BFB8F1000F96
:10EA6000E5D1284600F049FA0020059005A8F9F7FD
:10EA700065F91648D0F8180410B914490A98486086
:10EA80009DF81400F9F77CF900BF19E0FFE70F4883
:10EA9000D0F8108408E0C146D9F8000081684846E3
:10EAA000884700BFD8F80480B8F1000FF3D10949B6
:10EAB0000988022242EA014007A100F017F800BFCE
:10EAC000FAF72AFF80F0010097E60000805C002042
:10EAD0002C720300583D00204261636B656E6473C5
:10EAE00020666C75736865640000000070B50446AC
:10EAF0000D4600231A462946204606F0C9F970BD86
:10EB0000F8B505460E461446009401236A46314680
:10EB1000284606F0BDF9F8BD2DE9FC4106460F4632
:10EB200014461D460094019502236A463946304634
:10EB300006F0AEF9BDE8FC812DE9FE4306460F461E
:10EB400014461D46DDF8288000940195CDF8088014
:10EB500003236A463946304606F09AF9BDE8FE833B
:10EB60002DE9F04786B006460F4614461D46DDE9FE
:10EB70000F9ADDF8388001940295CDF80C80CDF81D
:10EB80001090CDF814A0052301AA3946304606F0AE
:10EB90007FF906B0BDE8F0872DE9F04F87B0064653
:10EBA0000F4614461D46DDE912ABDDE910890194DC
:10EBB0000295CDF80C80CDF81090CDF814A0CDF8CA
:10EBC00018B0062301AA3946304606F061F907B0AD
:10EBD000BDE8F08F2DE9F05F07460E4690461D46D2
:10EBE000082E01D9BDE8F09F95F80C9000202873FD
:10EBF0002946404603F088FD00240CE0B44205D2CB
:10EC00003A5D1CA12846FFF737F803E01BA1284610
:10EC1000FFF732F8641C082CF0D319A12846FFF73F
:10EC20002BF800241AE0B44213D217F804A0F7F727
:10EC300027FC006810F80A0000F03E0008B15046BA
:10EC400000E02E2083465A460EA12846FFF714F80E
:10EC500003E00DA12846FFF70FF8641C082CE2D34F
:10EC600001222946404603F0E9FC85F80C9000BFDC
:10EC7000B8E7000020253032780000002020200076
:10EC80007C00000025630000200000002DE9F04119
:10EC90000746884600BFFF201049886000200860B2
:10ECA0004860C1F81804C1F8140481F820040C4825
:10ECB00000F01DF9054615B12846BDE8F081094868
:10ECC0000949401AC608002404E0084901EB840001
:10ECD0000480641CB442F8D30020EEE7805C00207E
:10ECE0002C7203002C72030084710300143D002079
:10ECF00002480349401AC008704700002C72030004
:10ED00008471030013B50C4621466846FDF788FF61
:10ED100028B90448009A00EBC20108681CBD002015
:10ED2000FCE700008471030070B50B48D0F8104474
:10ED30000120094981F820040AE000BF0120607227
:10ED400000BF2546286841682846884700BF646898
:10ED5000002CF2D170BD0000805C00202DE9FF473F
:10ED600007460C46164698460C9D95F80C900020D8
:10ED700028732946404603F0C7FC072E47D2DFE838
:10ED800006F004090F161F2A370039462846FEF7F9
:10ED900073FF3DE0394628462268FEF76DFF37E0F5
:10EDA00039462846D4E90023FEF766FF30E0A06824
:10EDB000009039462846D4E90023FEF75DFF27E09E
:10EDC000D4E90201CDE9000139462846D4E90023FF
:10EDD000FEF752FF1CE0D4E902122069CDE90012CF
:10EDE000029039462846D4E90023FEF745FF0FE09C
:10EDF000D4E90223D4E90410CDE90023CDE90210BF
:10EE000039462846D4E90023FEF736FF00E000BF6C
:10EE100000BF00222946404603F010FC85F80C9004
:10EE2000BDE8FF872DE9F84F07468A46B88AA0F16A
:10EE300004080AF104004044401EB0FBF8F0C0B2E0
:10EE400000903846FEF723F9044614B90020BDE8C7
:10EE5000F88F0020207101216171A4F806802546F9
:10EE60000098A0F1010B2C462F604FF0000912E032
:10EE70003846FEF70CF9064636B16079401C6071E1
:10EE80002E603760354604E0204600F008F8002088
:10EE9000DDE709F10109D945EAD32046D7E72DE995
:10EEA000F05F0446274697F805802646A8F1010B37
:10EEB000002501E036686D1C5D45FBD3D6F800A047
:10EEC0002646002507E0D6F8009031465046FEF76A
:10EED0000FF94E466D1C4545F5D3BDE8F09F70B562
:10EEE000044625460121281DFEF779F870BD10B5AE
:10EEF00004462046FEF71AF910BDF8B5044626462A
:10EF00000121301DFEF7B8F800906D46287810B941
:10EF10002046FFF7C4FFF8BDF8B504460D46164677
:10EF20001F4601203B463246294600902046FDF709
:10EF300020FEF8BDF8B504460D4616461F460020D3
:10EF40003B463246294600902046FDF712FEF8BDAA
:10EF500010B500200A49087000BF0A49086000BFC8
:10EF600000BF00BF00BFBFF35F8F00BF00BF00BF87
:10EF700000BF0549054800F096FB002010BD0000C9
:10EF8000683C0020643C002018660300745B00208D
:10EF900038B500BF002000906846F8F7CFFE00BFEC
:10EFA000F1EE100A044624F09F00E1EE100A00BFC3
:10EFB00000BF00BF00BF00BFBFF35F8F00BF00BF37
:10EFC00000BF262000F01F0201219140094A430999
:10EFD00042F8231000BF9DF80000F8F7D1FE00BFF3
:10EFE00000F0F8FA10B141DF044602E020BF40BF54
:10EFF00020BF38BD80E200E010B5044600BF04A287
:10F0000040F261412046F7F705F900BF10BD00004E
:10F010002E2E5C2E2E5C2E2E5C6D61696E2E630092
:10F0200008B5002242504258009200BF08BDC0F807
:10F0300048137047C0F84413704702465058704751
:10F04000C0F808137047C0F8041370470246D2F89E
:10F05000040308407047012242507047024A106082
:10F06000121D1160704700002C760040044B03EB2A
:10F0700000135A60024B03EB001319607047000045
:10F080001075004001460348085808B10120704738
:10F090000020FCE70070004008B50021034A8150C1
:10F0A00011464158009100BF08BD000000700040AB
:10F0B000014908607047000008730040014908607A
:10F0C0007047000004730040024609B9802000E048
:10F0D00040200346500003FA00F070470121014A26
:10F0E0008150704700700040014609B90E207047FA
:10F0F0000248006808600020F9E70000FC67030090
:10F10000FEB506460C462046FFF7EEFF05460DB15C
:10F110002846FEBD00200090019002908DF800600E
:10F1200001208DF80200C821ADF8041069462020A6
:10F13000226869DF054665B1284600F023FB0746D3
:10F1400049490988012242EA01403A464749FFF706
:10F15000D7FC002000900190029001208DF8010062
:10F1600000208DF802008DF80300694640202268D7
:10F1700069DF054665B1284600F004FB07463A49B9
:10F180000988012242EA01403A463949FFF7B8FCB2
:10F1900000200090019002908DF80060F720ADF8FB
:10F1A000020069462320226869DF054665B12846CA
:10F1B00000F0E8FA07462C490988012242EA01409A
:10F1C0003A462C49FFF79CFC0020009001900290E9
:10F1D00003208DF8000069460120226869DF05469A
:10F1E00065B1284600F0CEFA07461F49098801227A
:10F1F00042EA01403A462049FFF782FC0020009095
:10F20000019002904FF4B06000906946A1202268FE
:10F2100069DF054665B1284600F0B4FA0746124991
:10F220000988012242EA01403A461449FFF768FC86
:10F23000002000900190029001208DF800006946A6
:10F24000A020226869DF054665B1284600F09AFAD9
:10F25000074605490988012242EA01403A46084921
:10F26000FFF74EFC002054E7603D0020B86F03001C
:10F27000007003004C700300186F0300646F0300FC
:10F28000C46E03002DE9F04104462568204660DF86
:10F2900006462068A8423ED92A490988022242EA45
:10F2A000014029A1FFF722FC26490988022242EAEF
:10F2B00001402A4630A12368FFF72EFC03F0AEFB85
:10F2C0002168471A1F490988022242EA01403A464A
:10F2D00036A1FFF715FC1B490988032242EA0140C9
:10F2E00019A1FFF703FC17490988032242EA0140EC
:10F2F0002A4621A12368FFF70FFC03F08FFB21684A
:10F30000471A10490988032242EA01403A4627A1D8
:10F31000FFF7F6FB00E000BF1EB901202E49087080
:10F320000CE0304600F02EFA074606490988012213
:10F3300042EA01403A4629A1FFF7E2FB3046BDE828
:10F34000F0810000603D0020496E73756666696358
:10F3500069656E742052414D20616C6C6F636174FD
:10F36000656420666F722074686520536F6674440C
:10F3700065766963652E00004368616E6765207479
:10F3800068652052414D207374617274206C6F6304
:10F390006174696F6E2066726F6D203078257820F9
:10F3A000746F20307825782E000000004D61786958
:10F3B0006D756D2052414D2073697A6520666F72BC
:10F3C000206170706C69636174696F6E206973206D
:10F3D000307825782E000000CB3C002073645F62FB
:10F3E0006C655F656E61626C652829207265747555
:10F3F000726E65642025732E000000002DE9F04137
:10F40000ADF5027D80461A48007818B90DF5027DE9
:10F41000BDE8F0811DE04FF4FA70049004A905A83E
:10F4200061DF044604B115E005AD124901A800F002
:10F430003AF909E000BF0398064637682846716824
:10F44000B84701A800F050F900BF03980028F1D197
:10F4500000BFE0E700BF052C07D000BF06A240F2C6
:10F4600051112046F6F7D6FE00BF00BFCEE70000E0
:10F47000CB3C0020F06703002E2E5C2E2E5C2E2E3F
:10F480005C2E2E5C2E2E5C2E2E5C636F6D706F6E6C
:10F49000656E74735C736F66746465766963655CCE
:10F4A000636F6D6D6F6E5C6E72665F7364685F62D2
:10F4B0006C652E630000000038B51648007808B966
:10F4C000082038BD01201449087004F079F911288A
:10F4D00001D10020F5E7022004F090F9002000900F
:10F4E0006846F8F72BFC11DF044600200949087034
:10F4F0009DF80000F8F744FC0CB12046E1E700203D
:10F500000549087005F008FA032004F077F9002097
:10F51000D7E70000C83C0020CA3C00201CB51C48AE
:10F52000007808B108201CBD01201A49087000208D
:10F5300004F046F9112801D10020F4E7002004F07E
:10F540005DF9154800680190002000906846F8F7C2
:10F55000F5FB124901A810DF04460CB9012000E0B8
:10F5600000200B4908709DF80000F8F709FC0CB169
:10F570002046D8E70020074908700949087005F0BF
:10F58000F9FC05F01FFA012004F038F90020CAE761
:10F59000C83C0020CA3C0020CC6703008D780200E4
:10F5A000C93C00203EB50A49684600F07CF809E0F5
:10F5B000684600F075F8044625686068A847684604
:10F5C00000F092F8684600F06BF80028F0D13EBDDC
:10F5D000C06703000148007870470000C83C002065
:10F5E00010B50748007808B9082010BD0548007814
:10F5F00010B1FFF761FFF8E7FFF790FFF5E70000B4
:10F60000CA3C0020C83C00202DE9FF41074618E015
:10F6100003A84BDF044604B114E01049684600F02B
:10F6200042F809E000BF029805462E686968039811
:10F63000B047684600F058F800BF02980028F1D1A2
:10F6400000BFE5E700BF052C06D000BF04A26B2178
:10F650002046F6F7DFFD00BFBDE8FF81106803001C
:10F660002E2E5C2E2E5C2E2E5C2E2E5C2E2E5C2ED4
:10F670002E5C636F6D706F6E656E74735C736F6616
:10F68000746465766963655C636F6D6D6F6E5C6EE7
:10F6900072665F7364685F736F632E6300000000BF
:10F6A00001468868704770B504460D462560286895
:10F6B0006060204600F001F870BD14E0D0E9002140
:10F6C0005268914202D10021816070474168096807
:10F6D00042685268914203D0416809688160F4E74A
:10F6E000416808314160E9E710B50446A06800B9F7
:10F6F00010BD2168A06889680844A060D4E90110A1
:10F700004968884205D16068083060602046FFF78C
:10F71000D4FF00BFECE70246505808B10120704703
:10F720000020FCE708B5002242504258009200BF7A
:10F7300008BDC0F808137047C0F8041370470122D1
:10F740004250704770B502460D4B03F5947413E0B8
:10F75000E61AF01000EBD076761003EBC6010D68C8
:10F76000954201D90C4606E0954202D201F1080308
:10F7700001E0486870BD00BFA342E9D30020F9E76B
:10F780003866030030B504462046FFF7DBFF054628
:10F790000DB9024830BD2846FCE70000246603008E
:10F7A000024A034941F82020704700003546526E56
:10F7B0000006014010B500F0D9F9012001490860A8
:10F7C00000BF10BD1805004001460020064A12790E
:10F7D0000AB1852006E0044A11600122024B1A7129
:10F7E00000225A71704700006C3B002010B50C20BD
:10F7F000FDF7EAFD00BF00BF03480068C0F300400A
:10F800000028F8D110BD00001804004070B504466F
:10F8100004B970BD024EA5012846B04700BFF8E705
:10F820009164030070B5044604B970BD024EA50191
:10F830002846B04700BFF8E7416503000146C1F321
:10F84000073250B27047000070B50546284602F0F6
:10F850001FFB20B100212846FEF72EFE18E02846A7
:10F8600002F022FBA0B12846FAF748F904462046E8
:10F87000084951F8201021F00102064941F82020E2
:10F8800000BF012101FA04F00349086000BF00BF76
:10F8900070BD000010650040086300402DE9F0478E
:10F8A00006460D46304602F0F3FAE0B13046FAF76C
:10F8B00025F9083822490F5CBC11032C08D13046C9
:10F8C000FEF71EFE08B1032000E00220804605E09E
:10F8D000012C01D1022000E0032080464146304641
:10F8E000FEF7EAFD2AE0304602F0DEFA30B3304699
:10F8F000FAF704F90446A00000F5807087B22046AC
:10F90000104951F8201041F001020E4941F8202021
:10F9100000BF3846FEF760FE7DB13046FAF7EEF8DC
:10F920008146FAF7A3F88046B8F1000F04D0012110
:10F9300001FA04F0FEF76AFE00BF00BFBDE8F087E1
:10F940006C540020106500402DE9FC4704460E462B
:10F9500017464FF00008204602F08CFA10B14FF025
:10F96000080862E0B078C0F3400239462046FAF752
:10F9700085F80546681C002854D0B078C0F3800094
:10F9800020BBB07800F0010080B100BF00BF4FF095
:10F99000A042104600F5E06252F8242022F0020155
:10F9A00000F5E06242F8241000BF0CE096F80190E8
:10F9B000002000904B460246014601902046FEF78B
:10F9C0003BFD00BF00BF204602F00AFAB078C0F34A
:10F9D0004000D0B13078164951F82510154A114031
:10F9E000134A42F82510114651F825104FF4F852E9
:10F9F00002EA04224FF4403303EA00431A4311435E
:10FA00000B4A42F8251000BF0EE0A5F108000A4994
:10FA1000085C317840EA811042B2A5F1080006493D
:10FA20000A5401E04FF0040800BF4046BDE8FC87DF
:10FA300010650040FFE0FCFF6C54002070B50446E8
:10FA40002046FFF701FF204602F02EFA28B120469B
:10FA5000FAF754F80546FEF7DFFD204602F0A2F95A
:10FA600028B12046FEF710FD204602F0A9F92046F5
:10FA7000FAF744F8C5B22846F9F7E8FF204602F045
:10FA800023FA70BD2DE9F0412A4890F8580018B1CA
:10FA900008252846BDE8F081002404E0204602F055
:10FAA00013FA601CC4B2202CF8DB002404E02046CA
:10FAB000F9F7CCFF601CC4B20C2CF8DB1D48002108
:10FAC00041650622072310461946002809DA4E0729
:10FAD0004FEA166C184E00F00F073F1F06F807C0DC
:10FAE00003E04E07370E154E375400BF00BF062007
:10FAF00000BF01218140124A430942F8231000BF90
:10FB000000BF012181404209920002F1E022C2F8C7
:10FB1000001100BF00BF4FF4BE70FEF75DFD4FF057
:10FB20000040FEF773FD0120024981F858000025CE
:10FB30002846AFE71C54002018ED00E000E400E088
:10FB400080E200E0034890F8580008B101207047B7
:10FB50000020FCE71C540020014601F06040B0F199
:10FB6000005F01D1012070470020FCE7F0B50723BA
:10FB700000200146C41700EBD4646411A40004F112
:10FB8000E024D4F800410246C51700EBD5656D119D
:10FB9000A0EB45160125B5402C400CB1012400E036
:10FBA000002444BB00221C4610462146002807DAE8
:10FBB0004D072F0E104D00F00F06361FAF5503E016
:10FBC0004D072E0E0D4D2E5400BF00BF002000BF6C
:10FBD000012181400A4A440942F8241000BF00BFB5
:10FBE000012181404209920002F1E022C2F8001195
:10FBF00000BF00BF00BFF0BD18ED00E000E400E072
:10FC000080E200E02DE9F84307460E46384602F050
:10FC1000CDFD0446D4B14FF00008002000906846A6
:10FC2000F8F78CF8207910B14FF0010802E0266057
:10FC3000012020719DF80000F8F7A2F8B8F1000F3C
:10FC400003D011252846BDE8F88300BF00252846CB
:10FC5000F9E7000010B5044600212068FFF7FBF922
:10FC60000220617901EB4101014A505410BD0000AE
:10FC7000D83B00202DE9F0430346164658792F4A19
:10FC800042F82060587900EB40002D4A105C18B112
:10FC900008242046BDE8F08393F904508F78284665
:10FCA0003A4600280CDA4FEA427C4FEA1C69DFF83A
:10FCB00094C000F00F08A8F104080CF8089007E0C1
:10FCC0004FEA427C4FEA1C68DFF87CC00CF80080E9
:10FCD00000BF00BF93F9040000BF00F01F05012220
:10FCE000AA401A4D470945F8272000BF00BF00F081
:10FCF0001F050122AA404509AD0005F1E025C5F820
:10FD0000002100BF00BF0A881868C0F8082500BF9E
:10FD100008795A7902EB4202094D2A445070C8789A
:10FD20005A7902EB42022A44907001205A7902EB80
:10FD30004202A85400242046ACE70000D43B002037
:10FD4000D83B002018ED00E000E400E080E200E095
:10FD50002DE9F04104460D464FF4807601273146E7
:10FD60002068FFF75DF939462068FFF763F91DB198
:10FD700039462068FFF767F9BDE8F08170B50546A0
:10FD80000C463548007C10B11126304670BD2079F4
:10FD900010B12079012805D100BF00202F4908604B
:10FDA00000BF00BF2C481C3010F8150030B92A489D
:10FDB00090F82D00401C284981F82D00E179264853
:10FDC0001C3000F81510217A00EB4500417000BF8F
:10FDD000207800F003006178302202EA0111084324
:10FDE000A1784FF4E06202EA01210843E1784FF480
:10FDF000805202EA0131084321794FF4E02202EAFD
:10FE00000141084361794FF4801202EA015108432D
:10FE1000A179120102EA016108431049103101EB96
:10FE200005118860227AE1792846FFF71FF900BFA3
:10FE3000227AE1792846FFF719F9207910B1207963
:10FE4000012805D100BF01200449086000BF00BFA0
:10FE5000002630469AE70000D85400200075004084
:10FE600070B504461348007C10B11125284670BDBA
:10FE700010481C3010F8140030B10E4890F82D00D6
:10FE8000401E0C4981F82D0000210A481C3000F862
:10FE9000141000EB44004170002211462046FFF789
:10FEA000E5F840F2FF72D143204600F07FF80025CC
:10FEB0002846DCE7D85400202DE9F04104460E46E0
:10FEC000354890F82C0018B108252846BDE8F08187
:10FED0003148066020783149086000BF6078091D0C
:10FEE000086000BFE0782C4981F82E00012081F8DD
:10FEF0002C000020087481F82D00486181F82F0043
:10FF00006FF00040FFF7D4F84FF48270FFF7C4F8A9
:10FF10004FF48070FFF7C0F80722A3781046194607
:10FF200000280ADA4F074FEA17681D4F00F00F0C40
:10FF3000ACF1040C07F80C8005E04F074FEA176C92
:10FF4000184F07F800C000BF00BF072000BF012105
:10FF50008140154A430942F8231000BF00BF012128
:10FF600081404209920002F1E022C2F8001100BF74
:10FF700000BF0220FFF7A2F8074890F82E0010B14A
:10FF80000120FFF79BF800BF01200449F039086009
:10FF900000BF0025284699E7D8540020F07500409E
:10FFA00018ED00E000E400E080E200E02DE9F0411F
:10FFB00004460D46164600BF284666F31F402549F5
:10FFC00001EB0411C86000BF00212046FFF77CF858
:10FFD000074615F5006F0DD11F4840696100491CA7
:10FFE0004FF00042CA4090431B4948613846FFF732
:10FFF0005FF80CE0184840696100491C4FF000426E
:020000040003F7
:10000000CA401043144948613846FFF757F80121A8
:100010002046FFF759F8074640F2FF7086420BD1A1
:100020000D4840696200F107D14088430A494861A0
:100030003846FFF73DF80BE00748406962004FF093
:100040000041D1400843044948613846FFF736F87B
:10005000BDE8F08110750040D85400202DE9F04132
:1000600005460F463B48007C18B111263046BDE8D6
:10007000F0810120374908740320FFF719F80121A6
:100080003846FEF7EBFF334890F82D00012809DDD4
:10009000002405E0E0B200221146FEF7E7FF641CF1
:1000A000082CF7D32B481C3000EB45004278294838
:1000B0001C3010F815102846FEF7D8FF0020FFF777
:1000C0000DF80420FFF70AF800BF4FF0000842F2D5
:1000D000107400BF4FF48270FEF7D4FF10B14FF0E0
:1000E000010805E00020FFF791FB601E041EF1D11E
:1000F00000BF00BF4FF48070FEF7CEFF4FF4827058
:10010000FEF7CAFF134890F82D00012810DD0024E7
:100110000CE0104B1C3303EB44035A780D4B1C339B
:1001200013F81410E0B2FEF7A1FF641C082CF0D302
:10013000084890F82E0018B10320FEF7BFFF02E038
:100140000220FEF7BBFF002002490874002630465B
:100150008DE70000D854002070B56FF00040FEF726
:10016000A7FF072000BF012181401C4A430942F834
:10017000231000BF00BF0820FEF7B0FF00BF00251E
:1001800042F2107400BF4FF48A70FEF77BFF08B193
:10019000012505E00020FFF739FB601E041EF2D1A7
:1001A00000BF00BF00BF00200D49086000BF0D491F
:1001B000087400240AE00B481C3010F8140020B129
:1001C000E0B2FFF74DFE064600BF641C082CF2D3D8
:1001D0000020044981F82C0070BD000080E100E09F
:1001E00000750040D85400202DE9FF4F83B006462B
:1001F0000C46307900EBC0007B4901EB800898F891
:100200001C0028B14FF0080B584607B0BDE8F08F2E
:1002100035683279754B53F822103068FFF7F2FCDD
:1002200018B14FF0110B5846EFE70598C8F80000D9
:100230000698C8F80400207B012803DC2078FEF72C
:1002400054F902E02078FEF767F900200090019051
:10025000207800231A460121FEF702F96078FF2872
:1002600008D094F801A05046FEF73FF95046FEF73B
:1002700017F901E04FF0FF3AA078FF280DD094F86D
:1002800002900127002000903B4602460146019063
:100290004846FEF7E5F800BF01E04FF0FF39A078CF
:1002A000317901EBC101504A02EB810181F8200054
:1002B000E078FF281AD0207918B1E078FEF715F918
:1002C00002E0E078FEF728F9E078FEF7E9F8E07858
:1002D000317901EBC101444A02EB8101C8772079F1
:1002E000317901EBC10102EB810188772078C5F8F3
:1002F0000805C5F80CA5C5F8109500BFA068C5F89D
:10030000240500BF217B627B0AB1012300E00023AA
:10031000184631B1012906D0022907D0032908D097
:1003200000BF00BF08E040F0020005E040F004001C
:1003300002E040F0060000BF00BFC5F8540500BF52
:10034000A079C5F8C00500BFD8F8000018B1402159
:100350002846FFF7F1F900BF0720C5F8000500BFE8
:10036000D8F80000A8B33068FFF768FA074661794B
:10037000029138460299002809DA4A074FEA126CBE
:100380001B4A00F00F031B1F02F803C003E04A07DB
:10039000130E184A135400BF00BF3068FFF74EFA1F
:1003A0000746384600F01F0201219140124A4309D6
:1003B00042F8231000BF00BF00F01F02012191404E
:1003C0004209920002F1E022C2F8001100BF00BF12
:1003D00000BF002088F81D00012088F81C004FF0A5
:1003E000000B584611E70000905400206C64030095
:1003F00018ED00E000E400E080E200E02DE9F041CB
:1004000005460E461746287900EBC000154901EB5A
:1004100080044FF00008607F20B14FF01108404683
:10042000BDE8F081206820B107F0140008B9012070
:10043000607796E80E10C4E9053CC4E90312E07F3A
:10044000FF2808D0A07F18B1E07FFEF765F802E032
:10045000E07FFEF74AF83B4632462146286804F022
:1004600083FBDDE79054002038B50446002000905F
:100470006846F7F763FC0F480068082812D20D4859
:10048000007820700B480068401C0A4908602078FA
:1004900009490968012282401143074A116000BFDF
:1004A000002500E004259DF80000F7F769FC2846C8
:1004B00038BD0000843B00200805014010B504460B
:1004C0002046FFF76DF910BD2DE9F04102460D46BB
:1004D000254805602548007818B90120234908708F
:1004E00003E008231846BDE8F08110782049086031
:1004F00000BF5168C9034FF47A74B1FBF4F01C4992
:100500000839086000BF1024167A204631460028BA
:100510000ADA4F074FEA1768164F00F00F0CACF1DC
:10052000040C07F80C8005E04F074FEA176C124FD8
:1005300007F800C000BF00BF102000BF01218140AC
:100540000E4C460944F8261000BF00BF012181402F
:100550004409A40004F1E024C4F8001100BF00BF66
:1005600000231846BFE700007C3B0020803B0020B2
:100570000C05014018ED00E000E400E080E200E03E
:1005800070B5054695B1032D13D10220F8F74EFF43
:10059000044600BF26463EB100BF07A240F23651D6
:1005A0003046F5F737FE00BF00BF03E003F050FF11
:1005B00000E000BF00BF70BD2E2E5C2E2E5C2E2EE4
:1005C0005C6D61696E2E630070B50546287880B950
:1005D0003B210848008876DF044600BF26463EB12E
:1005E00000BF05A240F2D7413046F5F713FE00BF29
:1005F00000BF70BDE63A00202E2E5C2E2E5C2E2E03
:100600005C6D61696E2E630070B50546AE8830463C
:10061000FBF77CFD044674B14FF6FF7340F2F31212
:1006200005F1080104F10A00FBF7DEFE60722146C5
:100630003046F9F7D9FC70BD2DE9F0410546EF7B56
:10064000AE88012F01D0BDE8F0814FF6FF70FBF7B7
:100650005DFD04461CB9042003F000FBF3E700BF76
:100660002680002020720E480168C4F80A104068F5
:10067000C4F80E0000BF4FF6FF7340F2F31205F10D
:10068000100104F10A00FBF7AFFE60720548C08953
:1006900018B921463046F9F7A7FC00BFD3E70000A0
:1006A0000C3B002018510020CA7B012A02D18A8805
:1006B000A0F8A820704700002DE9F04705460F4636
:1006C000B7F80480A81D00EBC8042879A071F87B56
:1006D000012802D0022806D102E02888208003E009
:1006E0006888208000E000BF00BF208861888842C1
:1006F00019DD21884046A5DF064616B90120607144
:1007000011E0112E02D1012020710CE03046FFF7DC
:1007100039F8814609490988012242EA01404A46DE
:1007200007A1FEF7EDF9A079E179884203DDA1790F
:100730004046F9F755FDBDE8F0870000143D002064
:1007400073645F626C655F67617474635F6578632F
:1007500068616E67655F6D74755F726571756573ED
:100760007428292072657475726E65642025732E55
:100770000000000070B58EB004460E462C22311DDC
:1007800003A8F5F781FEBDF80C50BDF81000C1B20A
:10079000A01D00EBC500C171206980B1094903C9E2
:1007A000CDE90101ADF80650A01D00EBC500C079F0
:1007B0008DF8080001A920462269904700BF0EB0BD
:1007C00070BD0000346303002DE9F04705460E4676
:1007D000341D2188A81D00EBC10794F80480B87966
:1007E000404501DAB87900E0404681462088494614
:1007F000F9F7F6FCBDE8F0872DE9F0410646B78829
:100800003846FBF783FC05466DB16868F7F77EFA5A
:10081000044614B1204603F021FA00BF4FF6FF70E2
:10082000288000BF00BFBDE8F08170B504460E46C9
:10083000002084F8B200B088B4F8A81088420CD127
:10084000207950B901212046F7F74CFF054625B124
:10085000A06B10B12846A16B884770BD70B50446E7
:100860000D46AA88A11D01EBC200FBF735FE70BD45
:100870002DE9FC4705460E46B6F80480B6F806900A
:10088000A81D00EBC804B9F1170F01DA172000E02A
:10089000484681462088484501DD484600E02088DA
:1008A00060800020207121884046B5DF074667B18F
:1008B0003846FEF767FF82460F490988012242EA5F
:1008C000014052460DA1FEF71BF9607908B1BDE861
:1008D000FC87286968B1154903C9CDE90001ADF865
:1008E00002806088ADF80400694628462A6990476E
:1008F00000BF00BFEBE70000143D002073645F629F
:100900006C655F67617474735F65786368616E6757
:10091000655F6D74755F7265706C792829207265EA
:100920007475726E65642025732E00002C630300BD
:100930002DE9FC4105460E46B788B6F80A80A81D89
:1009400000EBC7042088404501DD404600E02088D8
:1009500060806088172801DA172000E060886080D6
:10096000286978B1607968B1094903C9CDE9000106
:10097000ADF802706088ADF80400694628462A691F
:10098000904700BF002060712071BDE8FC8100002D
:100990002463030001460748C068401C054AD06034
:1009A0001046C068082803D90020D0600120704795
:1009B0000020FCE7605B002001460020154AD06063
:1009C000087910B1012821D116E0D1E90530181AB3
:1009D000B0F5805F03D2D1E90530181A01E04FF479
:1009E00080500246886983188B61D1E905038342F0
:1009F00001D1012070470AE00869401C0861D1E973
:100A00000420824201D10120F4E700E000BF00BFD2
:100A10000020EFE7605B00202DE9F0410025002673
:100A200001276348006818B9F9F754F9BDE8F08167
:100A30006048806A082802D3F9F74CF9F6E75C4869
:100A4000083000685C4901EB800459480C300068AC
:100A50002188884207D1A07858494978B0EB610FC6
:100A600001D101260027554840784010A070504819
:100A70000C30006820805248007D20B14F484078FB
:100A800000F0010000B10125002D7BD04D48006829
:100A900040F008004C49086049480078002854D0CC
:100AA00001285DD14948806AF0B34848406A474907
:100AB00051F8200040783E4908310968884237D112
:100AC000E078012814D19EB94048406A401C3F4953
:100AD0004862082801D3002048623C48806A401ED2
:100AE0003A4988623A48006840F001003849086095
:100AF0000120E0703548406A344951F820003549FA
:100B000008600968087834490968884731480068EE
:100B10000078324908702F48006802782D48016833
:100B2000491D2E48801C00E002E0F5F7ADFC07E00F
:100B30000020E0702849096888470020274908708C
:100B40001E484078254948700AE00020224909687B
:100B500088471A480078214908700020487000BF73
:100B600000BF05201E4908701148083000681D4963
:100B700008601A481B49283908601B481B4908604F
:100B800002E0FFE7F9F7A6F887B1A178084A083232
:100B90001268D0B202F0CEFA40B10D48006840F0C1
:100BA00004000B4908601420F5F740FF00BF3DE743
:100BB000001400409C5700200C580020EA570020E9
:100BC00008550020C43B0020001200404856002079
:100BD000A83B00208C3B0020D03B0020C8570020C1
:100BE000893B00202C150040F10B0300C83B00207E
:100BF00010B50A48006840F0040009490860094936
:100C0000C87C0949096888470848094908600948B3
:100C10000949086004200949087010BDC43B002040
:100C20000012004008550020D03B0020EA57002069
:100C300004150040190A0300C83B0020893B00202E
:100C400010B5194800681949086019480068194921
:100C500008601948808982381849C1F84405012084
:100C6000C8600020C1F840010021154801604FF420
:100C7000E050144908604814091D0860002012491A
:100C8000C1F80C010C48007818B900200F49096818
:100C900088470F480F4908600F4810490860032033
:100CA0000F49087010BD0000C43B00200012004036
:100CB000BC3B002040A500400855002000A000409B
:100CC00044A1004004F5014000100040D03B00204A
:100CD000EA57002004150040250D0300C83B002002
:100CE000893B002010B50C48006840F001000A491B
:100CF000086004F053FC0948806A30B900200849B4
:100D000008701420F5F792FE04E01420F5F78EFE2B
:100D100003F0B2FF10BD0000A83B002048560020A1
:100D2000893B002010B54FF4E05047490860474820
:100D30000068002843D04648006800283FD00120C2
:100D4000444948604003404908604348006840F017
:100D50000100414908604148C08941490968401A79
:100D6000401C4049086004F019FC3C48007890B1F0
:100D70003D48007800280EDD3B4A527851103B4A2E
:100D80001268D0B202F0D6F928B13348006840F0BA
:100D90000400314908603648806A18B12F48007C49
:100DA000012806D10020334908701420F5F73EFED3
:100DB00048E01420F5F73AFE03F05EFF42E02849D0
:100DC0000868411E264A1160B8B9012021494860CF
:100DD00040031D4908602148C089401C2149086022
:100DE0001D48006840F002001B49086000202149AE
:100DF00008701420F5F71AFE24E01F48006840F040
:100E000008001249F43108601C49096808781C4937
:100E1000096888471B481549283908601A481B4942
:100E2000086002201349087001200A490860400345
:100E30000549091F08600748D0F8440110B1012096
:100E40001349086010BD000008F501400C11004076
:100E50000014004000A00040A83B002008550020DE
:100E6000B43B0020B83B0020EA5700202C1500407E
:100E700048560020893B0020C43B00208C3B0020CA
:100E8000D03B0020C8570020410C0300C83B002085
:100E9000001000402DE9FF4106460D462888718864
:100EA000884201D0BDE8FF81AC1C2078022800D028
:100EB000F8E7207A042806D0207A062803D0207A82
:100EC000052800D0EEE700200090019002900390EA
:100ED00002208DF800004FF4C070ADF80400207AB5
:100EE000052802D10020ADF8040028886946B0DF4B
:100EF000074617B138467168884700BFD2E72DE929
:100F0000F04104460D462888262801D0BDE8F0812E
:100F1000287A012802D0287A02280ED1A078F6F784
:100F2000B5FB074639462046F7F7DCFB064626B1F7
:100F3000A06B10B13046A16B884700BFE6E7704751
:100F400070B504460D462879012808D128886188A3
:100F5000884204D101202072204604F065FD70BD56
:100F60002DE9F0410446A51D28881249C989884207
:100F70001DD1688902281AD1B4F804804046FBF7D5
:100F8000C5F8064696B105F10C00F8F7CFF820B188
:100F900031464046F9F728F808E07068F6F7B6FEE3
:100FA000074617B1384602F059FE00BF00BFBDE842
:100FB000F081000018510020F8B504460E46607C10
:100FC00000B9F8BDB51D29886089814219D16889A9
:100FD000022816D1206800B9F3E705F10C00F8F7F4
:100FE000A5F818B100208DF8000002E001208DF86E
:100FF0000000B088ADF8020069462046226890479C
:1010000000BF00BFDDE7000030B502460A23002024
:1010100015E000EB80040C4D05EB840464688C4201
:101020000BD200EB800405EB8404646804F5805463
:101030008C4202D90023108003E0441CA0B2022895
:10104000E7DB00BF184630BD905A0020024602EB95
:1010500082000A4B03EB80000089084481B202EB56
:10106000820003EB80004089084481B2B1F5806FB3
:1010700001DA012070470020FCE70000905A0020B0
:10108000014619B1084A0868904201D00320704710
:10109000064A4868104410B1012802D1F7E7002041
:1010A000F5E70320F3E70000DEC0ADDE02FEE10E4F
:1010B0000246002106E052F82100401C08B1002041
:1010C0007047491CB1F5806FF5D30120F8E78A7DA0
:1010D000022A04DD0389CA88D21C1A44028143898A
:1010E000CA88D21C9A1A4281704700002DE9F04745
:1010F00005460C46174605F5805908350220208024
:101100002E4625E049463046FAF74CFC8046B8F1B9
:10111000000F08D11249B068096888420ED91049F9
:10112000B06808600AE00FB101203870B8F1020F12
:1011300004D14FF480602080BDE8F087218870885A
:10114000C01C084420803046FAF74CFC064600BF1D
:1011500049463046FAF73BFC0028D3D100BFEBE705
:10116000103C002038B5044600200823034A2146DD
:1011700000900348FDF72CF838BD000054650300CB
:10118000003D002008B50020009004480823044AD0
:1011900001680448FDF71CF808BD0000283C002049
:1011A0004C650300003D00202DE9F0470026002497
:1011B0004FF00308A14600279AE05248C06800EBB0
:1011C00007352846FFF75CFF8246BAF1000F40D092
:1011D000BAF1010F5ED0BAF1030F7DD12846FFF7B7
:1011E00067FF18B348480068B0B1022004EB8401DF
:1011F000464A02F8210004EB8400114601EB80000E
:101200004560022004EB840102EB81010881404823
:101210004480601C84B206E03B48056002203A49E5
:1012200088804FF0010946F0010611E0A8F10100A5
:101230001FFA80F804EB8400344901EB800045601C
:10124000032004EB8401314A02F82100601C84B2BF
:101250004BE0002004EB84012C4A02F8210004EB4F
:101260008400114601EB8000456004EB84000B46CE
:1012700003EB800000F1100204EB840003EB80001C
:1012800000F108012846FFF731FF46F00206601C16
:1012900084B22AE0B9F1000F14D0022004EB8401DB
:1012A0001A4A02F821001848006804EB840102EB96
:1012B00081014860022004EB840102EB8101088176
:1012C000601C84B2104805600022011D2846FFF70B
:1012D0000DFF0D48808800E006E0022801D10420BF
:1012E00000E00820064300E000BF00BF781C87B282
:1012F000032FFFF662AFB8F1020F00DA0026F0B25A
:10130000BDE8F087003D0020283C0020905A0020D6
:10131000B85A002010B50446024801782046F7F775
:1013200017FC10BD493B00202DE9F04705460E464D
:10133000174600242846FAF713FD804600BF1548DB
:1013400001782846F7F704FC08B1012000E00220EC
:101350008146284600F03EFB20B14046FAF7EAFC01
:1013600004460FE04FF6FF7080450BD00721404642
:1013700000F062F904462CB1052C03D02146284622
:1013800002F0B4FC3B46324649462846F8F7B0FE28
:10139000BDE8F0874A3B002070B504460D460021A9
:1013A000204603F08BFA70BD70B586B004460D463A
:1013B000164605208DF80400ADF806402046FAF7E1
:1013C000CFFCADF808000395049601A8F9F7C2FA1E
:1013D00006B070BD70B50546002405E0044850F81D
:1013E000241028468847641C042CF7D370BD0000E5
:1013F000546303003EB5FAF727FF00BF50200221D7
:101400000122094BCDE900210290A022074908489A
:1014100000F091FD044600BF0CB103203EBD012049
:10142000044908700020F9E7363B0020DC52002018
:10143000AC520020343B002010B50446204600F09A
:101440009DF910BD10B50446204600F09DF910BD71
:101450002DE9F041054601260027E86804F032FD39
:1014600004462878082804D0092809D0132818D160
:1014700015E0687A18B914B1204604F051FD11E066
:10148000687A58B954B10020A060A07B20F0020017
:10149000801CA073012008490870002602E0012783
:1014A00000E000BF00BF16B12846FFF793FF3846A3
:1014B00001F0B0FBBDE8F081353B002010B500F035
:1014C00045FA10BDF8B505460E4614462088800042
:1014D00000906B4622463146284600F099F9F8BD47
:1014E00070B504460D46164600233246294620466E
:1014F00000F08EF970BDF8B50746002400250020E5
:1015000000906946384604F0C7FC064610E0B17802
:10151000384600F091F8044614B1052C00D003259C
:101520000098401C00906946384604F0B5FC064619
:10153000002EECD14DB9384600F00EFA044624B125
:10154000072C01D1072500E003252846F8BD70B51A
:1015500005460E461446234600223146284600F032
:101560009CF970BD2DE9F84380460D4614461E4691
:1015700000BF16B90E20BDE8F88300BF00BF072DDD
:1015800003D0082D01D00720F5E700BF2CB1022CB5
:1015900003D8404600F0EFF908B90720EBE74FF019
:1015A00000092946404604F050FC0090009840B9DC
:1015B0002A464146684604F036FC009838B91120A6
:1015C000D9E70098007BA04201D00F20D3E7009814
:1015D000407BFF2810D12146164800F07BFC009983
:1015E00048730098407BFF2804D1009804F085FCE4
:1015F0001120C0E74FF0010900990C730098417B5E
:101600000C4800F0BFFC07460FB90320B3E7A3B2B4
:101610003A462946304600F069FAB9F1000F07D082
:10162000082D05D130880621C1EB800071688880C3
:101630000020A0E7AC5200202DE9F04106460F46FD
:1016400000253946304604F000FC044614B9052054
:10165000BDE8F081606828B1606800F0B0F9054627
:1016600005B10325204604F05BFC2846F0E72DE990
:10167000F04107460D46164600BF072D04D0082D41
:1016800002D00720BDE8F08100BF2946384604F0AB
:10169000DCFB04460CB90520F4E72680A570204643
:1016A00004F048FBEEE700002DE9FC4180460D46C2
:1016B00000BF072D04D0082D02D00720BDE8FC8113
:1016C00000BF00262946404604F0BFFB04460CB983
:1016D0000520F3E76068F8B9617B104800F052FC20
:1016E00007460020009001908DF802500FB90320AA
:1016F000E4E7237B3A462946684600F075F96846D8
:1017000004F0FCFA211D684600F03BF90646092E5C
:1017100001D10320D2E700BF3046CFE7AC52002012
:1017200070B505464FF6FF706880002405E0044858
:1017300050F8241028468847641C002CF7D070BD50
:101740003C63030010B50B48F9F7FAFA04460CB1F4
:10175000032010BDF9F7ECF904460CB18620F8E738
:1017600000F026FA00F069FA012003490870002011
:10177000EFE70000CDA90200283B002010B5044689
:10178000204600F0EFF910BD10B50446204600F0E9
:10179000F3F910BD2DE9F04186B006460F46144618
:1017A00000BF304600F08CF918B9012006B0BDE842
:1017B000F08100BF304600F094F980460F4A03A93B
:1017C0004046F9F754FA08B10020EFE701A903A851
:1017D000F9F76AFA05460DB10020E7E7A67001980F
:1017E000408820800298606001998888F9F7BAFBE8
:1017F000388003A8F9F700FA0120D7E72C3B002036
:101800000248002101604160704700002C3B00202D
:101810002DE9F04385B080460E4614461F4600BFB2
:10182000B8F1FF0F03DD072005B0BDE8F08300BF6E
:1018300000BF304600F044F908B90720F4E700BFC4
:1018400002AA3146404600F01BF905460DB10520BD
:10185000EAE7694602A8F9F727FA05460DB105201F
:10186000E2E7A67000984088208017B90198606070
:101870000EE020884FEA80093868484505D3019971
:101880004A466068F4F700FE01E00420CCE700BFA0
:1018900002A8F9F7B1F90020C6E7FFB587B00746FF
:1018A0000C461E4600BFFF2F02DD07200BB0F0BD27
:1018B00000BF00BFA07800F003F908B90720F5E7E2
:1018C00000BF384600F0B4F9ADF81000A07800F081
:1018D00008F9ADF812006068059021880691A1789A
:1018E00001AA384600F0CCF80546052D0ED109981E
:1018F00028B904A901A8F9F70AFA054610E009AACF
:1019000004A901A8F9F70DFA054609E0099810B1F4
:1019100009A8F9F747FA04A901A8F9F7EBF9054670
:1019200035B1072D0ED0082D0AD00E2D0CD106E0B2
:101930001EB1314601A8F9F7AEF90020B6E700BFA5
:101940001120B3E78620B1E70320AFE710B54FF6CB
:10195000FF7000F0D9F810BD10B5044600BFFF2C91
:1019600001DD072010BD00BF204600F0D7F800F0D1
:1019700049F80020F6E710B50446204600F02AF9A1
:1019800010BD70B504460E4600BFA07800F098F870
:1019900008B9072070BD00BF21883046F9F7E8F983
:1019A000054625B1072D06D0092D06D101E00020FE
:1019B000F0E70920EEE78620ECE70320EAE731B5FF
:1019C0006846F9F7EFF904460CB1032038BD002052
:1019D000FCE7000010B50446024801782046F7F7FE
:1019E000B7F810BD4B3B00202DE9F04105460E46EF
:1019F00017461C46A3B23A463146284600F076F810
:101A0000BDE8F081F0B585B000201C490870009059
:101A100001904FF6FF7000F0A5F8054606E0284655
:101A200000F092F8284600F09DF805464FF6FF704A
:101A3000854209D0284600F0FBF807466A4602A90D
:101A4000F9F71FF90A28EAD04FF6FF70854212D045
:101A5000284600F0EDF806463046F9F727F8044628
:101A6000082C03D101200549087004E01CB121466F
:101A7000284602F027F905B0F0BD0000293B002000
:101A80002DE9FC4705460C461646204600F018F89E
:101A9000002000900190284600F0CAF880462046B9
:101AA00000F01FF881466B46324649464046F9F73A
:101AB000D3F8074617B10520BDE8FC870020FBE7F7
:101AC0000146072909D0012907D0082905D0052991
:101AD00003D0062901D0042901D10120704700203C
:101AE000FCE7014601F5404080B2704770B503EB5A
:101AF00083054FF6FF7606EA051481704260E51C07
:101B0000AD10058070BD000010B5044602492046A6
:101B1000F8F7BAF810BD00007C53002070B50446F9
:101B20004FF6FF70844201D1002070BD0549204668
:101B3000F8F7AAF80546A54201D10120F5E70020F3
:101B4000F3E700009C53002010B5044604492046EA
:101B500001F05EFA02492031204601F059FA10BD29
:101B60007C53002010B5044602492046FBF71CF9BF
:101B700010BD00009C53002010B504460B492046C0
:101B8000FBF712F904460AE0204600F031F808B9E4
:101B9000204610BD05492046FBF706F904464FF6DE
:101BA000FF708442F0D12046F3E700007C53002010
:101BB00010B50748FAF756FB4FF48071044800F05F
:101BC00025FB4FF480710248203000F01FFB10BD50
:101BD0007C53002010B50446FF2C04DC214603484A
:101BE00000F046FB10BD0020FCE700007C53002005
:101BF00010B50446FF2C04DC2146034800F038FBF6
:101C000010BD0020FCE700009C53002070B5064684
:101C10000C463046F9F79CFD0546FF2D04D005EB38
:101C20004500024921F8204070BD0000AC51002061
:101C3000014601F5404080B2704730B587B00020C2
:101C4000009001900720FFF74CFF04460FE002A927
:101C500004A8F9F729F802998888F9F783F9054665
:101C600004A8F8F7C9FF2846FFF74EFF00BF6A46F1
:101C700004A92046F8F7FBFF0028E8D007B030BDE4
:101C80007CB500F089FA044600BF25463DB100BF8F
:101C900039A240F2CB512846F4F7BCFA00BF00BF8E
:101CA0000020009001909DF8000020F00100401CF1
:101CB0008DF800009DF8000020F002008DF8000073
:101CC0009DF8000020F004008DF800009DF8000051
:101CD00020F008008DF800009DF8000020F0700052
:101CE00030308DF800009DF8000020F080008DF865
:101CF000000007208DF8010010208DF802009DF8EB
:101D0000030020F00100401C8DF803009DF8030043
:101D100020F00200801C8DF803009DF8040020F0E4
:101D20000100401C8DF804009DF8040020F0020022
:101D3000801C8DF80400684600F062FC044600BF79
:101D400025463DB100BF0CA240F2DE512846F4F713
:101D500061FA00BF00BF0C4800F032FC044600BF2F
:101D600025463DB100BF04A240F2E1512846F4F7F8
:101D700051FA00BF00BF7CBD2E2E5C2E2E5C2E2E95
:101D80005C6D61696E2E6300F11F030001460868F7
:101D9000012802D00868022801D1012070470020E4
:101DA000FCE7000010B5044604492046FBF7DCF9C7
:101DB00008B1012010BD0020FCE700007054002095
:101DC00070B5024605490B46D40802F007021D5DB6
:101DD00001269640B5431D5500BF70BD70540020CC
:101DE00010B5044602492046FBF7C9F910BD0000B2
:101DF000705400202DE9F04106460F4600210B20CB
:101E0000FCF795FB00224FF4004113480068F5F7FA
:101E100053FF1248007808B9BDE8F08110480088E7
:101E20004FF6FF71884200D0F6E70C4991F8540054
:101E300074DF03210948F6F755FC044600BF254628
:101E40003DB100BF07A24FF4C8612846F4F7E2F99C
:101E500000BF00BF00BFDFE730620300883D002005
:101E6000E63A00202E2E5C2E2E5C2E2E5C6D6169D3
:101E70006E2E6300014605484056012202EBE070D9
:101E800008B1012070470020FCE700004C540020FE
:101E9000014604484056082801DB01207047002015
:101EA000FCE700004C54002001460648405600283C
:101EB00005DB04484056082801DA0120704700205D
:101EC000FCE700004C540020FF2201490A547047EF
:101ED0004C5400202DE9F041044688461CB120688E
:101EE00008B1606810B9FF20BDE8F081FF25002629
:101EF0001CE03146606800F093F940B1FF2D00D13D
:101F00003546701B401C40450ED12846ECE7FF2D9E
:101F10000AD02F4605E03946204600F04BF8781CE1
:101F2000C7B2B742F7DBFF25701CC6B2A068B0424B
:101F3000DFD8FF20D8E72DE9F04704460E4691464A
:101F40001F46DDE908A5DDF82880CCB1C6B1BFB1D8
:101F500005FB08F0484513D8E81DBAEBD00F0FD3A6
:101F600075B1B8F1000F0BD026606760A560C4F8AA
:101F70000C80A9B2606800F049F90020BDE8F08744
:101F80000720FBE770B504460D461CB1206808B178
:101F9000606808B9002070BDFF2D09D0294660682F
:101FA00000F066F920B1E168206805FB0100F2E766
:101FB0000020F0E770B504460D4674B1206860B1AA
:101FC000606850B1FF2D08D02946606800F050F9D4
:101FD00018B12946606800F05DF970BD70B505461E
:101FE0000C461CB12146284602F07AFA70BD00006A
:101FF000F8B504462078122877D2DFE800F0097798
:10200000122324762B687841794E3D5B7A7B7C7D68
:102010003B490988032242EA01403AA1FCF766FDE8
:102020006BE06088F6F75AFD0646207A00906388D8
:1020300033490988032242EA014032463CA1FCF7B9
:102040007BFD5AE059E00020009060886946FFF768
:10205000C5FF52E0F8F74CFD0546082D0BD000BF38
:102060002E463EB100BF42A240F2AD313046F4F7F9
:10207000D1F800BF00BF40E00020F5F7ADFB3CE029
:1020800000BF26693EB100BF39A240F2BB313046E5
:10209000F4F7C0F800BF00BF2FE000BFA6683EB154
:1020A00000BF33A240F2C2313046F4F7B3F800BFAC
:1020B00000BF22E000BFA6683EB100BF2CA240F2E4
:1020C000C9313046F4F7A6F800BF00BF15E000BFE5
:1020D000A6683EB100BF26A24FF474713046F4F7F3
:1020E00099F800BF00BF08E0FFE700BF00BF00BFD6
:1020F00000BF00BF00BF00BF00BF00BFF8BD0000B1
:10210000583D0020436F6E6E656374656420746F84
:1021100020612070726576696F75736C7920626FCB
:102120006E646564206465766963652E0000000056
:10213000436F6E6E656374696F6E2073656375724D
:1021400065643A20726F6C653A2025642C20636FB9
:102150006E6E5F68616E646C653A20307825782C0D
:102160002070726F6365647572653A2025642E0075
:102170002E2E5C2E2E5C2E2E5C6D61696E2E630001
:1021800010B504462046F8F7BDFB10BD10B5044657
:102190002046F8F7B7FB10BD10B5FFF7D3FA044699
:1021A0000CB1032010BDFFF725F904460CB1032044
:1021B000F8E702F09DF904460CB10320F2E702F0C3
:1021C000ADFA04460CB10320ECE7F9F723FA044614
:1021D0000CB10320E6E7F9F701FB04460CB103203C
:1021E000E0E7F9F717FD04460CB10320DAE7FAF748
:1021F00041F80020034908700120034908700020BD
:10220000D0E70000393B0020383B002070B5044681
:102210000D4624B1E81DC1102046F4F74EF970BDFB
:1022200070B504460D464CB105F0070301229A40F3
:10223000D1B204EBE500FAF72DFB70BD0020FCE7FE
:1022400070B505460E468DB100240DE004F007037D
:1022500001229A40D1B205EBE400FAF71BFB08B16A
:10226000204670BD601C84B2B442EFDB3046F8E714
:1022700010B5024662B102EBE100007801F00704FC
:102280000123A340184008B1012010BD0020FCE745
:102290000120FAE7F8B504460D46C5F3C70605F078
:1022A000070101208840C7B27CB1A05D384060B111
:1022B000002000906846F5F741FDA05DB843A055A9
:1022C0009DF80000F5F75CFD00BFF8BD30B585B0A6
:1022D00004460125A088F9F769FC60802078082869
:1022E00006D0092836D00A2849D00B287BD17BE0BC
:1022F000607AF0B94F48006868B14E49E0680968F3
:10230000884208D100204B490860A0884A490880CB
:102310000021E1601DE049480078D0B1A08846491D
:102320000988884215D1207A062812D100F07EFB58
:102330000FE0607A01280CD14048007848B1A088AD
:102340003D490988884204D1207A062801D100F04D
:102350006DFB68E0607A88B93648006870B135492D
:10236000E0680968884209D1002032490860344891
:102370000068401E324908600021E16053E03148A6
:10238000007828B34FF6FF70FFF75CF84FF6FF7147
:1023900088421DD1FFF750F84FF6FF71884217D1E0
:1023A00000202849087014216846F4F786F80C20AC
:1023B0008DF800004FF6FF70ADF80400ADF8020094
:1023C00000252046F8F79EFA6846F8F79BFA00BF0A
:1023D0001A48007830B1A08817490988884201D18D
:1023E00000F024FB1FE01DE016480078C8B1002073
:1023F0001449087014216846F4F75FF80D208DF831
:1024000000004FF6FF70ADF80400ADF80200A068C0
:10241000029000252046F8F775FA6846F8F772FA38
:1024200000BF00E000BF00BF15B12046F8F76AFA10
:1024300005B030BD3C3B0020443B0020393B002030
:10244000403B00203A3B002010B5044600BF054841
:10245000007808B9082010BD00BF2046F9F76AFCD3
:10246000F9E70000383B00202DE9F04F85B0064623
:102470000F469046994600BF2F48007818B90820AB
:1024800005B0BDE8F08F00BF4FF6FF70FEF7DAFF32
:10249000054600200490294903C9CDE9020104A89A
:1024A000039002AA06212846FFF70CF804464FF0D5
:1024B000000A4FF0FF3B4FF6FF7001900090072C91
:1024C00001D10520DCE719E0052C01D100200490A2
:1024D0000498504502D3DDF810A0019504985845A2
:1024E00002D2DDF810B000952846FEF7ABFF054696
:1024F00002AA06212846FEF7E5FF0446002CE3D099
:10250000052CE1D04FF6FF70854212D100240EB1A8
:10251000019830800FB1C7F800A0B8F1000F02D0C9
:102520000098A8F80000B9F1000F03D0C9F800B076
:1025300000E003242046A3E7383B00206463030047
:1025400030B585B000BF1C48007810B9082005B030
:1025500030BD00BF0120194908704FF6FF70FEF72B
:1025600071FF04464FF6FF70844212D100201349D8
:10257000087014216846F3F7A0FF0C208DF80000C6
:102580002046ADF80400ADF802006846F8F7BAF945
:1025900000BF0BE02046FFF757FF05460DB10320B3
:1025A000D5E72046FEF74EFF044600BF4FF6FF700A
:1025B0008442EFD10020CAE7383B00203A3B00209C
:1025C000014600BF0B48007808B90820704700BFDB
:1025D00009480078032801DB0420F7E70748064A8A
:1025E000127840F8221004480078401C024A10700B
:1025F0000020EBE7383B0020463B0020BC53002086
:1026000070B5044600BF0648007808B9082070BDC0
:1026100000BF204602F012F805462846F7E7000002
:10262000383B002010B5044600BF04B910BD00BF00
:102630002046F8F767F900BFF8E7000070B50446D8
:102640000D461646207A05280CD0607A28B10A4833
:102650000AA102682846FBF70FFB09A12846FBF7F1
:102660000BFB04E01EB106A12846FBF705FB28463C
:10267000FBF717FB70BD00009C3C00202573000099
:102680000D0A000070B5FCF763FC044600BF254648
:102690003DB100BF04A240F2B1612846F3F7BAFD94
:1026A00000BF00BF70BD00002E2E5C2E2E5C2E2EB3
:1026B0005C6D61696E2E63000E490F4801600F4921
:1026C000001D01600B49091D001D01600B49091D1A
:1026D000001D01600A49001D01600649F039001D16
:1026E00001600749091D001D01600649001D0160C8
:1026F000704700000011004060F5014000A000405C
:1027000040A1004000100040F8B504460D46E088A6
:1027100038B116A00090E38816A218A12846FBF74E
:10272000ABFA207A05281FD0607A58B1217AA088A8
:10273000FCF72EF8174951F82060324616A12846BA
:10274000FBF79AFA2846216802F0FCFEA0880021D7
:10275000FCF7D8FA0646207A104951F82020334673
:102760000FA12846FBF788FAF8BD00001B5B306D0F
:10277000000000001B5B313B33316D0025734C6F53
:1027800067732064726F7070656420282564292542
:10279000730D0A009C3C002025730000883C00203B
:1027A0003C25733E2025733A200000000146034873
:1027B000814201D1024870470020FCE70020004020
:1027C000743B002070B50446214605480068FAF7BE
:1027D00045FB05461C212846F3F76FFE284670BDD1
:1027E0004865030010B50446214602480068FAF720
:1027F0005FFB10BD4865030010B504462146024842
:102800000068FAF739FB10BD4865030010B50349AD
:1028100003480068FAF730FB10BD00005C3C002064
:10282000DC65030010B501210348FAF725FC08B167
:10283000012010BD0020FCE7083C002010B51C233F
:102840008C22034903480068FAF7F4FA10BD00002F
:10285000045A00204865030010B50446214602488A
:102860000068FAF717FB10BD4865030010B507496B
:1028700007480068FAF70EFB06490860084600683A
:1028800008B1012010BD0020FCE700005C3C0020E6
:10289000DC650300583C002010B586B0044653E0C8
:1028A0002B48006820B92B48FFF7D6FF284908605D
:1028B000274800680078072821D2DFE800F02004CC
:1028C0000B0C13141B00224801682046F9F79AFAF2
:1028D000044616E000BF1E480168204603F0A4FB32
:1028E00004460EE000BF1A4801682046F7F726FDAF
:1028F000044606E02046F8F79FFC044601E00F245A
:1029000000BF00BF04B920E0142101A8F3F7D5FDF2
:1029100041F61D50844201D1002000E02046029083
:1029200001A90B480068F7F7FFFE01A8F7F73CFF85
:1029300000200749086000240648FFF75DFFFFF705
:1029400071FF00B901E000BFAAE700BF06B010BDEB
:102950003C3C0020403C002010B52148007A30B9B2
:10296000FFF784FF18B900201D49486010BD022000
:102970001B4908721B480068007910B101280CD16E
:1029800005E01848006803F0B1FB044607E015486D
:102990000068F7F7AFFD044601E0032400BF00BF65
:1029A00014B1112C0CD107E00D48007C18B900219E
:1029B0000220FBF7C7FB0FE00120094908720BE07A
:1029C000032108480068F7F703FF00200449087254
:1029D0004860FFF71BFF00BF00BF00BFC6E7000055
:1029E000605B0020583C002010B501210348FAF735
:1029F0000CFB10B90020FFF74FFF10BD083C002072
:102A000010B50548FAF7E4FA28B90348001F407CDE
:102A100008B9FFF7A1FF10BD645B00200248006801
:102A2000810201F1005070470C01001010B5002325
:102A30001A4607490748FFF717FD04460CB1052C55
:102A400001D1012000E000200349087010BD000002
:102A5000403B0020443B0020393B00202DE9F04161
:102A600007460E4614461D462A4631462046F3F7D1
:102A70000BFD0020BDE8F081FEB504460E46B51DF5
:102A80002888218988426ED105F10C00019069895E
:102A9000ADF8081001980078112860D00CDC1128DE
:102AA00072D2DFE800F08624282C30343886864441
:102AB0004886864C505458001C286AD00ADCA0F185
:102AC00012000A2875D2DFE800F04F537474747452
:102AD00074575B601F2868D004DC1D285DD01E2859
:102AE00067D15EE098281ED0992862D117E00020B7
:102AF0008DF800005EE001208DF800005AE0022011
:102B00008DF8000056E003208DF8000052E004200C
:102B10008DF800004EE005208DF800004AE0062008
:102B20008DF8000046E007208DF8000042E0082004
:102B30008DF800003EE009208DF800003AE00C20FE
:102B40008DF8000036E00D208DF8000032E00E20F8
:102B50008DF800002EE00F208DF800002AE01020F4
:102B60008DF8000026E02AE011208DF8000021E019
:102B700012208DF800001DE013208DF8000019E0F0
:102B800014208DF8000015E013E015208DF80000EA
:102B900010E016208DF800000CE017208DF80000E2
:102BA00008E018208DF8000004E019208DF80000DE
:102BB00000E000BF00BF68462168884700BFFEBD37
:102BC00030B587B005460C460B208DF810000E205E
:102BD0008DF8110000208DF812008DF813008DF88B
:102BE00014008DF815008DF816008DF817008DF87B
:102BF00018008DF819000A2301AA194604A801F04B
:102C00001DFF2819DDF806100160DDF80A1041608B
:102C100007B030BD2DE9F041054600261448007884
:102C200008B9BDE8F081002419E0124800EB041057
:102C3000807BC0F3400038B90E4800EB0410807B65
:102C400000F0010050B14DB101260A4901EB04101A
:102C500003F0C8F8074607B9E3E700BF641C022C7D
:102C6000E3D316B900200249087000BFD9E700007D
:102C7000353B0020BC52002010B50446142C01DB6B
:102C8000002010BD21460548FAF785F92146034882
:102C9000001FFAF780F90120F3E700003C51002003
:102CA0002DE9F04106460F4615461C461C480078A3
:102CB00010B90220BDE8F08105B10CB90520F9E793
:102CC00029E0A08800EB8000164911F8200000B12F
:102CD0001EE015E0216826B188883288904200D035
:102CE0000EE027B108883A88904200D008E0886852
:102CF0002860206868600C48008928810020D9E796
:102D0000A088214600F06EF80028E3D1206000BFC3
:102D1000A088401CA080A0880228D2DB0A20C9E736
:102D2000003C0020905A0020B85A00207FB504468D
:102D30000020009001900290E068009003A968468E
:102D400000F012F858B1019EB188E18031882181EC
:102D5000BDF80C10019800F081F8054600E00A2546
:102D6000284604B070BD000038B504460D466068C2
:102D7000F4F74AFC90B120891949098988420DD19C
:102D8000D4E900018968884208D128466168FEF7C5
:102D90003BF908B9012038BD0020FCE7002028805D
:102DA00018E0002000900CE00099886822689042AA
:102DB00006D1009860600A48008920810120EAE776
:102DC00000BF2888694600F00DF80028ECD128885B
:102DD000401C288028880228E3DB0020DBE7000075
:102DE000B85A00202DE9F04104460D4604EB84005A
:102DF000194901EB8000406800F580572E6826B124
:102E00003046F8F7EFFD064607E004EB8400124970
:102E100001EB8000406800F1080615E039463046B5
:102E2000F8F7C0FD20B1012806D002280BD108E038
:102E30002E600120BDE8F0813046F8F7D3FD06464C
:102E400001E00020F6E700BF39463046F8F7BFFD45
:102E50000028E3D100BFEDE7905A0020F8B5044602
:102E60000D4600200423094A214600900848FBF73C
:102E7000AFF906460EB10E20F8BD012005EB850125
:102E8000044A02EB810108740020F5E75C65030049
:102E9000003D0020905A0020F8B504460D4602215E
:102EA000A17500200423221D294600900448FBF749
:102EB0008FF906460EB90020F8BD0E20FCE7000091
:102EC000003D0020F8B504460E462078032801D1C5
:102ED000052100E00621A1750020042304F1080269
:102EE000311D00900448FBF773F905460DB9002029
:102EF000F8BD0E20FCE70000003D0020F8B50446B8
:102F00000E46206908B1032100E00121A1750020CF
:102F1000042304F10C0206F1080100900448FBF7B9
:102F200057F905460DB90020F8BD0E20FCE700005A
:102F3000003D002010B501210148FAF750F810BDFE
:102F4000103C002070B50546002406E0044901EB62
:102F500084002946F9F7BAFF641C1D2CF6D370BD16
:102F6000385100200146C8B270470146B1F5404FC4
:102F700005DB4FF6FE70814201DC01207047002026
:102F8000FCE7000010B598B00F488068C043179068
:102F90000D48416817A8FAF72DF8179901A8F6F718
:102FA00057FF2C2201A90CA8F3F76EFA002405E0C4
:102FB0000DA931F81400FFF7C5FF641C0C98A0425E
:102FC000F6D818B010BD00003451002010B50446EA
:102FD00021460248F9F77AFF10BD00003C5100205D
:102FE000F8B504460D460121A17500200090E08847
:102FF000830005F10C0105482269FBF7E9F8064654
:103000000EB90020F8BD0E20FCE70000003D0020B6
:1030100070B504460D46FF2C03DC21462846FFF719
:1030200039F970BD00200649087008710121044873
:10303000417141F2883181600249C1604ADF7047C5
:103040002C63002020A10700002004490862486288
:1030500088620349086248628862704748560020C7
:103060009C5700200246084670470000014908604E
:10307000704700004015014001480068704700009B
:103080000415014010B504460348046007211120CF
:10309000F3F7F8FC10BD00000815014010B54FF41F
:1030A00080300A4908600A49C1F804031120F3F787
:1030B0008FFC1120F3F7AFFC0120054908602F2099
:1030C000FCF7B0FB01200349087010BD4413014018
:1030D00000100140FE3B002010B51120012181406D
:1030E0000E4A430942F8231000BF4FF480300C49C8
:1030F00008600C49C1F80803012048602F20FCF744
:1031000091FB0120074988600020074908602F20B3
:10311000FCF788FB00200549087010BD80E100E045
:103120004813014000100140F03B0020FE3B00200E
:103130007047000070B504460D463448806A082880
:1031400062D23348007801280ED132480078202816
:1031500001DD002070BD2F4800782C49096A2B4AF8
:1031600052F82110087012E02948407838B9002040
:103170002649096A254A52F82110087007E02448B8
:10318000C07C2249096A214A52F8211008701F495F
:10319000096A1E4B53F821100A781946096A53F838
:1031A0002110481D1B49891CF3F76EF91748006A66
:1031B000164951F8200044701748006840B2096A67
:1031C000124A52F8211088701046006A114651F8D0
:1031D000200005710F48407800F0010080F00100E8
:1031E000096A52F82110C8701046006A401C114646
:1031F0000862082801D3002008620448806A401C45
:10320000024988620120A5E70020A3E79C5700201F
:1032100008550020EA5700204815004070477047C5
:1032200070B594B00546534B0FCB0FAC0FC442F2B0
:103230004530ADF84C00A11C0FA862DF044600BF6A
:10324000264636B100BF4CA2B9213046F2F7E2FF64
:1032500000BF00BF1C2108A8F3F72FF99DF820003C
:1032600020F00200801C8DF820009DF8200020F046
:10327000080008308DF820000020079000BF9DF85E
:103280001C0020F00F00401C8DF81C009DF81C0055
:1032900020F0F00010308DF81C0000BF00BF9DF83A
:1032A0001D0020F00F00401C8DF81D009DF81D0032
:1032B00020F0F00010308DF81D0000BF9DF81E00BA
:1032C00020F00600801C8DF81E0007A80D909DF8C8
:1032D000200020F0100010308DF820000020069013
:1032E0009DF81A0020F00600801C8DF81A0000BF1F
:1032F0009DF8180020F00F00401C8DF818009DF874
:10330000180020F0F00010308DF8180000BF00BF4A
:103310009DF8190020F00F00401C8DF819009DF851
:10332000190020F0F00010308DF8190000BF1421B2
:1033300001A8F3F7C2F813A8019006A802900C2088
:10334000ADF810000120ADF80C00E88805F1080385
:1033500001AA08A9AADF044600BF264636B100BF6D
:1033600005A2E3213046F2F755FF00BF00BF002061
:1033700014B070BDEC630300736572766963655FBA
:10338000785C736572766963655F63616D6D616EAC
:10339000642E6300F0B585B0064630781A287AD2DC
:1033A000DFE800F00D27282B2C32527A79797979D1
:1033B00079797979797979CDCECFD8E1F1FF0B2080
:1033C00000BF4FF0A0431946D1F8042501238340E4
:1033D0009343C1F80835012383401340C1F80C35ED
:1033E00000BF00224FF4004179480068F4F764FC04
:1033F000EAE0E9E000F0FAFFE6E0E5E0754A0121E5
:103400007548F4F749FBDFE000BF00BF00BF00BF15
:1034100000BF00BF00BFBFF34F8F00BF00BF00BFA2
:103420006E48006800F4E0606D490843001D6B4978
:10343000086000BF00BF00BFBFF34F8F00BF00BFD9
:1034400000BF00BF00BFFDE7012066490870664865
:103450000068F4F75BFC00224FF4701162480068CA
:10346000F4F72AFC09208DF8100008208DF81100CF
:10347000042204A95D4800F081FC044600BF2746F1
:103480003FB100BF5AA240F207313846F2F7C2FE00
:1034900000BF00BF98E096E052480078002835D081
:1034A0000020504908707168481C554900F088FF99
:1034B0005348407952490A79C978514B9B78CDE9F4
:1034C0000031CDE902204E494B780A784D490988F0
:1034D000032747EA01404CA1FBF75EFB09208DF86A
:1034E000100007208DF81100042204A93F4800F0C5
:1034F00045FC044600BF27463FB100BF3CA240F256
:1035000023313846F2F786FE00BF17E009208DF818
:10351000100006208DF81100042204A9334800F0A1
:103520002DFC044600BF27463FB100BF30A24FF438
:103530004A713846F2F76EFE00BF00BF44E043E038
:1035400042E030490988032242EA014038A1FBF7F2
:10355000CDFA39E02B490988032242EA014036A11D
:10356000FBF7C4FA30E027490988032242EA014008
:1035700033A1FBF7BBFA01252946334800F0E4FFED
:1035800022E00EE0FFE71F490988032242EA0140DA
:103590002EA1FBF7ABFA022529462B4800F0D4FFF9
:1035A00012E018490988032242EA014029A1FBF7E9
:1035B0009DFA02252946244800F0C6FF132127481A
:1035C000008876DF00E000BF00BF05B0F0BD00005E
:1035D00034620300F17F0200A73A00200CED00E006
:1035E0000000FA05AC3A002024620300543E00209B
:1035F0002E2E5C2E2E5C2E2E5C6D61696E2E63006D
:10360000943A0020583D002053435F4338206669B8
:103610006E616C202074696D652E2E2E25642C251C
:10362000642C25642C25642C25642C256400000062
:1036300053435F433237000053435F433238000047
:1036400053435F4332390000D03A002053435F4375
:103650003330000053435F4333310000E63A00202B
:1036600070B504460D46054801782046F5F770FA16
:1036700010B9204600F080FC70BD00001D3B00200A
:1036800070B504462046F3F77DFE10B942F2010002
:1036900070BD2046002806DA184900F00F02121FFC
:1036A000895C490902E01649095C49090D4628462A
:1036B000F3F784FE10B942F20200E9E7114880688E
:1036C00068B160090F4951F8200004F01F02012180
:1036D0009140084361090B4A42F821000CE000BF09
:1036E00004F01F01012088406109890001F1E021F7
:1036F000C1F8000100BF00BF0020C9E718ED00E0DD
:1037000000E400E0E859002070B504460D4620466C
:10371000F3F738FE10B942F2010070BD2846F3F706
:103720004DFE10B942F20200F7E720462946002874
:1037300007DA4A07160E064A00F00F031B1FD6547D
:1037400003E04A07130E034A135400BF0020E4E7C6
:1037500018ED00E000E400E038B504460D4624B161
:10376000012C0BD0032C24D11EE00020012181402C
:10377000114A430942F8231000BF1BE000200090CB
:103780006846F4F7DBFA0D48007808B9F9F750FEFF
:103790000A48C068401C0949C860012088709DF82B
:1037A0000000F4F7EDFA05E0FCF704F8F9F760FE25
:1037B00000E000BF00BF38BD80E100E008540020F9
:1037C000FEB505460C496846FBF76DFF0DE06846FF
:1037D000FBF766FF0446266828466168B04708B9CB
:1037E0001120FEBD6846FBF77FFF6846FBF758FFD8
:1037F0000028ECD100BFF4E788670300FEB505465A
:103800000A496846FBF74FFF0AE06846FBF748FFA6
:103810000446266828466168B0476846FBF764FF9F
:103820006846FBF73DFF0028EFD1FEBDA46703000B
:103830002DE9FC4104464FF0000804F10C00F8F7B4
:10384000A3FA06464FF6FF70864204D12088F8F7A7
:1038500087FA064603E020883146F8F763FA2088A5
:103860000022012100F02AF94FF6FF70864216D09F
:103870006A4607213046FDF733FE05467DB90198BB
:1038800000F13407387C00F0010030B904F10C017C
:1038900007F11200F8F72DFA00B1B84600BF2088F2
:1038A00000231A46414686DF054655B1208800238D
:1038B0001A46314600F0E4F82088294600F016FA4E
:1038C0000EE0B8F1000F0BD1208800231A463146D4
:1038D00000F0D6F82088002241F20601F6F7D2FD6A
:1038E000BDE8FC812DE9FC4781460E461746984607
:1038F0000A9C14B90320BDE8FC876B46012207210E
:103900003046FDF72FFE0546112D28D00DB10325B9
:1039100025E050210198F2F7D0FD01980770019839
:1039200034302060C4F80C80019818302061019870
:10393000401C60610B49E161019800F111014846AA
:10394000F8F7B0F805460DB10320D4E7072130465B
:10395000FDF7AAFE0546052D01D10320CBE7284639
:10396000C9E70000C853002010B504462088F5F7C9
:10397000B5F801280BD1217901F0010109B101212C
:1039800000E002210A462088012100F097F82088F3
:10399000211D00F06FF910BD014609B900207047E4
:1039A0000878C0F3400020B90878C00908B10020A9
:1039B000F5E70878C0F30210042801DD0020EEE7E7
:1039C0000878C0F3400048B10878C0F3021003281B
:1039D00004D10878C00908B90020E0E748788A785F
:1039E000904201DD0020DAE74878072801DA00205C
:1039F000D5E78878102801DD0020D0E7C878C0F32B
:103A0000800018B90879C0F3800008B10020C6E72B
:103A1000C878C0F3C00018B90879C0F3C00008B175
:103A20000020BCE7087800F0010088B9C87800F0F1
:103A3000010058B9C878C0F3400038B9087900F0DF
:103A4000010018B90879C0F3400008B10020A6E7CA
:103A5000087800F0010088B1C87800F0010068B96A
:103A6000C878C0F3400048B9087900F0010028B9CF
:103A70000879C0F3400008B9002090E701208EE7E4
:103A80002DE9F04107460D4616461C465EB184B14D
:103A90000122094801783846F5F770F8294638467A
:103AA000F8F740F905E024B12846F8F743F98046D5
:103AB00000BFBDE8F08100004B3B002070B506461A
:103AC0000D4614462A46134801783046F5F756F855
:103AD000F5B10CB1012000E0002002460E4801784B
:103AE0003046F5F74BF8012C01D1012000E0002011
:103AF00002460A4801783046F5F740F800220848A7
:103B000001783046F5F73AF82146304600F038F8AB
:103B100070BD0000483B0020493B00204A3B00208C
:103B20004B3B002070B5044600261348006808B9D6
:103B3000012618E01148007800F00100217A09B14F
:103B4000012100E00021884201DA01260BE00B4848
:103B50000078C0F34001607A08B1012000E0002045
:103B6000814200DA01266088012300223146F8F7FD
:103B7000BFFC054670BD0000583B0020513B0020B3
:103B800030B585B005460C46142206496846F2F762
:103B90007BFCADF802508DF808406846F6F7C6FE8B
:103BA00005B030BD786303002DE9F04106460F46AD
:103BB000904600BF42463946304600F0BDF8044604
:103BC000082C19D0112C17D0052C15D0132C08D186
:103BD0000C490988032242EA01400BA1FAF786FF4B
:103BE0000CE000BF254635B100BF0DA235212846A7
:103BF000F2F710FB00BF00BF112CDBD000BFBDE807
:103C0000F0810000583D00204E52465F4552524F11
:103C1000525F5245534F55524345532021000000F7
:103C2000736572766963655F785C736572766963E4
:103C3000655F6164632E630010B586B0044614218D
:103C400001A8F2F73AFC04208DF80400ADF8064014
:103C500001A8F6F76BFE06B010BD000010B50446D3
:103C60000348806918B1024881692046884710BD21
:103C70001851002030B585B005460C46142206497F
:103C80006846F2F701FCADF8025002946846F6F778
:103C90004DFE05B030BD0000B463030030B585B003
:103CA00005460C46142206496846F2F7EDFBADF8CE
:103CB000025002946846F6F701FE05B030BD0000E0
:103CC000B462030030B585B005460C46142206499F
:103CD0006846F2F7D9FBADF8045002946846FDF748
:103CE0001FFD05B030BD00004063030030B585B056
:103CF00005460C46142206496846F2F7C5FBADF8A6
:103D0000025002946846F6F711FE05B030BD00007F
:103D10008C63030070B505460E463146284675DFB4
:103D2000044624B1112C02D02046FFF797FF0CB9AE
:103D3000012070BD0020FCE737B584B004460D4675
:103D4000A0884FF6FF71884215D0002000900190A6
:103D5000029003902089ADF8000001208DF8020048
:103D60000020ADF8040006A802900395A0886946DB
:103D7000AEDF07B030BD0520FBE7000037B584B0EB
:103D800004460D46BDF818000C280ADD13490988C1
:103D9000032242EA014012A1FAF7A8FE0C2007B064
:103DA00030BDA0884FF6FF71884214D000200090EB
:103DB0000190029003902089ADF8000001208DF859
:103DC00002000020ADF8040006A802900395A08828
:103DD0006946AEDFE3E70520E1E70000583D00203B
:103DE000746F6F206D756368206461746120746FF7
:103DF0002073656E6420696E207363202E2E2E78EA
:103E00006B772E002DE9F84F88461546002D35D0EA
:103E10004FF000090320009000BF08EB09012A467B
:103E20000020F3F703F80446A1442D1BFCB9144805
:103E3000007800B920E0012606B90FE000BF4FF47A
:103E40007A7707B906E0DFF83CA04FEA871B5846AF
:103E5000D04700BF701E061EF1D100BF0098401E63
:103E60000090009818B900200549087004E001206E
:103E700003490870002DD0D100BF00BFBDE8F88F06
:103E8000693C002071670300F0B585B004460E461A
:103E9000184B0FCB8DE80F004AF6CC30ADF8100070
:103EA0000DF11201684662DF054600BF2F4637B1AB
:103EB00000BF11A2A7213846F2F7ACF900BF00BF3E
:103EC0004FF6FF70A08030682060A21D04A9012079
:103ED000A8DF054600BF2F4637B100BF06A2AF21BD
:103EE0003846F2F797F900BF00BF2046F5F70CFE01
:103EF00005B0F0BDDC630300736572766963655FCE
:103F0000785C736572766963655F6164632E6300D4
:103F100010B50022024903480078F4F7CBFD10BD2C
:103F2000613603001C3B00201CB5114903C9CDE9D3
:103F30000001002269460F480088FDF708FB04468F
:103F40000CE00C480088FDF77DFA0A490880002241
:103F5000694608480088FDF7FAFA044605480088D3
:103F60004FF6FF71884201D0112CEAD11CBD000030
:103F700008630300203B00202DE9F04186B0044691
:103F8000012600272046F7F7E9FC05462846112DB3
:103F90001AD005DC60B1062818D0082823D114E017
:103FA000A0F540500238E8B1A0F2FF30D8B915E0D2
:103FB0001422174901A8F2F767FAADF80640012765
:103FC00001A8F6F77BFC13E012E000BF00262046B4
:103FD000F7F7C6FE8046F7F7F3FB09E02046F8F74F
:103FE000DBFB05E004E029462046FFF757FE00BF53
:103FF00000BF3246074801782046F4F7BFFD3A4635
:10400000054801782046F4F7B9FD06B0BDE8F08117
:10401000DC6203001C3B00201D3B00202DE9F04723
:1040200007460E4614469A46B86A10B90720BDE8FE
:10403000F0874FF0000836E008EB4801B86A00EB63
:104040008105A88800F10209B9F1FE0F01D90C2001
:10405000EDE709F10100218870542088401C208080
:104060001620218870542088401C208022889119B5
:10407000288801F0C8FA218808442080A8880028F0
:104080000DDDA86808B90720D1E7AA882388981908
:10409000A968F2F7F9F92088A9880844208008F176
:1040A000010000F0FF0897F82C004045C4DC002018
:1040B000BDE70000F0B585B004460E46184B0FCBA7
:1040C0008DE80F004AF6BB20ADF810000DF112018B
:1040D000684662DF054600BF2F4637B100BF11A218
:1040E000F6213846F2F796F800BF00BF4FF6FF7092
:1040F000A08030682060A21D04A90120A8DF054629
:1041000000BF2F4637B100BF06A2FC213846F2F7A8
:1041100081F800BF00BF2046FFF782F805B0F0BD70
:10412000FC630300736572766963655F785C736531
:1041300072766963655F63616D6D616E642E6300A5
:1041400030B589B0142104A8F2F7B7F90020039024
:10415000029001903C48019001A93C48F9F7C4F84D
:10416000044600BF25463DB100BF39A240F28F4151
:104170002846F2F74FF800BF00BF00BF9DF81D00B2
:1041800020F00F00401C8DF81D009DF81D0020F050
:10419000F00010308DF81D0000BF00BF9DF81E001C
:1041A00020F00F00401C8DF81E009DF81E0020F02E
:1041B000F00010308DF81E0000BF00BF9DF81F00FA
:1041C00020F00F018DF81F109DF81F0020F0F00166
:1041D0008DF81F1000BF00BF9DF8200020F00F00D9
:1041E000401C8DF820009DF8200020F0F0001030D9
:1041F0008DF8200000BF0020049001208DF81400ED
:10420000002006908DF81C0004A91548F4F78EFBD9
:10421000044600BF25463DB100BF0DA240F2B641A5
:104220002846F1F7F7FF00BF00BF0E48039003A92F
:104230000D48FFF73FFF0D48029002A90C48FFF719
:1042400023FE09B030BD0000F9EF02007C3D0020E4
:104250002E2E5C2E2E5C2E2E5C6D61696E2E630000
:10426000403E002095330300543E00201F320300DF
:10427000643E0020017070470246022082F831003F
:1042800092F8240010B10720087001E003200870A4
:10429000108A88810020C2F8A40002F1AA004860B8
:1042A000D0688860002070470246012082F8310003
:1042B0000020C2F8A40002F1AA0048600020886033
:1042C00002200870802088810020704770B5044665
:1042D0000D466069A860208BA88194F8240018B16D
:1042E000062084F83C0002E0012084F83C002046CF
:1042F00001F080FB78B10220287504212046F6F7F2
:1043000086FE064600BF304600B170BD00BF0520E6
:1043100084F8310002E0032084F8310004F19400B5
:10432000C4F8A4000020F0E770B504460D46E0692B
:10433000A860208CA88194F8240018B1062084F885
:104340003C0002E0012084F83C00204601F052FBD2
:1043500078B10220287504212046F6F758FE06465B
:1043600000BF304600B170BD00BF062084F83100A8
:1043700002E0042084F8310004F19400C4F8A400A1
:104380000020F0E70CB54A0E8DF80020C1F343522F
:104390008DF80120C1F304428DF80220C1F3C4223C
:1043A0008DF80320C1F345128DF80420C906890E4B
:1043B0008DF8051000990160BDF8041081800CBDD6
:1043C0001CB50C46C178027841EA026142788078D7
:1043D000120442EA002001436846FFF7D3FF009829
:1043E0002060BDF80400A0801CBD000010B50C4981
:1043F0000988032242EA01400AA1FAF777FB01206B
:104400001049087000224FF420210F480068F3F78C
:1044100053FC012421460D4800F096F810BD000021
:10442000583D00202073657475705F736F6D6574FF
:1044300068696E675F61667465725F73635F6F6BF7
:1044400020000000E03A002020620300D03A002063
:1044500070B50020F4F7EAFF044600BF25463DB1E1
:1044600000BF13A240F21B512846F1F7D3FE00BF54
:1044700000BFF4F731FF044600BF25463DB100BF41
:104480000BA240F21F512846F1F7C4FE00BF00BF47
:1044900033DF044600BF25463DB100BF04A240F211
:1044A00023512846F1F7B6FE00BF00BF70BD0000E3
:1044B0002E2E5C2E2E5C2E2E5C6D61696E2E63009E
:1044C00010B50446204600F0F6F8002202490348E1
:1044D0000078F4F7EFFA10BD09C60200643B002033
:1044E00070B504460D462946204600F00BF970BD14
:1044F00010B50E48F6F767FD0D48F6F764FD0D4858
:10450000F6F761FD0C48F6F75EFD0C48F6F75BFD2B
:104510000B48F6F758FD0A480078182801D1032007
:1045200010BD0120074908700020F9E7643B002016
:10453000653B0020663B0020673B0020683B002075
:10454000693B0020503B002070B505460E463146C1
:104550002846F7F7E1F8044614B9E868804770BDCB
:10456000A1782846FFF786FE6068804700BFF6E71F
:1045700010B509490988032242EA014007A1FAF768
:10458000B5FA0D490A7804490988032343EA014032
:104590000AA1FAF7B5FA10BD583D0020736D5F6EA1
:1045A0006F745F76616C69645F6576745F68616E75
:1045B000646C657200000000D03A0020736D3A20F0
:1045C0002564000010B5044620780A2818D004DCC1
:1045D000082813D0092821D111E00B2811D0132865
:1045E0001CD100220F4910480078F4F763FA00222A
:1045F0000E490F480078F4F75DFA00BF00BF00BF16
:1046000000BF002207490B480078F4F753FA002254
:10461000064909480078F4F74DFA00E000BF00BFF2
:1046200010BD000099130300693B002009C6020079
:10463000653B0020683B0020643B002010B5044629
:104640003CB900200C49086001200C49087000208A
:1046500010BD2046FFF7A0F958B109482168016054
:104660002179017104490860012004490870002083
:10467000EEE70720ECE70000583B00205C3B002001
:10468000513B002010B504462078052802D012289E
:104690000BD106E000BF6088A16800F00FF900BFF1
:1046A00007E02046FFF73EFA00BF2046F6F700F984
:1046B00000BF00BF10BD10B504462088142812D0DA
:1046C00004DC112807D0132819D108E019280ED0CE
:1046D0001A2814D10FE0201DF5F755FE0FE0201D1C
:1046E000FFF742F90BE0201DFFF7A2F807E0201DBD
:1046F000F3F7CBFB03E0201DF5F71CFD00BF00BF67
:1047000010BD000070B505460C46227802480178BD
:104710002846F4F733FA70BD4C3B002010B515481D
:10472000F6F748FC1448F6F745FC1448F6F742FC47
:104730001348F6F73FFC1348F6F73CFC0D480078A9
:1047400018280FD00C48007818280BD00B48007898
:10475000182807D00A480078182803D0094800789C
:10476000182801D1032010BD01200749087000203E
:10477000F9E70000483B0020493B00204A3B00206D
:104780004B3B00204C3B0020473B00202DE9F041F3
:1047900004460D4617462046F4F7A0F90646012EBA
:1047A00005D129462046F7F74DFFBDE8F08143F2D9
:1047B0000200FAE72DE9F04F89B082460D46174610
:1047C0005046F4F78BF904464FF6FF780026B146C1
:1047D0005046FDF7FFF88346202101A8F1F76DFE52
:1047E000012C05D10022334801785046F4F7C6F970
:1047F00024B943F2020009B0BDE8F08F15B94FF0BB
:10480000850937E0287800F0010018B904972A4993
:1048100008912FE05046F7F7A3FA80464FF6FF7055
:1048200080450BD1FCF74AFE80464FF6FF7080456D
:1048300002D04FF0010B10E003260EE0012C0CD14A
:104840005046F3F719F840B95046FFF7F5F95046CE
:10485000F3F712F808B94FF08509B9F1850F09D0BF
:1048600046B901A83B462246414600905046FFF714
:1048700039F8064676B9012C06D101AB2A464946DD
:1048800050467FDF064605E001AB00224946504610
:104890007FDF064626B9B9F1000F01D1012000E003
:1048A000002002465B4641465046FFF7E9F8304695
:1048B000A1E700004C3B0020C8530020FEB5044691
:1048C0000D466846F8F760FA6A4629462046FCF726
:1048D0006BFD0948009902682046FFF76BFF06460A
:1048E000012231462046F6F7A7FB31462046009AC2
:1048F000F5F7A2FFFEBD0000603B002070B5044646
:104900000D462CB90120034948700020F5F718FA2C
:1049100070BD00000854002070B516242046F2F740
:1049200031FD10B942F201001CE01548806868B101
:104930006009134951F8200004F01F020121914041
:10494000884361090E4A42F821000AE000BF04F0E2
:104950001F01012088400B49620941F8220000BF75
:1049600000BF0020054600BF2C4634B100BF06A2A0
:10497000AD212046F1F74EFC00BF00BF70BD000026
:10498000E859002080E100E02E2E5C2E2E5C2E2EB9
:104990005C2E2E5C2E2E5C2E2E5C636F6D706F6E07
:1049A000656E74735C736F66746465766963655C69
:1049B000636F6D6D6F6E5C6E72665F7364682E639D
:1049C0000000000070B51620FEF75AFE044600BF36
:1049D000254635B100BF04A2A1212846F1F71AFCF3
:1049E00000BF00BF70BD00002E2E5C2E2E5C2E2E50
:1049F0005C2E2E5C2E2E5C2E2E5C636F6D706F6EA7
:104A0000656E74735C736F66746465766963655C08
:104A1000636F6D6D6F6E5C6E72665F7364682E633C
:104A2000000000000122014B1A707047CC3C0020AE
:104A30000122014B1A707047D03C00202DE9FF473E
:104A400004460D4616461F4600201349087000BF55
:104A5000DFF8489082460094019502960397002261
:104A6000694609F10400FBF7C9FC824600BFD04645
:104A7000B8F1000F06D000BF09A22F214046F1F780
:104A8000C9FB00BF00BF00E020BF0348007800283A
:104A9000FAD0BDE8FF870000CC3C0020206803006E
:104AA0006472697665735F785C786C5F782E6300FA
:104AB0002DE9FF4704460D4616461F4600201349C0
:104AC000087000BFDFF84890824600940195029676
:104AD00003970022694609F10400FBF78FFC824628
:104AE00000BFD046B8F1000F06D000BF09A2852153
:104AF0004046F1F78FFB00BF00BF00E020BF034836
:104B000000780028FAD0BDE8FF870000D03C0020E4
:104B1000606803006472697665735F785C6164370E
:104B2000365F782E6300000070B586B004460D46EF
:104B30002E4620788DF8040060680290217A8DF866
:104B40000C10E1680491217C8DF81410044850F891
:104B50002610044850F8262001A8904706B070BDE2
:104B600084540020785400202DE9F04704460E4676
:104B700015461F46286818B12868FAF7EDFF28B1D6
:104B8000A86850B1A868FAF7E7FF30B9002070773D
:104B90004FF010084046BDE8F087D5E90001C4F8A1
:104BA00044054FF4A962115100BFD5E90201C4F8D0
:104BB00034054FF4A762115100BF4FF48C712046A9
:104BC000FAF7B0FD2046394601F0010232B100BFCC
:104BD00001234FF4AA62135000BF06E000BF002378
:104BE0004FF4AA62135000BF00BF01F0020232B1BD
:104BF00000BF01234FF4A862135000BF06E000BFBE
:104C000000234FF4A862135000BF00BF00BF07F09D
:104C1000080018B910212046FAF791FD3068A0B9B4
:104C200000BF4FF48C712046FAF775FD0028F8D0CC
:104C3000F07FFF281BD0B07F18B1F07FF9F755FC4B
:104C400015E0F07FF9F768FC11E0A146012020EAA9
:104C5000970ABAF1000F04D140214846FAF769FDDE
:104C600003E040214846FAF767FD00BF00BF4FF060
:104C7000000840468FE7000010B501205B4908603E
:104C80005B48406A5A4951F820005A4908605A481E
:104C9000007810B101287ED12BE0564909680878C8
:104CA0005649096888475348006800795449087094
:104CB000002048704F48006802784E480168491D3E
:104CC0004F48801CF1F7E0FB4E48006840F00800B8
:104CD0004D49086011204D49C1F804034648C08978
:104CE0004B4908604B484C49086002204B4908700A
:104CF00052E040480068C07810B13F48007D08B9D4
:104D0000012000E0002004463A48006800783C4951
:104D100008703848006800794006000E4870084660
:104D2000407834490968C97809B9012100E00021B7
:104D30000843334948702F48006802782D480168BD
:104D4000491D2F48801CF1F79FFBACB12D4800682E
:104D500040F008002C49086011202C49C1F80403D8
:104D60002548C0892A4908602A482B490860022042
:104D70002A4908700EE00EE02248006822490860C7
:104D800010202249C1F80403254823490860012066
:104D90002249087000E000BF00BF16480068407854
:104DA00020490860134800684178012088401D4967
:104DB000091D08601C48C07C1A4924390860104845
:104DC000091F08600120F1F7F7FD0120F1F718FE37
:104DD00000200D49FC3908600C49C1F808010A4956
:104DE000F039086001200949086010BDB83B002077
:104DF000485600208C3B002008550020D03B002066
:104E0000C8570020C43B00200012004000100040A2
:104E1000B43B0020410C0300C83B0020893B00202C
:104E2000E50C03002C150040943B00202DE9F05FB9
:104E300005460E4690461F46DDF828904FEA154A73
:104E4000F5F7B2FA83464AEA0B42781C00EA0900F9
:104E50000E4941F8202007EA090001EB8004206890
:104E600065F3C5002060206868F389102060206821
:104E700066F39F202060206820F00300401C206023
:104E8000206820F004002060BDE8F09F8C5C0020CA
:104E90002DE9FC478046894616461C461748876818
:104EA000012201A92046F4F7B5FCC8B1019800F130
:104EB000020A00250AE056F8252050460AF1010AA8
:104EC00038400E490C3141F820206D1CA542F2D328
:104ED0000097224649464046019BFFF7A7FF00BFC7
:104EE000064890F8200430B100BF00BFF9F77EFCFF
:104EF0000028FBD100BFBDE8FC870000805C0020DB
:104F00002DE9F04781460C4615469846002608F0E4
:104F10000100A0B105E0641C761C39464846F4F750
:104F2000EBFC2778002FF6D104E06D1E20214846C7
:104F3000F4F7E2FCB5421BD9002DF6D118E01CB104
:104F40002046F1F7C5FA064604E06D1E20214846CA
:104F5000F4F7D2FCB54201D9002DF6D105E0641C6E
:104F6000761C39464846F4F7C7FC2778002FF6D15F
:104F7000BDE8F08770B507211620FEF7C5FB044693
:104F800000BF254635B100BF0BA2BF212846F1F76F
:104F900041F900BF00BF07211520FEF7B5FB04460D
:104FA00000BF254635B100BF03A2C1212846F1F755
:104FB00031F900BF00BF70BD2E2E5C2E2E5C2E2E50
:104FC0005C2E2E5C2E2E5C2E2E5C636F6D706F6ED1
:104FD000656E74735C736F66746465766963655C33
:104FE000636F6D6D6F6E5C6E72665F7364682E6367
:104FF000000000000021014A11707047AC3A002007
:10500000042005490860002003490839086040F27F
:10501000022002490860704710A5004000A200402D
:105020000246501A20F07F40704770B504460D4686
:105030002046F8F7E7FD70BD7CB504466069009036
:10504000A0690190094A08216846F2F725FD054646
:1050500000BF2E463EB100BF05A240F28711304688
:10506000F1F7D8F800BF00BF7CBD0000AD500300D1
:105070002E2E5C2E2E5C2E2E5C2E2E5C2E2E5C2E6A
:105080002E5C636F6D706F6E656E74735C6C6962BD
:105090007261726965735C74696D65725C61707070
:1050A0005F74696D65722E63000000002DE9F041A8
:1050B00004460E4600BF082E01D1012000E000206A
:1050C00007463FB900BF07A240F273110020F1F775
:1050D000A1F800BF00BF2546D5E900108847BDE80C
:1050E000F08100002E2E5C2E2E5C2E2E5C2E2E5C6F
:1050F0002E2E5C2E2E5C636F6D706F6E656E7473FA
:105100005C6C69627261726965735C74696D657209
:105110005C6170705F74696D65722E6300000000E1
:105120002DE9FC410020019000260E4804680E483D
:1051300007686846F5F774F905462DB101AA2146BE
:105140000098F5F717FC01260198F7F787FA00B1E8
:10515000012616B13846F4F71FFE002003490870F7
:10516000BDE8FC81F03B0020EC3B0020FF3B002031
:1051700010B51520F1F766FC10BD000010B51849F8
:10518000096811B91649086028E0154A01681268D3
:10519000126891420DD81249096809680268891A93
:1051A0000F4A126811600E490968C1610C49086014
:1051B00014E002680A4C2368216803E00C68121BA3
:1051C0000B46C96911B10C689442F7D311B10C6850
:1051D000A41A0C600260C161D86100BF10BD00005C
:1051E000EC3B00202DE9F04106461C48D0F8008039
:1051F00005682C4604E0B44200D103E02546E4698A
:10520000002CF8D100BF14B90020BDE8F081A54200
:1052100013D112480068C069104908600846006848
:1052200058B901200E49886000200E49086001200D
:105230000D4908702F20FAF7F5FA2768E069E86150
:10524000EC6914B120683844206004480068804547
:1052500001D00120D9E70020D7E70000EC3B002077
:1052600000100140F03B0020FF3B00202DE9FC47EF
:1052700005460E46174698464FF00009002000905C
:105280006846F2F75BFD01A800F0E4FB044614B9A0
:105290004FF004090DE0012020706560FDF7ECFE81
:1052A000A060E6602761C4F814809DF8040000F057
:1052B000EFFB9DF80000F2F763FDB9F1000F01D19B
:1052C000FFF756FF4846BDE8FC872DE9FC4105463F
:1052D0000E460027002000906846F2F72FFD01A837
:1052E00000F0B8FB04460CB9042705E026706560A1
:1052F0009DF8040000F0CCFB9DF80000F2F740FDA3
:105300000FB9FFF735FF3846BDE8FC812DE9F041C4
:105310001F480068002838D00027FDF7ADFE804602
:105320001C4801684046FFF77BFE064618480568A2
:1053300010E02868B04200D90EE02868361A2868C4
:1053400007442C46ED69207C20B1002020742046C3
:10535000FFF772FE002DECD100BF0F4800780F4917
:105360000978884209D10D480078401CC0B20B4929
:105370000870022801D100200870094807490978FF
:1053800040F82170FFF7F4FE00BFBDE8F081000097
:10539000EC3B0020F03B0020FC3B0020FD3B0020CC
:1053A000F43B002010B51120F1F74CFB10BD0000BC
:1053B00070B5F2F753FC044600BF25463DB100BF6F
:1053C0004CA240F2EA312846F0F724FF00BF00BFAC
:1053D0004C4A01214C48F2F723FC044600BF254605
:1053E0003DB100BF43A240F2F9312846F0F712FF69
:1053F00000BF00BF454A01214548F2F711FC0446B1
:1054000000BF25463DB100BF3AA240F2FE3128461A
:10541000F0F700FF00BF00BF3E4A00213E48F2F710
:10542000FFFB044600BF25463DB100BF31A240F25C
:1054300003412846F0F7EEFE00BF00BF374A0121C6
:105440003748F2F7EDFB044600BF25463DB100BFEB
:1054500028A240F20A412846F0F7DCFE00BF00BF58
:10546000304A01213048F2F7DBFB044600BF2546F5
:105470003DB100BF1FA240F211412846F0F7CAFE1D
:1054800000BF00BF294A00212948F2F7C9FB0446A2
:1054900000BF25463DB100BF16A24FF483612846E8
:1054A000F0F7B8FE00BF00BF224A00212248F2F701
:1054B000B7FB044600BF25463DB100BF0DA240F238
:1054C0001F412846F0F7A6FE00BF00BF1B4A01217E
:1054D0001B48F2F7A5FB044600BF25463DB100BFBF
:1054E00004A240F227412846F0F794FE00BF00BF17
:1054F00070BD00002E2E5C2E2E5C2E2E5C6D616920
:105500006E2E6300F9AD02001C6203003DA0020094
:1055100020620300F54F030024620300C1A30200D0
:105520002C620300D973020018620300D9970200AD
:10553000306203008FC4020034620300B57F0200B2
:10554000286203007047000010B50D490988032246
:1055500042EA01400BA1F9F7C9FA0C490A78084957
:105560000988032343EA014009A1F9F7C9FA0A4867
:105570000068F2F7CBFB00210820F8F7D8FF10BD38
:10558000583D0020746F5F69646C6500D03A00205C
:10559000736D3A20256400001862030010B50B48B3
:1055A000806A90B10120F1F71FFA0848806A401E16
:1055B000064988620846406A401C4862082801D3B0
:1055C000002048620120F1F71BFA10BD4856002068
:1055D00030B504461088C01C984201D90C2030BD5B
:1055E0000220158848551088401C10800A20158814
:1055F00048551088401C108015884C551088401C58
:1056000010800020EBE702460A70100A4870022062
:105610007047000070B504460D4614210448F0F7A9
:105620004CFF04480068F7F7FAFB002070BD00004B
:10563000605B0020DC6503002DE9FF4F81B08846E8
:1056400016461F46DDE90E4B45464FF0010A03E0C2
:10565000B5FBF6F50AF1010AB542F9D2574500D972
:10566000BA460BF0010098B994B10BF00200022881
:1056700003D117B93020009001E02020009004E011
:10568000641EDDE90010F4F737F90CB1A245F7D339
:10569000012509E0012F01D97F1E04E0B8FBF5F9CF
:1056A000B14500D201E07543F4E700BF00BFB8FB8D
:1056B000F5F909FB15880D4810F809100198F4F761
:1056C0001BF9B5FBF6F5002DF1D10BF0010048B147
:1056D00044B104E0641E20210198F4F70DF90CB1E7
:1056E000A245F7D305B0BDE8F08F00006065030068
:1056F00070B5044660790844C0B260713C2848D156
:10570000002161712079401CC0B220713C2840D139
:105710002171E078401CC0B2E070182839D1E170E6
:10572000A0780125401CC0B2A070202806D01F28F8
:1057300009D01E2814D01D2819D023E06078401C01
:105740006070A5701EE06078042805D0062803D09C
:10575000092801D00B2815D1401C6070A57011E0FC
:10576000607802280ED103206070A5700AE060788E
:10577000022807D12078F7F73DFB18B16078401C6C
:105780006070A57060780D2803D165702078401C8A
:10579000207070BD10B50022024903480078F3F76D
:1057A00089F910BDB9A202001A3B002010B50446C9
:1057B00004F0010020B11048F1F7F3FE0F49086032
:1057C00004F0020030B10C48001DF1F7EAFE0B496D
:1057D000091D086004F0040068B107480830F4F7B8
:1057E0001FF906490831086003480C30F4F718F92E
:1057F00002490C31086010BD943B00201C1500408C
:105800000F48007A0F4908600D48007A58B1012806
:1058100004D003280BD004280DD100E000BF3020B5
:105820000949086009E040200749086005E049206F
:105830000549086001E00020704700BF0120FBE738
:105840000855002010150040BC3B00201048407A4D
:1058500098B1012809D0022810D14FF6FF700D49E8
:1058600008600D48091F08600AE0FF200949086028
:1058700040F20710091F086002E001E000207047B5
:1058800000BF0348407A0349083908600120F6E761
:10589000085500203C1500402110010010B50124DE
:1058A00000F036F8FFF7ACFF044000F017F80440B2
:1058B000FFF7CCFF04400749C87C074909688847BF
:1058C00004488089872801DB012000E00020044093
:1058D000204610BD08550020D03B00200848007825
:1058E00028B1012807D107480749086005E00748A3
:1058F0000549086001E00020704700BF0120FBE778
:105900000855002055590300D03B002025590300BD
:105910000248807A0249086070470000085500205C
:105920000C1500400849094A11600949497C491E83
:105930004FF0807242EA014141EA00210143034AEB
:10594000121D116070470000000101001415004095
:10595000943B00200749084A11600849497C491EC8
:105960004FF0807242EA014141F02001024A121DCB
:10597000116070470600030014150040943B00209E
:10598000F8B506463546A8B2F6F7C0FB04466CB338
:10599000207A1749097B88420ADAA8B204F10A0181
:1059A000FEF7B8F9074617B1207A401C20721DE0B7
:1059B000002020720E48007C50B1A8B23B2176DF57
:1059C000074627B1082F02D03846FEF747F900BF37
:1059D0000748406950B100208DF80000A8B2ADF82A
:1059E0000200034841696846884700BFF8BD0000CF
:1059F0001851002010B50446607940B194F8B20007
:105A000028B9204600F048F908B1012010BD002057
:105A1000FCE7000010B5044621460248F7F7ACFA4F
:105A200010BD00003451002070B50446207A80B1CA
:105A30006088002166DF054615B90020207207E066
:105A4000112D02D10120207202E0284661688847AA
:105A500000BF70BD10B502460C484078401CC1B272
:105A60000A488078884200D100210848007888429E
:105A700001D1002010BD11700448407800EB4004B3
:105A80000248001D00EBC4031846F3E74C58002001
:105A900001494870704700004C5800202DE9FC4730
:105AA0008046894615469A46DDE90A675346022232
:105AB00049464046CDE9006700F017F8044600BFAC
:105AC000204608B1BDE8FC8700BF53461022294696
:105AD0004046CDE9006700F008F8044600BF2046C4
:105AE00000B1EFE700BF0020ECE72DE9FF5F0746BC
:105AF0008B4696461D460E9C4FF000092088039069
:105B0000C84647E0786800EB8800006801900022F2
:105B100002A901A864DF064600BF304610B104B0F8
:105B2000BDE8F09F00BF9DF80800704530D1B9F185
:105B3000000F01D0002000E00220009020889DF896
:105B400008100144009801440F98814201DD0C20A7
:105B5000E5E7B9F1000F0AD12088401C2080208899
:105B600005F800B02088401C20804FF001092088F3
:105B7000421902A901A864DF064600BF304600B101
:105B8000CDE700BF21889DF808000844208000BFB1
:105B900008F1010838884045B4DCB9F1000F0DD098
:105BA00021880398401C081A1FFA80FABAF1FF0FE7
:105BB00001DD0C20B3E7039805F800A00020AEE754
:105BC0002DE9F04106460F46042E22D20FB10320E4
:105BD00000E0002005463046F3F70EFB044600BF08
:105BE0004FF0A041084600F5E06151F8241021F47F
:105BF000403200F5E06141F8242051F8241041EAD8
:105C0000054200F5E06141F8242000BF0020BDE816
:105C1000F0810620FBE77047FEB5174A07CA8DE8FA
:105C200007004FF47A6001906D46144E05B9144D8B
:105C300031462846FAF748FC044600BF00BF254617
:105C40003DB100BF0FA240F2DA612846F0F7E2FA58
:105C500000BF00BF0F48FAF707FC044600BF254607
:105C60003DB100BF07A240F2DC612846F0F7D2FA4E
:105C700000BF00BFFEBD00006C620300175C0300A4
:105C80004C6203002E2E5C2E2E5C2E2E5C6D616904
:105C90006E2E6300AE3A0020014691F8B4007047C2
:105CA00002460020704700002DE9F84305460E46E5
:105CB00017469846DDF8209069460F480068F7F7C8
:105CC000CDF8044614B90420BDE8F8831C21204611
:105CD000F0F7F3FB002020712560C4F808902661DE
:105CE000E760C4F81480694603480068F7F7E0F8F5
:105CF000FCF786FE0020E7E7DC65030081780129D8
:105D000009D006290AD0072902D008290FD108E0B6
:105D1000142101800CE00121018009E001210180B2
:105D200006E04168898809318908018000E000BFE8
:105D300000BF70477CB5044600250020009001900C
:105D4000A0788DF80200617B2448FCF71BF9064619
:105D50000EB903207CBD237BA17832466846FBF751
:105D600043FE6846FFF7CAFF208804F1080369462E
:105D70006268FBF792FD054635B1072D28D0112D3D
:105D80000BD0862D25D116E0A07B20F00200A07359
:105D9000A07B20F00100A0731DE0A07B20F002009A
:105DA000801CA073A07B20F00100A07301200C498F
:105DB000087000250FE0A07B20F00200A073A07BFC
:105DC00020F00100401CA07301200549087002E08A
:105DD00001E0032500BF00BF2846BBE7AC5200200E
:105DE000353B002030B585B005462846FFF7A2FFB9
:105DF0000446B4B14FF6FF70ADF802002888ADF844
:105E00000400862C03D106208DF8000003E0072053
:105E10008DF8000002946846FBF7DCFA002005B01C
:105E200030BD0120FBE770B504460D46164604B9A7
:105E300070BD00F05BF82060206800B9F8E72068CA
:105E400005802068867000BFF2E7F8B506460D466B
:105E5000002000906946304600F01EF8044607E036
:105E60000098401C00906946304600F015F8044642
:105E70007CB1A078A842F3D1A07BC0F340000028F9
:105E8000EED1A07B00F001000028E9D1A068002835
:105E9000E6D12046F8BD000003460A4611680BE033
:105EA000074800EB01100088984204D111600448B3
:105EB00000EB01107047491C0229F1D30020F9E7DB
:105EC000BC520020024600210AE0074800EB011006
:105ED0008068904203D1044800EB01107047491CD0
:105EE0000229F2DB0020F9E7BC52002010B5FF21A7
:105EF0004FF6FF70FFF7A9FF10BD4FF6FF7101804D
:105F0000FF2181704173817B21F002018173817BCC
:105F100021F00101817300210173416081607047AC
:105F200070B50446002506E0607B2844C1B20548F0
:105F3000FCF740F86D1C207BA842F5D82046FFF7FF
:105F4000DCFF70BDAC5200202DE9FC5F06460D461B
:105F5000174698464FF0000BDA463148007810B9E2
:105F60000220BDE8FC9F0DB90520FAE728884FF60E
:105F7000FF71884201D0688808B90420F1E7686899
:105F8000F6F777FA08B90320EBE767B928891FFA13
:105F900080FA01A9504600F0E7F88146B9F1000FF8
:105FA00005D04846DDE738880190B7F802A068467A
:105FB000FCF708FC044634B9BDF80410504600F064
:105FC000C1F80820CDE784F800800021A175BDF854
:105FD0000410A18269682161FCF7ACFFE0602988A8
:105FE00021816888A080A4F806A0B8F1030F03D12E
:105FF0000421A1753168A161A4F80AB06846FCF7D4
:10600000F1FB46B100207060E06830600020B072A3
:10601000044800893081FCF7E7FC0020A1E700007C
:10602000003C0020B85A00202DE9F04107460D46FB
:10603000A88A00EB80002A4901EB800637B1294687
:106040003046FBF744F80120BDE8F08131897068E3
:1060500000EB8108A87D072837D2DFE800F0112384
:10606000171D0429330000201E494860A8690860F4
:106070001D491C48FCF778FE08B90A20E4E700BF78
:1060800041462846FCF708FF044620E041462846E2
:10609000FCF734FF04461AE041462846FCF7A0FF0F
:1060A000044614E041462846FCF70CFF04460EE087
:1060B0000621A9750B4948680B490988FCF7CEFEF3
:1060C000044604E041F61D5401E00F2400BF00BF68
:1060D0001CB129463046FAF7FAFF2046B4E7000023
:1060E000905A0020C85A0020383C00202DE9F04189
:1060F0000446D4E90510081AB0F5805F03D2D4E94C
:106100000510081A01E04FF4805005460C4840681D
:10611000B5FBF0F0012804D909484068B5FBF0F060
:1061200000E0012005462169A0690E18E168A06918
:106130000F182A463946304629DFBDE8F0810000B5
:10614000D065030010B501EB8102064B03EB820220
:106150005389C21C9A1A01EB8103024C04EB83039E
:106160005A8110BD905A00202DE9F04107460E4695
:106170004FF00008F81C85B240F2FE30854202DB89
:106180000920BDE8F08100241DE004EB84001349E0
:1061900011F82000A8B929462046FAF757FF80B128
:1061A0004FF00108348004EB84000C4901EB8000BF
:1061B0004089284404EB8401084A02EB81014881AC
:1061C00003E0601C84B2022CDFDB00BFB8F1000FDB
:1061D00001D00020D5E70720D3E70000905A002027
:1061E0007CB505460C460A208DF804008DF8055054
:1061F0008DF8064003236A46194601A8FEF71EFCE7
:106200007CBD000000000000000000000000000055
:106210000040024024000400743E0020943E002010
:10622000B43E0020D43E0020F43E0020143F002065
:10623000343F0020543F002004000000080000000C
:106240000338FDD87047020007010000010000007C
:10625000D007000007000000020007010000000056
:106260000200000100000000020000000100000028
:10627000D0070000070000000000074100001112D5
:1062800013140D0E0F1000007850002098500020BD
:10629000C45000200D0003000D9302000E00030007
:1062A0000D9302000F0003000D9302001000030085
:1062B0000D93020007000000000000000000000035
:1062C00000000000000000000600000000000000C8
:1062D00000000000000000000000000010000000AE
:1062E00000000000000000000000000000000000AE
:1062F000110000000000000000000000000000008D
:106300000000000001000000010001000463030020
:106310000000000001000100106303008D21030054
:10632000E5B50200770A000000000000770A0000CF
:10633000000000007ADA00000000000051140300A1
:106340000700000000000000000000000000000046
:1063500000000000CD220300C545030019B902006A
:1063600089B60200010000000000000001000600E4
:10637000403B0020854603000100000000000000B3
:106380000000000000000000000000000700000006
:1063900000000000000000000000000000000000FD
:1063A00003000000000000000000000000000000EA
:1063B00000000000050000000000000000000000D8
:1063C000000000000000000025260300636E6965E0
:1063D00077654B6F616958C2000027AC636E6965D1
:1063E00077654B6F616958C2000027AC636F6965C0
:1063F00077654B6F616958C20000CCCC636F6965EB
:1064000077654B6F616958C20000CCCC000000502A
:106410006E7266785F6770696F74655F696E6974C4
:10642000006E7266785F6770696F74655F6F757410
:106430005F696E6974006E7266785F6770696F7409
:10644000655F696E5F696E6974000000FFFFFFFFA2
:106450000007FF0000000040000000006E72667838
:106460005F7370696D5F696E69740000B16E0200E0
:10647000C56E02007370696D5F78666572006E723A
:1064800066785F7370696D5F786665720000000002
:106490000338FDD870476E7266785F73616164631C
:1064A0005F696E6974006E7266785F7361616463C0
:1064B0005F6368616E6E656C5F696E6974006E72B1
:1064C00066785F73616164635F6368616E6E656C5B
:1064D0005F756E696E6974006E7266785F73616174
:1064E00064635F73616D706C655F636F6E76657218
:1064F00074006E7266785F73616164635F62756673
:106500006665725F636F6E76657274006E72667830
:106510005F73616164635F73616D706C65006E725F
:1065200066785F73616164635F63616C6962726105
:1065300074655F6F6666736574000000000000009C
:106540000338FDD870470000143C0020DEC0ADDEEB
:10655000FF011EF1DEC0ADDEFE011EF10000FFFFF7
:106560003031323334353637383941424344454689
:106570006E72665F6673746F726167655F696E697C
:1065800074006E72665F6673746F726167655F75C3
:106590006E696E6974006E72665F6673746F7261A5
:1065A00067655F72656164006E72665F6673746FC3
:1065B000726167655F7772697465006E72665F66A7
:1065C00073746F726167655F657261736500000067
:1065D000001000000400000001000000443C002006
:1065E000C9BD0200155603005D2A0300A95C030023
:1065F0009DA4020065300300A15C0300D5C3020026
:10660000000000000000000000000000000000008A
:106610000000000000000000006603001866030090
:1066200004000000556E6B6E6F776E206572726F9E
:106630007220636F6465000000000000E86D0300D5
:1066400001000000946C030002000000886A03004F
:1066500003000000086D0300040000005C6D0300EF
:10666000050000003C6C030006000000D86B03002E
:1066700007000000446D030008000000506C030098
:1066800009000000B46C03000A000000D06D030094
:106690000B000000706A03000C000000686C03002F
:1066A0000D000000386E03000E000000346D030082
:1066B0000F000000706D030010000000A46D0300C7
:1066C000110000004C6E030012000000206E030059
:1066D00013000000BC6D030080000000F06B03009D
:1066E000810000002C6B030082000000EC6A0300B4
:1066F00083000000CC6A030084000000086B0300E4
:1067000085000000146C0300860000001C6D03006F
:1067100090000000B86B030091000000AC6A030019
:10672000920000007C6C030000820000846D030076
:1067300001820000D06C030002820000EC6C0300B8
:1067400000840000486B030001840000F46D030026
:1067500002840000906B0300038400006C6B030054
:106760007DE602007BE6020071E602000000000008
:106770000338FDD8704700009C720300A472030028
:106780000000000000000000786703008867030035
:1067900008000000D4720300E4720300000000004F
:1067A0000000000094670300A467030008000000D5
:1067B000C4720300D4720300000000000000000057
:1067C000B0670300C067030008000000001002016A
:1067D000447203004C7203004C7203007472030095
:1067E0007472030094720300947203009C7203009D
:1067F000D0670300F067030008000000803A002023
:10680000A4720300BC720300BC720300C4720300D4
:10681000006803001068030008000000000000008A
:1068200000000000003000400000000001000000F7
:10683000C819000000000000000000000000000077
:106840000338FDD870470000FFFFFFFF07FF00007F
:1068500000000040000000000000000000000000F8
:1068600001000000004000400100000001000000A5
:106870000338FDD870470000FFFFFFFF07FF00004F
:106880000000004000000000E7E7E7E7C2C2C2C224
:10689000E7C2C3C4C5C6C7C80100000000000000AD
:1068A00001020000FA0003000001022000000000C5
:1068B0000040404040404040404041414141414013
:1068C00040404040404040404040404040404040C8
:1068D0004005020202020202020202020202020257
:1068E000022020202020202020202002020202025C
:1068F00002029090909090901010101010101010B4
:1069000010101010101010101010101002020202BF
:106910000202888888888888080808080808080803
:1069200008080808080808080808080802020202FF
:1069300040000000B168030073645F626C655F67CC
:1069400061705F646973636F6E6E65637420626506
:106950006361757365206F6620424C455F4843490B
:106960005F434F4E4E5F494E54455256414C5F5522
:106970004E41434345505441424C450073645F626D
:106980006C655F6761705F646174615F6C656E67A1
:1069900074685F7570646174652829202872657158
:1069A0007565737429206F6E20636F6E6E656374F6
:1069B000696F6E20307825782072657475726E6507
:1069C000642025732E00000054686520726571757F
:1069D000657374656420636F6D62696E6174696F5D
:1069E0006E206F6620545820616E642052582070CB
:1069F00061636B6574206C656E677468732069737E
:106A000020746F6F206C6F6E67206279202575206F
:106A10006D6963726F7365636F6E64732E0000003F
:106A2000616464725F69735F77697468696E5F62DD
:106A30006F756E647328705F66732C207061676574
:106A40005F616464722C20286C656E202A20705F60
:106A500066732D3E705F666C6173685F696E666F0A
:106A60002D3E65726173655F756E6974292900003A
:106A70004E52465F4552524F525F494E56414C4925
:106A8000445F4441544100004E52465F4552524FCC
:106A9000525F534F46544445564943455F4E4F5409
:106AA0005F454E41424C4544000000004E52465F57
:106AB0004552524F525F464541545552455F4E4FE5
:106AC000545F454E41424C45440000004E52465FE3
:106AD0004552524F525F4D555445585F554E4C4F9D
:106AE000434B5F4641494C45440000004E52465FCF
:106AF0004552524F525F4D555445585F4C4F434B92
:106B00005F4641494C4544004E52465F4552524F04
:106B1000525F4D555445585F434F4E445F494E496F
:106B2000545F4641494C4544000000004E52465FC8
:106B30004552524F525F4D555445585F494E495446
:106B40005F4641494C4544004E52465F4552524FC4
:106B5000525F424C455F495053505F52585F504B13
:106B6000545F5452554E4341544544004E52465F83
:106B70004552524F525F424C455F495053505F500F
:106B80004545525F52454A45435445440000000084
:106B90004E52465F4552524F525F424C455F4950FC
:106BA00053505F4C494E4B5F444953434F4E4E4503
:106BB00043544544000000004E52465F4552524F38
:106BC000525F4150495F4E4F545F494D504C454DC7
:106BD000454E5445440000004E52465F4552524FC8
:106BE000525F4E4F545F535550504F5254454400DE
:106BF0004E52465F4552524F525F4D4F44554C45A1
:106C00005F4E4F545F494E495449414C495A45449F
:106C1000000000004E52465F4552524F525F4D4FAA
:106C200044554C455F414C52454144595F494E499A
:106C30005449414C495A4544000000004E52465FB9
:106C40004552524F525F4E4F545F464F554E44008F
:106C50004E52465F4552524F525F494E56414C4943
:106C6000445F5354415445004E52465F4552524F83
:106C7000525F444154415F53495A45004E52465F6A
:106C80004552524F525F494F5F50454E44494E471F
:106C9000000000004E52465F4552524F525F53561D
:106CA000435F48414E444C45525F4D495353494E12
:106CB000470000004E52465F4552524F525F494EC8
:106CC00056414C49445F4C454E4754480000000033
:106CD0004E52465F4552524F525F4452565F545790
:106CE000495F4552525F414E41434B004E52465F11
:106CF0004552524F525F4452565F5457495F455276
:106D0000525F444E41434B004E52465F4552524FF4
:106D1000525F494E5445524E414C00004E52465F20
:106D20004552524F525F53544F524147455F46556B
:106D30004C4C00004E52465F4552524F525F4E55EA
:106D40004C4C00004E52465F4552524F525F494EE6
:106D500056414C49445F504152414D004E52465FAE
:106D60004552524F525F4E4F5F4D454D000000005F
:106D70004E52465F4552524F525F464F524249442F
:106D800044454E004E52465F4552524F525F445268
:106D9000565F5457495F4552525F4F5645525255C0
:106DA0004E0000004E52465F4552524F525F494ED0
:106DB00056414C49445F4144445200004E52465FA4
:106DC0004552524F525F5245534F5552434553001F
:106DD0004E52465F4552524F525F494E56414C49C2
:106DE000445F464C414753004E52465F5355434320
:106DF000455353004E52465F4552524F525F424CEC
:106E0000455F495053505F4348414E4E454C5F41AA
:106E10004C52454144595F45584953545300000072
:106E20004E52465F4552524F525F434F4E4E5F4364
:106E30004F554E54000000004E52465F4552524F8F
:106E4000525F54494D454F55540000004E52465F25
:106E50004552524F525F4255535900007761726E4E
:106E6000696E670064656275670000001B5B313BFB
:106E700033306D001B5B306D000000001B5B313B4D
:106E800033316D001B5B313B33326D001B5B313B9B
:106E900033336D001B5B313B33346D001B5B313B87
:106EA00033356D001B5B313B33366D001B5B313B73
:106EB00033376D00696E666F000000006572726F97
:106EC0007200000073645F626C655F6366675F7386
:106ED000657428292072657475726E656420257347
:106EE000207768656E20617474656D7074696E6773
:106EF00020746F2073657420424C455F47415454A1
:106F0000535F4346475F534552564943455F4348A5
:106F1000414E4745442E000073645F626C655F63B9
:106F200066675F73657428292072657475726E6573
:106F300064202573207768656E20617474656D70B8
:106F400074696E6720746F2073657420424C455FCE
:106F5000434F4D4D4F4E5F4346475F56535F555528
:106F600049442E0073645F626C655F6366675F739C
:106F7000657428292072657475726E6564202573A6
:106F8000207768656E20617474656D7074696E67D2
:106F900020746F2073657420424C455F4741545400
:106FA000535F4346475F415454525F5441425F53DD
:106FB000495A452E0000000073645F626C655F6390
:106FC00066675F73657428292072657475726E65D3
:106FD00064202573207768656E20617474656D7018
:106FE00074696E6720746F2073657420424C455F2E
:106FF000434F4E4E5F4346475F4741502E000000CF
:1070000073645F626C655F6366675F73657428298C
:107010002072657475726E656420257320776865CB
:107020006E20617474656D7074696E6720746F2072
:1070300073657420424C455F4741505F4346475F4C
:10704000524F4C455F434F554E542E0073645F6260
:107050006C655F6366675F73657428292072657469
:1070600075726E6564202573207768656E20617483
:1070700074656D7074696E6720746F207365742019
:10708000424C455F434F4E4E5F4346475F47415436
:10709000542E00006E72665F626C655F6761747487
:1070A00000000000626C655F62617300636C6F6377
:1070B0006B000000434C4F434B0000004750494FCA
:1070C00054450000505253005541525400000000F6
:1070D0005541525445000000574454005350494D07
:1070E000000000005341414443000000525443005B
:1070F00061746669666F2E6D5F71756575650000F8
:107100006E72665F6673746F72616765000000007F
:1071100061746669666F2E6D5F6669666F00000058
:107120007077725F6D676D740000000062616C6C57
:107130006F632E6C6F675F6D656D706F6F6C0000B5
:10714000617070006E72665F736468006E72665F75
:107150007364685F626C65006E72665F7364685F1B
:10716000736F6300E4720300803A0020E8020000BD
:1071700050650200A8730300683D0020204800000D
:10718000767302009470030000000303A4700300F0
:1071900000000000AC70030000000000B4700300A9
:1071A00000000000BC70030000000000C470030079
:1071B00000000000C870030000000000D070030051
:1071C00000000000D870030000000000DC70030025
:1071D00000000000E470030000000000EC700300F9
:1071E00000000000F07003000000000300710300C5
:1071F000000003031071030000000003207103006E
:10720000000000002C710300000000034071030027
:107210000000030344710300000003034C710300EA
:10722000000003035871030000000303803C0020AA
:10723000783C0020803C0020C05B0020543D0020B2
:10724000180000005D8F020000000000C9D102009C
:10725000683D002069860200883D0020A58E02005E
:10726000000000001D8F020000000000519002008D
:10727000000000001BD302007C3D00207B8902003F
:10728000403E0020AD900200543E00207D90020060
:10729000643E00204D8C020000000000FDE0020072
:1072A00000000000FD4803000000000045E102006E
:1072B000000000002B50030000000000A586020023
:1072C000883D0020FDF302000000000009F60200E6
:1072D00000000000593703000000000019E102001F
:1072E00000000000320132022A58054102181443FE
:1072F00012F0140101061401BA021401020114D59E
:10730000A3021A06103908191014495503295032DE
:107310000813B03A75207145032DFFFF0F181A01AD
:10732000266B812138012A2A1801091A1C09161D09
:1073300001131AE7011AC201000D18E7C2C3C4C540
:10734000C6C7C80805FF0229D60A2813DB01351372
:10735000443D022C200A154C30041D60670314BC08
:107360006E031A5C041AB4041A64041A74041A6CC6
:10737000041A7C041A84041A8C041A94041A9C04B7
:107380001AA4041AAC04E1420600111AF004F20433
:10739000F404F604F804FA04FC04FE047B90D041E3
:0873A000045D57B1020000007A
:040000050002620192
:00000001FF
